{
	"BCN4/FundMe.sol": {
		"FundMe": {
			"abi": [
				{
					"inputs": [],
					"stateMutability": "nonpayable",
					"type": "constructor"
				},
				{
					"inputs": [],
					"name": "MINIMUM_USD",
					"outputs": [
						{
							"internalType": "uint256",
							"name": "",
							"type": "uint256"
						}
					],
					"stateMutability": "view",
					"type": "function"
				},
				{
					"inputs": [
						{
							"internalType": "address",
							"name": "",
							"type": "address"
						}
					],
					"name": "addressToAmountFunded",
					"outputs": [
						{
							"internalType": "uint256",
							"name": "",
							"type": "uint256"
						}
					],
					"stateMutability": "view",
					"type": "function"
				},
				{
					"inputs": [],
					"name": "fund",
					"outputs": [],
					"stateMutability": "payable",
					"type": "function"
				},
				{
					"inputs": [
						{
							"internalType": "uint256",
							"name": "",
							"type": "uint256"
						}
					],
					"name": "funders",
					"outputs": [
						{
							"internalType": "address",
							"name": "",
							"type": "address"
						}
					],
					"stateMutability": "view",
					"type": "function"
				},
				{
					"inputs": [],
					"name": "owner",
					"outputs": [
						{
							"internalType": "address",
							"name": "",
							"type": "address"
						}
					],
					"stateMutability": "view",
					"type": "function"
				},
				{
					"inputs": [],
					"name": "withdraw",
					"outputs": [],
					"stateMutability": "nonpayable",
					"type": "function"
				}
			],
			"devdoc": {
				"kind": "dev",
				"methods": {},
				"version": 1
			},
			"evm": {
				"assembly": "    /* \"BCN4/FundMe.sol\":166:2406  contract FundMe {... */\n  mstore(0x40, 0x80)\n    /* \"BCN4/FundMe.sol\":1194:1237  constructor() {... */\n  callvalue\n  dup1\n  iszero\n  tag_1\n  jumpi\n  revert(0x00, 0x00)\ntag_1:\n  pop\n    /* \"BCN4/FundMe.sol\":1222:1232  msg.sender */\n  caller\n    /* \"BCN4/FundMe.sol\":1214:1219  owner */\n  0x02\n  0x00\n    /* \"BCN4/FundMe.sol\":1214:1232  owner = msg.sender */\n  0x0100\n  exp\n  dup2\n  sload\n  dup2\n  0xffffffffffffffffffffffffffffffffffffffff\n  mul\n  not\n  and\n  swap1\n  dup4\n  0xffffffffffffffffffffffffffffffffffffffff\n  and\n  mul\n  or\n  swap1\n  sstore\n  pop\n    /* \"BCN4/FundMe.sol\":166:2406  contract FundMe {... */\n  dataSize(sub_0)\n  dup1\n  dataOffset(sub_0)\n  0x00\n  codecopy\n  0x00\n  return\nstop\n\nsub_0: assembly {\n        /* \"BCN4/FundMe.sol\":166:2406  contract FundMe {... */\n      mstore(0x40, 0x80)\n      jumpi(tag_1, lt(calldatasize, 0x04))\n      shr(0xe0, calldataload(0x00))\n      dup1\n      0x3ccfd60b\n      eq\n      tag_2\n      jumpi\n      dup1\n      0x3e47d6f3\n      eq\n      tag_3\n      jumpi\n      dup1\n      0x6b69a592\n      eq\n      tag_4\n      jumpi\n      dup1\n      0x8da5cb5b\n      eq\n      tag_5\n      jumpi\n      dup1\n      0xb60d4288\n      eq\n      tag_6\n      jumpi\n      dup1\n      0xdc0d3dff\n      eq\n      tag_7\n      jumpi\n    tag_1:\n      revert(0x00, 0x00)\n        /* \"BCN4/FundMe.sol\":1241:2224  function withdraw() public onlyOwner {... */\n    tag_2:\n      callvalue\n      dup1\n      iszero\n      tag_8\n      jumpi\n      revert(0x00, 0x00)\n    tag_8:\n      pop\n      tag_9\n      tag_10\n      jump\t// in\n    tag_9:\n      stop\n        /* \"BCN4/FundMe.sol\":332:388  mapping(address => uint256) public addressToAmountFunded */\n    tag_3:\n      callvalue\n      dup1\n      iszero\n      tag_11\n      jumpi\n      revert(0x00, 0x00)\n    tag_11:\n      pop\n      tag_12\n      0x04\n      dup1\n      calldatasize\n      sub\n      dup2\n      add\n      swap1\n      tag_13\n      swap2\n      swap1\n      tag_14\n      jump\t// in\n    tag_13:\n      tag_15\n      jump\t// in\n    tag_12:\n      mload(0x40)\n      tag_16\n      swap2\n      swap1\n      tag_17\n      jump\t// in\n    tag_16:\n      mload(0x40)\n      dup1\n      swap2\n      sub\n      swap1\n      return\n        /* \"BCN4/FundMe.sol\":224:271  uint256 public constant MINIMUM_USD = 50 * 1e18 */\n    tag_4:\n      callvalue\n      dup1\n      iszero\n      tag_18\n      jumpi\n      revert(0x00, 0x00)\n    tag_18:\n      pop\n      tag_19\n      tag_20\n      jump\t// in\n    tag_19:\n      mload(0x40)\n      tag_21\n      swap2\n      swap1\n      tag_17\n      jump\t// in\n    tag_21:\n      mload(0x40)\n      dup1\n      swap2\n      sub\n      swap1\n      return\n        /* \"BCN4/FundMe.sol\":1169:1189  address public owner */\n    tag_5:\n      callvalue\n      dup1\n      iszero\n      tag_22\n      jumpi\n      revert(0x00, 0x00)\n    tag_22:\n      pop\n      tag_23\n      tag_24\n      jump\t// in\n    tag_23:\n      mload(0x40)\n      tag_25\n      swap2\n      swap1\n      tag_26\n      jump\t// in\n    tag_25:\n      mload(0x40)\n      dup1\n      swap2\n      sub\n      swap1\n      return\n        /* \"BCN4/FundMe.sol\":393:1165  function fund() public payable {... */\n    tag_6:\n      tag_27\n      tag_28\n      jump\t// in\n    tag_27:\n      stop\n        /* \"BCN4/FundMe.sol\":304:328  address[] public funders */\n    tag_7:\n      callvalue\n      dup1\n      iszero\n      tag_29\n      jumpi\n      revert(0x00, 0x00)\n    tag_29:\n      pop\n      tag_30\n      0x04\n      dup1\n      calldatasize\n      sub\n      dup2\n      add\n      swap1\n      tag_31\n      swap2\n      swap1\n      tag_32\n      jump\t// in\n    tag_31:\n      tag_33\n      jump\t// in\n    tag_30:\n      mload(0x40)\n      tag_34\n      swap2\n      swap1\n      tag_26\n      jump\t// in\n    tag_34:\n      mload(0x40)\n      dup1\n      swap2\n      sub\n      swap1\n      return\n        /* \"BCN4/FundMe.sol\":1241:2224  function withdraw() public onlyOwner {... */\n    tag_10:\n        /* \"BCN4/FundMe.sol\":2288:2293  owner */\n      0x02\n      0x00\n      swap1\n      sload\n      swap1\n      0x0100\n      exp\n      swap1\n      div\n      0xffffffffffffffffffffffffffffffffffffffff\n      and\n        /* \"BCN4/FundMe.sol\":2274:2293  msg.sender == owner */\n      0xffffffffffffffffffffffffffffffffffffffff\n      and\n        /* \"BCN4/FundMe.sol\":2274:2284  msg.sender */\n      caller\n        /* \"BCN4/FundMe.sol\":2274:2293  msg.sender == owner */\n      0xffffffffffffffffffffffffffffffffffffffff\n      and\n      eq\n        /* \"BCN4/FundMe.sol\":2266:2317  require(msg.sender == owner, \"sender is not owner\") */\n      tag_36\n      jumpi\n      mload(0x40)\n      0x08c379a000000000000000000000000000000000000000000000000000000000\n      dup2\n      mstore\n      0x04\n      add\n      tag_37\n      swap1\n      tag_38\n      jump\t// in\n    tag_37:\n      mload(0x40)\n      dup1\n      swap2\n      sub\n      swap1\n      revert\n    tag_36:\n        /* \"BCN4/FundMe.sol\":1574:1575  0 */\n      0x00\n        /* \"BCN4/FundMe.sol\":1560:1576  new address[](0) */\n      0xffffffffffffffff\n      dup2\n      gt\n      iszero\n      tag_40\n      jumpi\n      tag_41\n      tag_42\n      jump\t// in\n    tag_41:\n    tag_40:\n      mload(0x40)\n      swap1\n      dup1\n      dup3\n      mstore\n      dup1\n      0x20\n      mul\n      0x20\n      add\n      dup3\n      add\n      0x40\n      mstore\n      dup1\n      iszero\n      tag_43\n      jumpi\n      dup2\n      0x20\n      add\n      0x20\n      dup3\n      mul\n      dup1\n      calldatasize\n      dup4\n      calldatacopy\n      dup1\n      dup3\n      add\n      swap2\n      pop\n      pop\n      swap1\n      pop\n    tag_43:\n      pop\n        /* \"BCN4/FundMe.sol\":1550:1557  funders */\n      0x00\n        /* \"BCN4/FundMe.sol\":1550:1576  funders = new address[](0) */\n      swap1\n      dup1\n      mload\n      swap1\n      0x20\n      add\n      swap1\n      tag_44\n      swap3\n      swap2\n      swap1\n      tag_45\n      jump\t// in\n    tag_44:\n      pop\n        /* \"BCN4/FundMe.sol\":2093:2109  bool callSuccess */\n      0x00\n        /* \"BCN4/FundMe.sol\":2123:2133  msg.sender */\n      caller\n        /* \"BCN4/FundMe.sol\":2115:2139  payable(msg.sender).call */\n      0xffffffffffffffffffffffffffffffffffffffff\n      and\n        /* \"BCN4/FundMe.sol\":2147:2168  address(this).balance */\n      selfbalance\n        /* \"BCN4/FundMe.sol\":2115:2173  payable(msg.sender).call{value: address(this).balance}(\"\") */\n      mload(0x40)\n      tag_46\n      swap1\n      tag_47\n      jump\t// in\n    tag_46:\n      0x00\n      mload(0x40)\n      dup1\n      dup4\n      sub\n      dup2\n      dup6\n      dup8\n      gas\n      call\n      swap3\n      pop\n      pop\n      pop\n      returndatasize\n      dup1\n      0x00\n      dup2\n      eq\n      tag_50\n      jumpi\n      mload(0x40)\n      swap2\n      pop\n      and(add(returndatasize, 0x3f), not(0x1f))\n      dup3\n      add\n      0x40\n      mstore\n      returndatasize\n      dup3\n      mstore\n      returndatasize\n      0x00\n      0x20\n      dup5\n      add\n      returndatacopy\n      jump(tag_49)\n    tag_50:\n      0x60\n      swap2\n      pop\n    tag_49:\n      pop\n        /* \"BCN4/FundMe.sol\":2092:2173  (bool callSuccess, ) = payable(msg.sender).call{value: address(this).balance}(\"\") */\n      pop\n      swap1\n      pop\n        /* \"BCN4/FundMe.sol\":2187:2198  callSuccess */\n      dup1\n        /* \"BCN4/FundMe.sol\":2179:2214  require(callSuccess, \"Call failed\") */\n      tag_51\n      jumpi\n      mload(0x40)\n      0x08c379a000000000000000000000000000000000000000000000000000000000\n      dup2\n      mstore\n      0x04\n      add\n      tag_52\n      swap1\n      tag_53\n      jump\t// in\n    tag_52:\n      mload(0x40)\n      dup1\n      swap2\n      sub\n      swap1\n      revert\n    tag_51:\n        /* \"BCN4/FundMe.sol\":1278:2224  {... */\n      pop\n        /* \"BCN4/FundMe.sol\":1241:2224  function withdraw() public onlyOwner {... */\n      jump\t// out\n        /* \"BCN4/FundMe.sol\":332:388  mapping(address => uint256) public addressToAmountFunded */\n    tag_15:\n      mstore(0x20, 0x01)\n      dup1\n      0x00\n      mstore\n      keccak256(0x00, 0x40)\n      0x00\n      swap2\n      pop\n      swap1\n      pop\n      sload\n      dup2\n      jump\t// out\n        /* \"BCN4/FundMe.sol\":224:271  uint256 public constant MINIMUM_USD = 50 * 1e18 */\n    tag_20:\n        /* \"BCN4/FundMe.sol\":262:271  50 * 1e18 */\n      0x02b5e3af16b1880000\n        /* \"BCN4/FundMe.sol\":224:271  uint256 public constant MINIMUM_USD = 50 * 1e18 */\n      dup2\n      jump\t// out\n        /* \"BCN4/FundMe.sol\":1169:1189  address public owner */\n    tag_24:\n      0x02\n      0x00\n      swap1\n      sload\n      swap1\n      0x0100\n      exp\n      swap1\n      div\n      0xffffffffffffffffffffffffffffffffffffffff\n      and\n      dup2\n      jump\t// out\n        /* \"BCN4/FundMe.sol\":393:1165  function fund() public payable {... */\n    tag_28:\n        /* \"BCN4/FundMe.sol\":262:271  50 * 1e18 */\n      0x02b5e3af16b1880000\n        /* \"BCN4/FundMe.sol\":543:572  msg.value.getConversionRate() */\n      tag_55\n        /* \"BCN4/FundMe.sol\":543:552  msg.value */\n      callvalue\n        /* \"BCN4/FundMe.sol\":543:570  msg.value.getConversionRate */\n      tag_56\n        /* \"BCN4/FundMe.sol\":543:572  msg.value.getConversionRate() */\n      jump\t// in\n    tag_55:\n        /* \"BCN4/FundMe.sol\":543:587  msg.value.getConversionRate() >= MINIMUM_USD */\n      lt\n      iszero\n        /* \"BCN4/FundMe.sol\":535:610  require(msg.value.getConversionRate() >= MINIMUM_USD, \"Didn't send enough\") */\n      tag_57\n      jumpi\n      mload(0x40)\n      0x08c379a000000000000000000000000000000000000000000000000000000000\n      dup2\n      mstore\n      0x04\n      add\n      tag_58\n      swap1\n      tag_59\n      jump\t// in\n    tag_58:\n      mload(0x40)\n      dup1\n      swap2\n      sub\n      swap1\n      revert\n    tag_57:\n        /* \"BCN4/FundMe.sol\":1041:1048  funders */\n      0x00\n        /* \"BCN4/FundMe.sol\":1054:1064  msg.sender */\n      caller\n        /* \"BCN4/FundMe.sol\":1041:1065  funders.push(msg.sender) */\n      swap1\n      dup1\n      0x01\n      dup2\n      sload\n      add\n      dup1\n      dup3\n      sstore\n      dup1\n      swap2\n      pop\n      pop\n      0x01\n      swap1\n      sub\n      swap1\n      0x00\n      mstore\n      keccak256(0x00, 0x20)\n      add\n      0x00\n      swap1\n      swap2\n      swap1\n      swap2\n      swap1\n      swap2\n      0x0100\n      exp\n      dup2\n      sload\n      dup2\n      0xffffffffffffffffffffffffffffffffffffffff\n      mul\n      not\n      and\n      swap1\n      dup4\n      0xffffffffffffffffffffffffffffffffffffffff\n      and\n      mul\n      or\n      swap1\n      sstore\n      pop\n        /* \"BCN4/FundMe.sol\":1151:1160  msg.value */\n      callvalue\n        /* \"BCN4/FundMe.sol\":1114:1135  addressToAmountFunded */\n      0x01\n        /* \"BCN4/FundMe.sol\":1114:1147  addressToAmountFunded[msg.sender] */\n      0x00\n        /* \"BCN4/FundMe.sol\":1136:1146  msg.sender */\n      caller\n        /* \"BCN4/FundMe.sol\":1114:1147  addressToAmountFunded[msg.sender] */\n      0xffffffffffffffffffffffffffffffffffffffff\n      and\n      0xffffffffffffffffffffffffffffffffffffffff\n      and\n      dup2\n      mstore\n      0x20\n      add\n      swap1\n      dup2\n      mstore\n      0x20\n      add\n      0x00\n      keccak256\n      0x00\n        /* \"BCN4/FundMe.sol\":1114:1160  addressToAmountFunded[msg.sender] += msg.value */\n      dup3\n      dup3\n      sload\n      tag_61\n      swap2\n      swap1\n      tag_62\n      jump\t// in\n    tag_61:\n      swap3\n      pop\n      pop\n      dup2\n      swap1\n      sstore\n      pop\n        /* \"BCN4/FundMe.sol\":393:1165  function fund() public payable {... */\n      jump\t// out\n        /* \"BCN4/FundMe.sol\":304:328  address[] public funders */\n    tag_33:\n      0x00\n      dup2\n      dup2\n      sload\n      dup2\n      lt\n      tag_63\n      jumpi\n      0x00\n      dup1\n      revert\n    tag_63:\n      swap1\n      0x00\n      mstore\n      keccak256(0x00, 0x20)\n      add\n      0x00\n      swap2\n      pop\n      sload\n      swap1\n      0x0100\n      exp\n      swap1\n      div\n      0xffffffffffffffffffffffffffffffffffffffff\n      and\n      dup2\n      jump\t// out\n        /* \"BCN4/PriceConverter.sol\":1247:1555  function getConversionRate(uint256 ethAmount) internal view returns (uint256) {... */\n    tag_56:\n        /* \"BCN4/PriceConverter.sol\":1316:1323  uint256 */\n      0x00\n        /* \"BCN4/PriceConverter.sol\":1332:1348  uint256 ethPrice */\n      0x00\n        /* \"BCN4/PriceConverter.sol\":1351:1361  getPrice() */\n      tag_66\n        /* \"BCN4/PriceConverter.sol\":1351:1359  getPrice */\n      tag_67\n        /* \"BCN4/PriceConverter.sol\":1351:1361  getPrice() */\n      jump\t// in\n    tag_66:\n        /* \"BCN4/PriceConverter.sol\":1332:1361  uint256 ethPrice = getPrice() */\n      swap1\n      pop\n        /* \"BCN4/PriceConverter.sol\":1447:1469  uint256 ethAmountInUsd */\n      0x00\n        /* \"BCN4/PriceConverter.sol\":1497:1501  1e18 */\n      0x0de0b6b3a7640000\n        /* \"BCN4/PriceConverter.sol\":1484:1493  ethAmount */\n      dup5\n        /* \"BCN4/PriceConverter.sol\":1473:1481  ethPrice */\n      dup4\n        /* \"BCN4/PriceConverter.sol\":1473:1493  ethPrice * ethAmount */\n      tag_68\n      swap2\n      swap1\n      tag_69\n      jump\t// in\n    tag_68:\n        /* \"BCN4/PriceConverter.sol\":1472:1501  (ethPrice * ethAmount) / 1e18 */\n      tag_70\n      swap2\n      swap1\n      tag_71\n      jump\t// in\n    tag_70:\n        /* \"BCN4/PriceConverter.sol\":1447:1501  uint256 ethAmountInUsd = (ethPrice * ethAmount) / 1e18 */\n      swap1\n      pop\n        /* \"BCN4/PriceConverter.sol\":1535:1549  ethAmountInUsd */\n      dup1\n        /* \"BCN4/PriceConverter.sol\":1528:1549  return ethAmountInUsd */\n      swap3\n      pop\n      pop\n      pop\n        /* \"BCN4/PriceConverter.sol\":1247:1555  function getConversionRate(uint256 ethAmount) internal view returns (uint256) {... */\n      swap2\n      swap1\n      pop\n      jump\t// out\n        /* \"BCN4/PriceConverter.sol\":367:1036  function getPrice() internal view returns (uint256) {... */\n    tag_67:\n        /* \"BCN4/PriceConverter.sol\":410:417  uint256 */\n      0x00\n        /* \"BCN4/PriceConverter.sol\":730:761  AggregatorV3Interface priceFeed */\n      0x00\n        /* \"BCN4/PriceConverter.sol\":786:828  0x694AA1769357215DE4FAC081bf1f309aDC325306 */\n      0x694aa1769357215de4fac081bf1f309adc325306\n        /* \"BCN4/PriceConverter.sol\":730:829  AggregatorV3Interface priceFeed = AggregatorV3Interface(0x694AA1769357215DE4FAC081bf1f309aDC325306) */\n      swap1\n      pop\n        /* \"BCN4/PriceConverter.sol\":839:851  int256 price */\n      0x00\n        /* \"BCN4/PriceConverter.sol\":858:867  priceFeed */\n      dup2\n        /* \"BCN4/PriceConverter.sol\":858:883  priceFeed.latestRoundData */\n      0xffffffffffffffffffffffffffffffffffffffff\n      and\n      0xfeaf968c\n        /* \"BCN4/PriceConverter.sol\":858:885  priceFeed.latestRoundData() */\n      mload(0x40)\n      dup2\n      0xffffffff\n      and\n      0xe0\n      shl\n      dup2\n      mstore\n      0x04\n      add\n      0xa0\n      mload(0x40)\n      dup1\n      dup4\n      sub\n      dup2\n      dup7\n      gas\n      staticcall\n      iszero\n      dup1\n      iszero\n      tag_74\n      jumpi\n      returndatacopy(0x00, 0x00, returndatasize)\n      revert(0x00, returndatasize)\n    tag_74:\n      pop\n      pop\n      pop\n      pop\n      mload(0x40)\n      returndatasize\n      not(0x1f)\n      0x1f\n      dup3\n      add\n      and\n      dup3\n      add\n      dup1\n      0x40\n      mstore\n      pop\n      dup2\n      add\n      swap1\n      tag_75\n      swap2\n      swap1\n      tag_76\n      jump\t// in\n    tag_75:\n        /* \"BCN4/PriceConverter.sol\":836:885  (, int256 price,,,) = priceFeed.latestRoundData() */\n      pop\n      pop\n      pop\n      swap2\n      pop\n      pop\n        /* \"BCN4/PriceConverter.sol\":983:987  1e10 */\n      0x02540be400\n        /* \"BCN4/PriceConverter.sol\":977:982  price */\n      dup2\n        /* \"BCN4/PriceConverter.sol\":977:987  price*1e10 */\n      tag_77\n      swap2\n      swap1\n      tag_78\n      jump\t// in\n    tag_77:\n        /* \"BCN4/PriceConverter.sol\":962:988  return uint256(price*1e10) */\n      swap3\n      pop\n      pop\n      pop\n        /* \"BCN4/PriceConverter.sol\":367:1036  function getPrice() internal view returns (uint256) {... */\n      swap1\n      jump\t// out\n    tag_45:\n      dup3\n      dup1\n      sload\n      dup3\n      dup3\n      sstore\n      swap1\n      0x00\n      mstore\n      keccak256(0x00, 0x20)\n      swap1\n      dup2\n      add\n      swap3\n      dup3\n      iszero\n      tag_79\n      jumpi\n      swap2\n      0x20\n      mul\n      dup3\n      add\n    tag_80:\n      dup3\n      dup2\n      gt\n      iszero\n      tag_81\n      jumpi\n      dup3\n      mload\n      dup3\n      exp(0x0100, 0x00)\n      dup2\n      sload\n      dup2\n      0xffffffffffffffffffffffffffffffffffffffff\n      mul\n      not\n      and\n      swap1\n      dup4\n      0xffffffffffffffffffffffffffffffffffffffff\n      and\n      mul\n      or\n      swap1\n      sstore\n      pop\n      swap2\n      0x20\n      add\n      swap2\n      swap1\n      0x01\n      add\n      swap1\n      jump(tag_80)\n    tag_81:\n    tag_79:\n      pop\n      swap1\n      pop\n      tag_82\n      swap2\n      swap1\n      tag_83\n      jump\t// in\n    tag_82:\n      pop\n      swap1\n      jump\t// out\n    tag_83:\n    tag_84:\n      dup1\n      dup3\n      gt\n      iszero\n      tag_85\n      jumpi\n      0x00\n      dup2\n      0x00\n      swap1\n      sstore\n      pop\n      0x01\n      add\n      jump(tag_84)\n    tag_85:\n      pop\n      swap1\n      jump\t// out\n        /* \"#utility.yul\":88:205   */\n    tag_87:\n        /* \"#utility.yul\":197:198   */\n      0x00\n        /* \"#utility.yul\":194:195   */\n      0x00\n        /* \"#utility.yul\":187:199   */\n      revert\n        /* \"#utility.yul\":334:460   */\n    tag_89:\n        /* \"#utility.yul\":371:378   */\n      0x00\n        /* \"#utility.yul\":411:453   */\n      0xffffffffffffffffffffffffffffffffffffffff\n        /* \"#utility.yul\":404:409   */\n      dup3\n        /* \"#utility.yul\":400:454   */\n      and\n        /* \"#utility.yul\":389:454   */\n      swap1\n      pop\n        /* \"#utility.yul\":334:460   */\n      swap2\n      swap1\n      pop\n      jump\t// out\n        /* \"#utility.yul\":466:562   */\n    tag_90:\n        /* \"#utility.yul\":503:510   */\n      0x00\n        /* \"#utility.yul\":532:556   */\n      tag_123\n        /* \"#utility.yul\":550:555   */\n      dup3\n        /* \"#utility.yul\":532:556   */\n      tag_89\n      jump\t// in\n    tag_123:\n        /* \"#utility.yul\":521:556   */\n      swap1\n      pop\n        /* \"#utility.yul\":466:562   */\n      swap2\n      swap1\n      pop\n      jump\t// out\n        /* \"#utility.yul\":568:690   */\n    tag_91:\n        /* \"#utility.yul\":641:665   */\n      tag_125\n        /* \"#utility.yul\":659:664   */\n      dup2\n        /* \"#utility.yul\":641:665   */\n      tag_90\n      jump\t// in\n    tag_125:\n        /* \"#utility.yul\":634:639   */\n      dup2\n        /* \"#utility.yul\":631:666   */\n      eq\n        /* \"#utility.yul\":621:684   */\n      tag_126\n      jumpi\n        /* \"#utility.yul\":680:681   */\n      0x00\n        /* \"#utility.yul\":677:678   */\n      0x00\n        /* \"#utility.yul\":670:682   */\n      revert\n        /* \"#utility.yul\":621:684   */\n    tag_126:\n        /* \"#utility.yul\":568:690   */\n      pop\n      jump\t// out\n        /* \"#utility.yul\":696:835   */\n    tag_92:\n        /* \"#utility.yul\":742:747   */\n      0x00\n        /* \"#utility.yul\":780:786   */\n      dup2\n        /* \"#utility.yul\":767:787   */\n      calldataload\n        /* \"#utility.yul\":758:787   */\n      swap1\n      pop\n        /* \"#utility.yul\":796:829   */\n      tag_128\n        /* \"#utility.yul\":823:828   */\n      dup2\n        /* \"#utility.yul\":796:829   */\n      tag_91\n      jump\t// in\n    tag_128:\n        /* \"#utility.yul\":696:835   */\n      swap3\n      swap2\n      pop\n      pop\n      jump\t// out\n        /* \"#utility.yul\":841:1170   */\n    tag_14:\n        /* \"#utility.yul\":900:906   */\n      0x00\n        /* \"#utility.yul\":949:951   */\n      0x20\n        /* \"#utility.yul\":937:946   */\n      dup3\n        /* \"#utility.yul\":928:935   */\n      dup5\n        /* \"#utility.yul\":924:947   */\n      sub\n        /* \"#utility.yul\":920:952   */\n      slt\n        /* \"#utility.yul\":917:1036   */\n      iszero\n      tag_130\n      jumpi\n        /* \"#utility.yul\":955:1034   */\n      tag_131\n      tag_87\n      jump\t// in\n    tag_131:\n        /* \"#utility.yul\":917:1036   */\n    tag_130:\n        /* \"#utility.yul\":1075:1076   */\n      0x00\n        /* \"#utility.yul\":1100:1153   */\n      tag_132\n        /* \"#utility.yul\":1145:1152   */\n      dup5\n        /* \"#utility.yul\":1136:1142   */\n      dup3\n        /* \"#utility.yul\":1125:1134   */\n      dup6\n        /* \"#utility.yul\":1121:1143   */\n      add\n        /* \"#utility.yul\":1100:1153   */\n      tag_92\n      jump\t// in\n    tag_132:\n        /* \"#utility.yul\":1090:1153   */\n      swap2\n      pop\n        /* \"#utility.yul\":1046:1163   */\n      pop\n        /* \"#utility.yul\":841:1170   */\n      swap3\n      swap2\n      pop\n      pop\n      jump\t// out\n        /* \"#utility.yul\":1176:1253   */\n    tag_93:\n        /* \"#utility.yul\":1213:1220   */\n      0x00\n        /* \"#utility.yul\":1242:1247   */\n      dup2\n        /* \"#utility.yul\":1231:1247   */\n      swap1\n      pop\n        /* \"#utility.yul\":1176:1253   */\n      swap2\n      swap1\n      pop\n      jump\t// out\n        /* \"#utility.yul\":1259:1377   */\n    tag_94:\n        /* \"#utility.yul\":1346:1370   */\n      tag_135\n        /* \"#utility.yul\":1364:1369   */\n      dup2\n        /* \"#utility.yul\":1346:1370   */\n      tag_93\n      jump\t// in\n    tag_135:\n        /* \"#utility.yul\":1341:1344   */\n      dup3\n        /* \"#utility.yul\":1334:1371   */\n      mstore\n        /* \"#utility.yul\":1259:1377   */\n      pop\n      pop\n      jump\t// out\n        /* \"#utility.yul\":1383:1605   */\n    tag_17:\n        /* \"#utility.yul\":1476:1480   */\n      0x00\n        /* \"#utility.yul\":1514:1516   */\n      0x20\n        /* \"#utility.yul\":1503:1512   */\n      dup3\n        /* \"#utility.yul\":1499:1517   */\n      add\n        /* \"#utility.yul\":1491:1517   */\n      swap1\n      pop\n        /* \"#utility.yul\":1527:1598   */\n      tag_137\n        /* \"#utility.yul\":1595:1596   */\n      0x00\n        /* \"#utility.yul\":1584:1593   */\n      dup4\n        /* \"#utility.yul\":1580:1597   */\n      add\n        /* \"#utility.yul\":1571:1577   */\n      dup5\n        /* \"#utility.yul\":1527:1598   */\n      tag_94\n      jump\t// in\n    tag_137:\n        /* \"#utility.yul\":1383:1605   */\n      swap3\n      swap2\n      pop\n      pop\n      jump\t// out\n        /* \"#utility.yul\":1611:1729   */\n    tag_95:\n        /* \"#utility.yul\":1698:1722   */\n      tag_139\n        /* \"#utility.yul\":1716:1721   */\n      dup2\n        /* \"#utility.yul\":1698:1722   */\n      tag_90\n      jump\t// in\n    tag_139:\n        /* \"#utility.yul\":1693:1696   */\n      dup3\n        /* \"#utility.yul\":1686:1723   */\n      mstore\n        /* \"#utility.yul\":1611:1729   */\n      pop\n      pop\n      jump\t// out\n        /* \"#utility.yul\":1735:1957   */\n    tag_26:\n        /* \"#utility.yul\":1828:1832   */\n      0x00\n        /* \"#utility.yul\":1866:1868   */\n      0x20\n        /* \"#utility.yul\":1855:1864   */\n      dup3\n        /* \"#utility.yul\":1851:1869   */\n      add\n        /* \"#utility.yul\":1843:1869   */\n      swap1\n      pop\n        /* \"#utility.yul\":1879:1950   */\n      tag_141\n        /* \"#utility.yul\":1947:1948   */\n      0x00\n        /* \"#utility.yul\":1936:1945   */\n      dup4\n        /* \"#utility.yul\":1932:1949   */\n      add\n        /* \"#utility.yul\":1923:1929   */\n      dup5\n        /* \"#utility.yul\":1879:1950   */\n      tag_95\n      jump\t// in\n    tag_141:\n        /* \"#utility.yul\":1735:1957   */\n      swap3\n      swap2\n      pop\n      pop\n      jump\t// out\n        /* \"#utility.yul\":1963:2085   */\n    tag_96:\n        /* \"#utility.yul\":2036:2060   */\n      tag_143\n        /* \"#utility.yul\":2054:2059   */\n      dup2\n        /* \"#utility.yul\":2036:2060   */\n      tag_93\n      jump\t// in\n    tag_143:\n        /* \"#utility.yul\":2029:2034   */\n      dup2\n        /* \"#utility.yul\":2026:2061   */\n      eq\n        /* \"#utility.yul\":2016:2079   */\n      tag_144\n      jumpi\n        /* \"#utility.yul\":2075:2076   */\n      0x00\n        /* \"#utility.yul\":2072:2073   */\n      0x00\n        /* \"#utility.yul\":2065:2077   */\n      revert\n        /* \"#utility.yul\":2016:2079   */\n    tag_144:\n        /* \"#utility.yul\":1963:2085   */\n      pop\n      jump\t// out\n        /* \"#utility.yul\":2091:2230   */\n    tag_97:\n        /* \"#utility.yul\":2137:2142   */\n      0x00\n        /* \"#utility.yul\":2175:2181   */\n      dup2\n        /* \"#utility.yul\":2162:2182   */\n      calldataload\n        /* \"#utility.yul\":2153:2182   */\n      swap1\n      pop\n        /* \"#utility.yul\":2191:2224   */\n      tag_146\n        /* \"#utility.yul\":2218:2223   */\n      dup2\n        /* \"#utility.yul\":2191:2224   */\n      tag_96\n      jump\t// in\n    tag_146:\n        /* \"#utility.yul\":2091:2230   */\n      swap3\n      swap2\n      pop\n      pop\n      jump\t// out\n        /* \"#utility.yul\":2236:2565   */\n    tag_32:\n        /* \"#utility.yul\":2295:2301   */\n      0x00\n        /* \"#utility.yul\":2344:2346   */\n      0x20\n        /* \"#utility.yul\":2332:2341   */\n      dup3\n        /* \"#utility.yul\":2323:2330   */\n      dup5\n        /* \"#utility.yul\":2319:2342   */\n      sub\n        /* \"#utility.yul\":2315:2347   */\n      slt\n        /* \"#utility.yul\":2312:2431   */\n      iszero\n      tag_148\n      jumpi\n        /* \"#utility.yul\":2350:2429   */\n      tag_149\n      tag_87\n      jump\t// in\n    tag_149:\n        /* \"#utility.yul\":2312:2431   */\n    tag_148:\n        /* \"#utility.yul\":2470:2471   */\n      0x00\n        /* \"#utility.yul\":2495:2548   */\n      tag_150\n        /* \"#utility.yul\":2540:2547   */\n      dup5\n        /* \"#utility.yul\":2531:2537   */\n      dup3\n        /* \"#utility.yul\":2520:2529   */\n      dup6\n        /* \"#utility.yul\":2516:2538   */\n      add\n        /* \"#utility.yul\":2495:2548   */\n      tag_97\n      jump\t// in\n    tag_150:\n        /* \"#utility.yul\":2485:2548   */\n      swap2\n      pop\n        /* \"#utility.yul\":2441:2558   */\n      pop\n        /* \"#utility.yul\":2236:2565   */\n      swap3\n      swap2\n      pop\n      pop\n      jump\t// out\n        /* \"#utility.yul\":2571:2740   */\n    tag_98:\n        /* \"#utility.yul\":2655:2666   */\n      0x00\n        /* \"#utility.yul\":2689:2695   */\n      dup3\n        /* \"#utility.yul\":2684:2687   */\n      dup3\n        /* \"#utility.yul\":2677:2696   */\n      mstore\n        /* \"#utility.yul\":2729:2733   */\n      0x20\n        /* \"#utility.yul\":2724:2727   */\n      dup3\n        /* \"#utility.yul\":2720:2734   */\n      add\n        /* \"#utility.yul\":2705:2734   */\n      swap1\n      pop\n        /* \"#utility.yul\":2571:2740   */\n      swap3\n      swap2\n      pop\n      pop\n      jump\t// out\n        /* \"#utility.yul\":2746:2915   */\n    tag_99:\n        /* \"#utility.yul\":2886:2907   */\n      0x73656e646572206973206e6f74206f776e657200000000000000000000000000\n        /* \"#utility.yul\":2882:2883   */\n      0x00\n        /* \"#utility.yul\":2874:2880   */\n      dup3\n        /* \"#utility.yul\":2870:2884   */\n      add\n        /* \"#utility.yul\":2863:2908   */\n      mstore\n        /* \"#utility.yul\":2746:2915   */\n      pop\n      jump\t// out\n        /* \"#utility.yul\":2921:3287   */\n    tag_100:\n        /* \"#utility.yul\":3063:3066   */\n      0x00\n        /* \"#utility.yul\":3084:3151   */\n      tag_154\n        /* \"#utility.yul\":3148:3150   */\n      0x13\n        /* \"#utility.yul\":3143:3146   */\n      dup4\n        /* \"#utility.yul\":3084:3151   */\n      tag_98\n      jump\t// in\n    tag_154:\n        /* \"#utility.yul\":3077:3151   */\n      swap2\n      pop\n        /* \"#utility.yul\":3160:3253   */\n      tag_155\n        /* \"#utility.yul\":3249:3252   */\n      dup3\n        /* \"#utility.yul\":3160:3253   */\n      tag_99\n      jump\t// in\n    tag_155:\n        /* \"#utility.yul\":3278:3280   */\n      0x20\n        /* \"#utility.yul\":3273:3276   */\n      dup3\n        /* \"#utility.yul\":3269:3281   */\n      add\n        /* \"#utility.yul\":3262:3281   */\n      swap1\n      pop\n        /* \"#utility.yul\":2921:3287   */\n      swap2\n      swap1\n      pop\n      jump\t// out\n        /* \"#utility.yul\":3293:3712   */\n    tag_38:\n        /* \"#utility.yul\":3459:3463   */\n      0x00\n        /* \"#utility.yul\":3497:3499   */\n      0x20\n        /* \"#utility.yul\":3486:3495   */\n      dup3\n        /* \"#utility.yul\":3482:3500   */\n      add\n        /* \"#utility.yul\":3474:3500   */\n      swap1\n      pop\n        /* \"#utility.yul\":3546:3555   */\n      dup2\n        /* \"#utility.yul\":3540:3544   */\n      dup2\n        /* \"#utility.yul\":3536:3556   */\n      sub\n        /* \"#utility.yul\":3532:3533   */\n      0x00\n        /* \"#utility.yul\":3521:3530   */\n      dup4\n        /* \"#utility.yul\":3517:3534   */\n      add\n        /* \"#utility.yul\":3510:3557   */\n      mstore\n        /* \"#utility.yul\":3574:3705   */\n      tag_157\n        /* \"#utility.yul\":3700:3704   */\n      dup2\n        /* \"#utility.yul\":3574:3705   */\n      tag_100\n      jump\t// in\n    tag_157:\n        /* \"#utility.yul\":3566:3705   */\n      swap1\n      pop\n        /* \"#utility.yul\":3293:3712   */\n      swap2\n      swap1\n      pop\n      jump\t// out\n        /* \"#utility.yul\":3718:3898   */\n    tag_42:\n        /* \"#utility.yul\":3766:3843   */\n      0x4e487b7100000000000000000000000000000000000000000000000000000000\n        /* \"#utility.yul\":3763:3764   */\n      0x00\n        /* \"#utility.yul\":3756:3844   */\n      mstore\n        /* \"#utility.yul\":3863:3867   */\n      0x41\n        /* \"#utility.yul\":3860:3861   */\n      0x04\n        /* \"#utility.yul\":3853:3868   */\n      mstore\n        /* \"#utility.yul\":3887:3891   */\n      0x24\n        /* \"#utility.yul\":3884:3885   */\n      0x00\n        /* \"#utility.yul\":3877:3892   */\n      revert\n        /* \"#utility.yul\":3904:4051   */\n    tag_101:\n        /* \"#utility.yul\":4005:4016   */\n      0x00\n        /* \"#utility.yul\":4042:4045   */\n      dup2\n        /* \"#utility.yul\":4027:4045   */\n      swap1\n      pop\n        /* \"#utility.yul\":3904:4051   */\n      swap3\n      swap2\n      pop\n      pop\n      jump\t// out\n        /* \"#utility.yul\":4057:4171   */\n    tag_102:\n      pop\n      jump\t// out\n        /* \"#utility.yul\":4177:4575   */\n    tag_103:\n        /* \"#utility.yul\":4336:4339   */\n      0x00\n        /* \"#utility.yul\":4357:4440   */\n      tag_162\n        /* \"#utility.yul\":4438:4439   */\n      0x00\n        /* \"#utility.yul\":4433:4436   */\n      dup4\n        /* \"#utility.yul\":4357:4440   */\n      tag_101\n      jump\t// in\n    tag_162:\n        /* \"#utility.yul\":4350:4440   */\n      swap2\n      pop\n        /* \"#utility.yul\":4449:4542   */\n      tag_163\n        /* \"#utility.yul\":4538:4541   */\n      dup3\n        /* \"#utility.yul\":4449:4542   */\n      tag_102\n      jump\t// in\n    tag_163:\n        /* \"#utility.yul\":4567:4568   */\n      0x00\n        /* \"#utility.yul\":4562:4565   */\n      dup3\n        /* \"#utility.yul\":4558:4569   */\n      add\n        /* \"#utility.yul\":4551:4569   */\n      swap1\n      pop\n        /* \"#utility.yul\":4177:4575   */\n      swap2\n      swap1\n      pop\n      jump\t// out\n        /* \"#utility.yul\":4581:4960   */\n    tag_47:\n        /* \"#utility.yul\":4765:4768   */\n      0x00\n        /* \"#utility.yul\":4787:4934   */\n      tag_165\n        /* \"#utility.yul\":4930:4933   */\n      dup3\n        /* \"#utility.yul\":4787:4934   */\n      tag_103\n      jump\t// in\n    tag_165:\n        /* \"#utility.yul\":4780:4934   */\n      swap2\n      pop\n        /* \"#utility.yul\":4951:4954   */\n      dup2\n        /* \"#utility.yul\":4944:4954   */\n      swap1\n      pop\n        /* \"#utility.yul\":4581:4960   */\n      swap2\n      swap1\n      pop\n      jump\t// out\n        /* \"#utility.yul\":4966:5127   */\n    tag_104:\n        /* \"#utility.yul\":5106:5119   */\n      0x43616c6c206661696c6564000000000000000000000000000000000000000000\n        /* \"#utility.yul\":5102:5103   */\n      0x00\n        /* \"#utility.yul\":5094:5100   */\n      dup3\n        /* \"#utility.yul\":5090:5104   */\n      add\n        /* \"#utility.yul\":5083:5120   */\n      mstore\n        /* \"#utility.yul\":4966:5127   */\n      pop\n      jump\t// out\n        /* \"#utility.yul\":5133:5499   */\n    tag_105:\n        /* \"#utility.yul\":5275:5278   */\n      0x00\n        /* \"#utility.yul\":5296:5363   */\n      tag_168\n        /* \"#utility.yul\":5360:5362   */\n      0x0b\n        /* \"#utility.yul\":5355:5358   */\n      dup4\n        /* \"#utility.yul\":5296:5363   */\n      tag_98\n      jump\t// in\n    tag_168:\n        /* \"#utility.yul\":5289:5363   */\n      swap2\n      pop\n        /* \"#utility.yul\":5372:5465   */\n      tag_169\n        /* \"#utility.yul\":5461:5464   */\n      dup3\n        /* \"#utility.yul\":5372:5465   */\n      tag_104\n      jump\t// in\n    tag_169:\n        /* \"#utility.yul\":5490:5492   */\n      0x20\n        /* \"#utility.yul\":5485:5488   */\n      dup3\n        /* \"#utility.yul\":5481:5493   */\n      add\n        /* \"#utility.yul\":5474:5493   */\n      swap1\n      pop\n        /* \"#utility.yul\":5133:5499   */\n      swap2\n      swap1\n      pop\n      jump\t// out\n        /* \"#utility.yul\":5505:5924   */\n    tag_53:\n        /* \"#utility.yul\":5671:5675   */\n      0x00\n        /* \"#utility.yul\":5709:5711   */\n      0x20\n        /* \"#utility.yul\":5698:5707   */\n      dup3\n        /* \"#utility.yul\":5694:5712   */\n      add\n        /* \"#utility.yul\":5686:5712   */\n      swap1\n      pop\n        /* \"#utility.yul\":5758:5767   */\n      dup2\n        /* \"#utility.yul\":5752:5756   */\n      dup2\n        /* \"#utility.yul\":5748:5768   */\n      sub\n        /* \"#utility.yul\":5744:5745   */\n      0x00\n        /* \"#utility.yul\":5733:5742   */\n      dup4\n        /* \"#utility.yul\":5729:5746   */\n      add\n        /* \"#utility.yul\":5722:5769   */\n      mstore\n        /* \"#utility.yul\":5786:5917   */\n      tag_171\n        /* \"#utility.yul\":5912:5916   */\n      dup2\n        /* \"#utility.yul\":5786:5917   */\n      tag_105\n      jump\t// in\n    tag_171:\n        /* \"#utility.yul\":5778:5917   */\n      swap1\n      pop\n        /* \"#utility.yul\":5505:5924   */\n      swap2\n      swap1\n      pop\n      jump\t// out\n        /* \"#utility.yul\":5930:6098   */\n    tag_106:\n        /* \"#utility.yul\":6070:6090   */\n      0x4469646e27742073656e6420656e6f7567680000000000000000000000000000\n        /* \"#utility.yul\":6066:6067   */\n      0x00\n        /* \"#utility.yul\":6058:6064   */\n      dup3\n        /* \"#utility.yul\":6054:6068   */\n      add\n        /* \"#utility.yul\":6047:6091   */\n      mstore\n        /* \"#utility.yul\":5930:6098   */\n      pop\n      jump\t// out\n        /* \"#utility.yul\":6104:6470   */\n    tag_107:\n        /* \"#utility.yul\":6246:6249   */\n      0x00\n        /* \"#utility.yul\":6267:6334   */\n      tag_174\n        /* \"#utility.yul\":6331:6333   */\n      0x12\n        /* \"#utility.yul\":6326:6329   */\n      dup4\n        /* \"#utility.yul\":6267:6334   */\n      tag_98\n      jump\t// in\n    tag_174:\n        /* \"#utility.yul\":6260:6334   */\n      swap2\n      pop\n        /* \"#utility.yul\":6343:6436   */\n      tag_175\n        /* \"#utility.yul\":6432:6435   */\n      dup3\n        /* \"#utility.yul\":6343:6436   */\n      tag_106\n      jump\t// in\n    tag_175:\n        /* \"#utility.yul\":6461:6463   */\n      0x20\n        /* \"#utility.yul\":6456:6459   */\n      dup3\n        /* \"#utility.yul\":6452:6464   */\n      add\n        /* \"#utility.yul\":6445:6464   */\n      swap1\n      pop\n        /* \"#utility.yul\":6104:6470   */\n      swap2\n      swap1\n      pop\n      jump\t// out\n        /* \"#utility.yul\":6476:6895   */\n    tag_59:\n        /* \"#utility.yul\":6642:6646   */\n      0x00\n        /* \"#utility.yul\":6680:6682   */\n      0x20\n        /* \"#utility.yul\":6669:6678   */\n      dup3\n        /* \"#utility.yul\":6665:6683   */\n      add\n        /* \"#utility.yul\":6657:6683   */\n      swap1\n      pop\n        /* \"#utility.yul\":6729:6738   */\n      dup2\n        /* \"#utility.yul\":6723:6727   */\n      dup2\n        /* \"#utility.yul\":6719:6739   */\n      sub\n        /* \"#utility.yul\":6715:6716   */\n      0x00\n        /* \"#utility.yul\":6704:6713   */\n      dup4\n        /* \"#utility.yul\":6700:6717   */\n      add\n        /* \"#utility.yul\":6693:6740   */\n      mstore\n        /* \"#utility.yul\":6757:6888   */\n      tag_177\n        /* \"#utility.yul\":6883:6887   */\n      dup2\n        /* \"#utility.yul\":6757:6888   */\n      tag_107\n      jump\t// in\n    tag_177:\n        /* \"#utility.yul\":6749:6888   */\n      swap1\n      pop\n        /* \"#utility.yul\":6476:6895   */\n      swap2\n      swap1\n      pop\n      jump\t// out\n        /* \"#utility.yul\":6901:7081   */\n    tag_108:\n        /* \"#utility.yul\":6949:7026   */\n      0x4e487b7100000000000000000000000000000000000000000000000000000000\n        /* \"#utility.yul\":6946:6947   */\n      0x00\n        /* \"#utility.yul\":6939:7027   */\n      mstore\n        /* \"#utility.yul\":7046:7050   */\n      0x11\n        /* \"#utility.yul\":7043:7044   */\n      0x04\n        /* \"#utility.yul\":7036:7051   */\n      mstore\n        /* \"#utility.yul\":7070:7074   */\n      0x24\n        /* \"#utility.yul\":7067:7068   */\n      0x00\n        /* \"#utility.yul\":7060:7075   */\n      revert\n        /* \"#utility.yul\":7087:7278   */\n    tag_62:\n        /* \"#utility.yul\":7127:7130   */\n      0x00\n        /* \"#utility.yul\":7146:7166   */\n      tag_180\n        /* \"#utility.yul\":7164:7165   */\n      dup3\n        /* \"#utility.yul\":7146:7166   */\n      tag_93\n      jump\t// in\n    tag_180:\n        /* \"#utility.yul\":7141:7166   */\n      swap2\n      pop\n        /* \"#utility.yul\":7180:7200   */\n      tag_181\n        /* \"#utility.yul\":7198:7199   */\n      dup4\n        /* \"#utility.yul\":7180:7200   */\n      tag_93\n      jump\t// in\n    tag_181:\n        /* \"#utility.yul\":7175:7200   */\n      swap3\n      pop\n        /* \"#utility.yul\":7223:7224   */\n      dup3\n        /* \"#utility.yul\":7220:7221   */\n      dup3\n        /* \"#utility.yul\":7216:7225   */\n      add\n        /* \"#utility.yul\":7209:7225   */\n      swap1\n      pop\n        /* \"#utility.yul\":7244:7247   */\n      dup1\n        /* \"#utility.yul\":7241:7242   */\n      dup3\n        /* \"#utility.yul\":7238:7248   */\n      gt\n        /* \"#utility.yul\":7235:7271   */\n      iszero\n      tag_182\n      jumpi\n        /* \"#utility.yul\":7251:7269   */\n      tag_183\n      tag_108\n      jump\t// in\n    tag_183:\n        /* \"#utility.yul\":7235:7271   */\n    tag_182:\n        /* \"#utility.yul\":7087:7278   */\n      swap3\n      swap2\n      pop\n      pop\n      jump\t// out\n        /* \"#utility.yul\":7284:7694   */\n    tag_69:\n        /* \"#utility.yul\":7324:7331   */\n      0x00\n        /* \"#utility.yul\":7347:7367   */\n      tag_185\n        /* \"#utility.yul\":7365:7366   */\n      dup3\n        /* \"#utility.yul\":7347:7367   */\n      tag_93\n      jump\t// in\n    tag_185:\n        /* \"#utility.yul\":7342:7367   */\n      swap2\n      pop\n        /* \"#utility.yul\":7381:7401   */\n      tag_186\n        /* \"#utility.yul\":7399:7400   */\n      dup4\n        /* \"#utility.yul\":7381:7401   */\n      tag_93\n      jump\t// in\n    tag_186:\n        /* \"#utility.yul\":7376:7401   */\n      swap3\n      pop\n        /* \"#utility.yul\":7436:7437   */\n      dup3\n        /* \"#utility.yul\":7433:7434   */\n      dup3\n        /* \"#utility.yul\":7429:7438   */\n      mul\n        /* \"#utility.yul\":7458:7488   */\n      tag_187\n        /* \"#utility.yul\":7476:7487   */\n      dup2\n        /* \"#utility.yul\":7458:7488   */\n      tag_93\n      jump\t// in\n    tag_187:\n        /* \"#utility.yul\":7447:7488   */\n      swap2\n      pop\n        /* \"#utility.yul\":7637:7638   */\n      dup3\n        /* \"#utility.yul\":7628:7635   */\n      dup3\n        /* \"#utility.yul\":7624:7639   */\n      div\n        /* \"#utility.yul\":7621:7622   */\n      dup5\n        /* \"#utility.yul\":7618:7640   */\n      eq\n        /* \"#utility.yul\":7598:7599   */\n      dup4\n        /* \"#utility.yul\":7591:7600   */\n      iszero\n        /* \"#utility.yul\":7571:7654   */\n      or\n        /* \"#utility.yul\":7548:7687   */\n      tag_188\n      jumpi\n        /* \"#utility.yul\":7667:7685   */\n      tag_189\n      tag_108\n      jump\t// in\n    tag_189:\n        /* \"#utility.yul\":7548:7687   */\n    tag_188:\n        /* \"#utility.yul\":7332:7694   */\n      pop\n        /* \"#utility.yul\":7284:7694   */\n      swap3\n      swap2\n      pop\n      pop\n      jump\t// out\n        /* \"#utility.yul\":7700:7880   */\n    tag_109:\n        /* \"#utility.yul\":7748:7825   */\n      0x4e487b7100000000000000000000000000000000000000000000000000000000\n        /* \"#utility.yul\":7745:7746   */\n      0x00\n        /* \"#utility.yul\":7738:7826   */\n      mstore\n        /* \"#utility.yul\":7845:7849   */\n      0x12\n        /* \"#utility.yul\":7842:7843   */\n      0x04\n        /* \"#utility.yul\":7835:7850   */\n      mstore\n        /* \"#utility.yul\":7869:7873   */\n      0x24\n        /* \"#utility.yul\":7866:7867   */\n      0x00\n        /* \"#utility.yul\":7859:7874   */\n      revert\n        /* \"#utility.yul\":7886:8071   */\n    tag_71:\n        /* \"#utility.yul\":7926:7927   */\n      0x00\n        /* \"#utility.yul\":7943:7963   */\n      tag_192\n        /* \"#utility.yul\":7961:7962   */\n      dup3\n        /* \"#utility.yul\":7943:7963   */\n      tag_93\n      jump\t// in\n    tag_192:\n        /* \"#utility.yul\":7938:7963   */\n      swap2\n      pop\n        /* \"#utility.yul\":7977:7997   */\n      tag_193\n        /* \"#utility.yul\":7995:7996   */\n      dup4\n        /* \"#utility.yul\":7977:7997   */\n      tag_93\n      jump\t// in\n    tag_193:\n        /* \"#utility.yul\":7972:7997   */\n      swap3\n      pop\n        /* \"#utility.yul\":8016:8017   */\n      dup3\n        /* \"#utility.yul\":8006:8041   */\n      tag_194\n      jumpi\n        /* \"#utility.yul\":8021:8039   */\n      tag_195\n      tag_109\n      jump\t// in\n    tag_195:\n        /* \"#utility.yul\":8006:8041   */\n    tag_194:\n        /* \"#utility.yul\":8063:8064   */\n      dup3\n        /* \"#utility.yul\":8060:8061   */\n      dup3\n        /* \"#utility.yul\":8056:8065   */\n      div\n        /* \"#utility.yul\":8051:8065   */\n      swap1\n      pop\n        /* \"#utility.yul\":7886:8071   */\n      swap3\n      swap2\n      pop\n      pop\n      jump\t// out\n        /* \"#utility.yul\":8077:8182   */\n    tag_110:\n        /* \"#utility.yul\":8113:8120   */\n      0x00\n        /* \"#utility.yul\":8153:8175   */\n      0xffffffffffffffffffff\n        /* \"#utility.yul\":8146:8151   */\n      dup3\n        /* \"#utility.yul\":8142:8176   */\n      and\n        /* \"#utility.yul\":8131:8176   */\n      swap1\n      pop\n        /* \"#utility.yul\":8077:8182   */\n      swap2\n      swap1\n      pop\n      jump\t// out\n        /* \"#utility.yul\":8188:8308   */\n    tag_111:\n        /* \"#utility.yul\":8260:8283   */\n      tag_198\n        /* \"#utility.yul\":8277:8282   */\n      dup2\n        /* \"#utility.yul\":8260:8283   */\n      tag_110\n      jump\t// in\n    tag_198:\n        /* \"#utility.yul\":8253:8258   */\n      dup2\n        /* \"#utility.yul\":8250:8284   */\n      eq\n        /* \"#utility.yul\":8240:8302   */\n      tag_199\n      jumpi\n        /* \"#utility.yul\":8298:8299   */\n      0x00\n        /* \"#utility.yul\":8295:8296   */\n      0x00\n        /* \"#utility.yul\":8288:8300   */\n      revert\n        /* \"#utility.yul\":8240:8302   */\n    tag_199:\n        /* \"#utility.yul\":8188:8308   */\n      pop\n      jump\t// out\n        /* \"#utility.yul\":8314:8455   */\n    tag_112:\n        /* \"#utility.yul\":8370:8375   */\n      0x00\n        /* \"#utility.yul\":8401:8407   */\n      dup2\n        /* \"#utility.yul\":8395:8408   */\n      mload\n        /* \"#utility.yul\":8386:8408   */\n      swap1\n      pop\n        /* \"#utility.yul\":8417:8449   */\n      tag_201\n        /* \"#utility.yul\":8443:8448   */\n      dup2\n        /* \"#utility.yul\":8417:8449   */\n      tag_111\n      jump\t// in\n    tag_201:\n        /* \"#utility.yul\":8314:8455   */\n      swap3\n      swap2\n      pop\n      pop\n      jump\t// out\n        /* \"#utility.yul\":8461:8537   */\n    tag_113:\n        /* \"#utility.yul\":8497:8504   */\n      0x00\n        /* \"#utility.yul\":8526:8531   */\n      dup2\n        /* \"#utility.yul\":8515:8531   */\n      swap1\n      pop\n        /* \"#utility.yul\":8461:8537   */\n      swap2\n      swap1\n      pop\n      jump\t// out\n        /* \"#utility.yul\":8543:8663   */\n    tag_114:\n        /* \"#utility.yul\":8615:8638   */\n      tag_204\n        /* \"#utility.yul\":8632:8637   */\n      dup2\n        /* \"#utility.yul\":8615:8638   */\n      tag_113\n      jump\t// in\n    tag_204:\n        /* \"#utility.yul\":8608:8613   */\n      dup2\n        /* \"#utility.yul\":8605:8639   */\n      eq\n        /* \"#utility.yul\":8595:8657   */\n      tag_205\n      jumpi\n        /* \"#utility.yul\":8653:8654   */\n      0x00\n        /* \"#utility.yul\":8650:8651   */\n      0x00\n        /* \"#utility.yul\":8643:8655   */\n      revert\n        /* \"#utility.yul\":8595:8657   */\n    tag_205:\n        /* \"#utility.yul\":8543:8663   */\n      pop\n      jump\t// out\n        /* \"#utility.yul\":8669:8810   */\n    tag_115:\n        /* \"#utility.yul\":8725:8730   */\n      0x00\n        /* \"#utility.yul\":8756:8762   */\n      dup2\n        /* \"#utility.yul\":8750:8763   */\n      mload\n        /* \"#utility.yul\":8741:8763   */\n      swap1\n      pop\n        /* \"#utility.yul\":8772:8804   */\n      tag_207\n        /* \"#utility.yul\":8798:8803   */\n      dup2\n        /* \"#utility.yul\":8772:8804   */\n      tag_114\n      jump\t// in\n    tag_207:\n        /* \"#utility.yul\":8669:8810   */\n      swap3\n      swap2\n      pop\n      pop\n      jump\t// out\n        /* \"#utility.yul\":8816:8959   */\n    tag_116:\n        /* \"#utility.yul\":8873:8878   */\n      0x00\n        /* \"#utility.yul\":8904:8910   */\n      dup2\n        /* \"#utility.yul\":8898:8911   */\n      mload\n        /* \"#utility.yul\":8889:8911   */\n      swap1\n      pop\n        /* \"#utility.yul\":8920:8953   */\n      tag_209\n        /* \"#utility.yul\":8947:8952   */\n      dup2\n        /* \"#utility.yul\":8920:8953   */\n      tag_96\n      jump\t// in\n    tag_209:\n        /* \"#utility.yul\":8816:8959   */\n      swap3\n      swap2\n      pop\n      pop\n      jump\t// out\n        /* \"#utility.yul\":8965:9936   */\n    tag_76:\n        /* \"#utility.yul\":9068:9074   */\n      0x00\n        /* \"#utility.yul\":9076:9082   */\n      0x00\n        /* \"#utility.yul\":9084:9090   */\n      0x00\n        /* \"#utility.yul\":9092:9098   */\n      0x00\n        /* \"#utility.yul\":9100:9106   */\n      0x00\n        /* \"#utility.yul\":9149:9152   */\n      0xa0\n        /* \"#utility.yul\":9137:9146   */\n      dup7\n        /* \"#utility.yul\":9128:9135   */\n      dup9\n        /* \"#utility.yul\":9124:9147   */\n      sub\n        /* \"#utility.yul\":9120:9153   */\n      slt\n        /* \"#utility.yul\":9117:9237   */\n      iszero\n      tag_211\n      jumpi\n        /* \"#utility.yul\":9156:9235   */\n      tag_212\n      tag_87\n      jump\t// in\n    tag_212:\n        /* \"#utility.yul\":9117:9237   */\n    tag_211:\n        /* \"#utility.yul\":9276:9277   */\n      0x00\n        /* \"#utility.yul\":9301:9364   */\n      tag_213\n        /* \"#utility.yul\":9356:9363   */\n      dup9\n        /* \"#utility.yul\":9347:9353   */\n      dup3\n        /* \"#utility.yul\":9336:9345   */\n      dup10\n        /* \"#utility.yul\":9332:9354   */\n      add\n        /* \"#utility.yul\":9301:9364   */\n      tag_112\n      jump\t// in\n    tag_213:\n        /* \"#utility.yul\":9291:9364   */\n      swap6\n      pop\n        /* \"#utility.yul\":9247:9374   */\n      pop\n        /* \"#utility.yul\":9413:9415   */\n      0x20\n        /* \"#utility.yul\":9439:9502   */\n      tag_214\n        /* \"#utility.yul\":9494:9501   */\n      dup9\n        /* \"#utility.yul\":9485:9491   */\n      dup3\n        /* \"#utility.yul\":9474:9483   */\n      dup10\n        /* \"#utility.yul\":9470:9492   */\n      add\n        /* \"#utility.yul\":9439:9502   */\n      tag_115\n      jump\t// in\n    tag_214:\n        /* \"#utility.yul\":9429:9502   */\n      swap5\n      pop\n        /* \"#utility.yul\":9384:9512   */\n      pop\n        /* \"#utility.yul\":9551:9553   */\n      0x40\n        /* \"#utility.yul\":9577:9641   */\n      tag_215\n        /* \"#utility.yul\":9633:9640   */\n      dup9\n        /* \"#utility.yul\":9624:9630   */\n      dup3\n        /* \"#utility.yul\":9613:9622   */\n      dup10\n        /* \"#utility.yul\":9609:9631   */\n      add\n        /* \"#utility.yul\":9577:9641   */\n      tag_116\n      jump\t// in\n    tag_215:\n        /* \"#utility.yul\":9567:9641   */\n      swap4\n      pop\n        /* \"#utility.yul\":9522:9651   */\n      pop\n        /* \"#utility.yul\":9690:9692   */\n      0x60\n        /* \"#utility.yul\":9716:9780   */\n      tag_216\n        /* \"#utility.yul\":9772:9779   */\n      dup9\n        /* \"#utility.yul\":9763:9769   */\n      dup3\n        /* \"#utility.yul\":9752:9761   */\n      dup10\n        /* \"#utility.yul\":9748:9770   */\n      add\n        /* \"#utility.yul\":9716:9780   */\n      tag_116\n      jump\t// in\n    tag_216:\n        /* \"#utility.yul\":9706:9780   */\n      swap3\n      pop\n        /* \"#utility.yul\":9661:9790   */\n      pop\n        /* \"#utility.yul\":9829:9832   */\n      0x80\n        /* \"#utility.yul\":9856:9919   */\n      tag_217\n        /* \"#utility.yul\":9911:9918   */\n      dup9\n        /* \"#utility.yul\":9902:9908   */\n      dup3\n        /* \"#utility.yul\":9891:9900   */\n      dup10\n        /* \"#utility.yul\":9887:9909   */\n      add\n        /* \"#utility.yul\":9856:9919   */\n      tag_112\n      jump\t// in\n    tag_217:\n        /* \"#utility.yul\":9846:9919   */\n      swap2\n      pop\n        /* \"#utility.yul\":9800:9929   */\n      pop\n        /* \"#utility.yul\":8965:9936   */\n      swap3\n      swap6\n      pop\n      swap3\n      swap6\n      swap1\n      swap4\n      pop\n      jump\t// out\n        /* \"#utility.yul\":9942:10498   */\n    tag_78:\n        /* \"#utility.yul\":9981:9988   */\n      0x00\n        /* \"#utility.yul\":10004:10023   */\n      tag_219\n        /* \"#utility.yul\":10021:10022   */\n      dup3\n        /* \"#utility.yul\":10004:10023   */\n      tag_113\n      jump\t// in\n    tag_219:\n        /* \"#utility.yul\":9999:10023   */\n      swap2\n      pop\n        /* \"#utility.yul\":10037:10056   */\n      tag_220\n        /* \"#utility.yul\":10054:10055   */\n      dup4\n        /* \"#utility.yul\":10037:10056   */\n      tag_113\n      jump\t// in\n    tag_220:\n        /* \"#utility.yul\":10032:10056   */\n      swap3\n      pop\n        /* \"#utility.yul\":10091:10092   */\n      dup3\n        /* \"#utility.yul\":10088:10089   */\n      dup3\n        /* \"#utility.yul\":10084:10093   */\n      mul\n        /* \"#utility.yul\":10113:10142   */\n      tag_221\n        /* \"#utility.yul\":10130:10141   */\n      dup2\n        /* \"#utility.yul\":10113:10142   */\n      tag_113\n      jump\t// in\n    tag_221:\n        /* \"#utility.yul\":10102:10142   */\n      swap2\n      pop\n        /* \"#utility.yul\":10200:10266   */\n      0x8000000000000000000000000000000000000000000000000000000000000000\n        /* \"#utility.yul\":10197:10198   */\n      dup5\n        /* \"#utility.yul\":10194:10267   */\n      eq\n        /* \"#utility.yul\":10190:10191   */\n      0x00\n        /* \"#utility.yul\":10187:10188   */\n      dup5\n        /* \"#utility.yul\":10183:10192   */\n      slt\n        /* \"#utility.yul\":10179:10268   */\n      and\n        /* \"#utility.yul\":10176:10291   */\n      iszero\n      tag_222\n      jumpi\n        /* \"#utility.yul\":10271:10289   */\n      tag_223\n      tag_108\n      jump\t// in\n    tag_223:\n        /* \"#utility.yul\":10176:10291   */\n    tag_222:\n        /* \"#utility.yul\":10441:10442   */\n      dup3\n        /* \"#utility.yul\":10432:10439   */\n      dup3\n        /* \"#utility.yul\":10427:10443   */\n      sdiv\n        /* \"#utility.yul\":10424:10425   */\n      dup5\n        /* \"#utility.yul\":10421:10444   */\n      eq\n        /* \"#utility.yul\":10401:10402   */\n      dup4\n        /* \"#utility.yul\":10394:10403   */\n      iszero\n        /* \"#utility.yul\":10374:10458   */\n      or\n        /* \"#utility.yul\":10351:10491   */\n      tag_224\n      jumpi\n        /* \"#utility.yul\":10471:10489   */\n      tag_225\n      tag_108\n      jump\t// in\n    tag_225:\n        /* \"#utility.yul\":10351:10491   */\n    tag_224:\n        /* \"#utility.yul\":9989:10498   */\n      pop\n        /* \"#utility.yul\":9942:10498   */\n      swap3\n      swap2\n      pop\n      pop\n      jump\t// out\n\n    auxdata: 0xa2646970667358221220c238679481c50fb5d71758bc22096aa6283ef57bcdf3f9b6d7b4ec93325d6cfa64736f6c634300081e0033\n}\n",
				"bytecode": {
					"linkReferences": {},
					"object": "6080604052348015600e575f5ffd5b503360025f6101000a81548173ffffffffffffffffffffffffffffffffffffffff021916908373ffffffffffffffffffffffffffffffffffffffff160217905550610b788061005c5f395ff3fe608060405260043610610054575f3560e01c80633ccfd60b146100585780633e47d6f31461006e5780636b69a592146100aa5780638da5cb5b146100d4578063b60d4288146100fe578063dc0d3dff14610108575b5f5ffd5b348015610063575f5ffd5b5061006c610144565b005b348015610079575f5ffd5b50610094600480360381019061008f9190610642565b6102dc565b6040516100a19190610685565b60405180910390f35b3480156100b5575f5ffd5b506100be6102f1565b6040516100cb9190610685565b60405180910390f35b3480156100df575f5ffd5b506100e86102fe565b6040516100f591906106ad565b60405180910390f35b610106610323565b005b348015610113575f5ffd5b5061012e600480360381019061012991906106f0565b61042b565b60405161013b91906106ad565b60405180910390f35b60025f9054906101000a900473ffffffffffffffffffffffffffffffffffffffff1673ffffffffffffffffffffffffffffffffffffffff163373ffffffffffffffffffffffffffffffffffffffff16146101d3576040517f08c379a00000000000000000000000000000000000000000000000000000000081526004016101ca90610775565b60405180910390fd5b5f67ffffffffffffffff8111156101ed576101ec610793565b5b60405190808252806020026020018201604052801561021b5781602001602082028036833780820191505090505b505f9080519060200190610230929190610542565b505f3373ffffffffffffffffffffffffffffffffffffffff1647604051610256906107ed565b5f6040518083038185875af1925050503d805f8114610290576040519150601f19603f3d011682016040523d82523d5f602084013e610295565b606091505b50509050806102d9576040517f08c379a00000000000000000000000000000000000000000000000000000000081526004016102d09061084b565b60405180910390fd5b50565b6001602052805f5260405f205f915090505481565b6802b5e3af16b188000081565b60025f9054906101000a900473ffffffffffffffffffffffffffffffffffffffff1681565b6802b5e3af16b188000061033634610465565b1015610377576040517f08c379a000000000000000000000000000000000000000000000000000000000815260040161036e906108b3565b60405180910390fd5b5f33908060018154018082558091505060019003905f5260205f20015f9091909190916101000a81548173ffffffffffffffffffffffffffffffffffffffff021916908373ffffffffffffffffffffffffffffffffffffffff1602179055503460015f3373ffffffffffffffffffffffffffffffffffffffff1673ffffffffffffffffffffffffffffffffffffffff1681526020019081526020015f205f82825461042291906108fe565b92505081905550565b5f8181548110610439575f80fd5b905f5260205f20015f915054906101000a900473ffffffffffffffffffffffffffffffffffffffff1681565b5f5f61046f61049d565b90505f670de0b6b3a764000084836104879190610931565b610491919061099f565b90508092505050919050565b5f5f73694aa1769357215de4fac081bf1f309adc32530690505f8173ffffffffffffffffffffffffffffffffffffffff1663feaf968c6040518163ffffffff1660e01b815260040160a060405180830381865afa158015610500573d5f5f3e3d5ffd5b505050506040513d601f19601f820116820180604052508101906105249190610a55565b5050509150506402540be4008161053b9190610acc565b9250505090565b828054828255905f5260205f209081019282156105b8579160200282015b828111156105b7578251825f6101000a81548173ffffffffffffffffffffffffffffffffffffffff021916908373ffffffffffffffffffffffffffffffffffffffff16021790555091602001919060010190610560565b5b5090506105c591906105c9565b5090565b5b808211156105e0575f815f9055506001016105ca565b5090565b5f5ffd5b5f73ffffffffffffffffffffffffffffffffffffffff82169050919050565b5f610611826105e8565b9050919050565b61062181610607565b811461062b575f5ffd5b50565b5f8135905061063c81610618565b92915050565b5f60208284031215610657576106566105e4565b5b5f6106648482850161062e565b91505092915050565b5f819050919050565b61067f8161066d565b82525050565b5f6020820190506106985f830184610676565b92915050565b6106a781610607565b82525050565b5f6020820190506106c05f83018461069e565b92915050565b6106cf8161066d565b81146106d9575f5ffd5b50565b5f813590506106ea816106c6565b92915050565b5f60208284031215610705576107046105e4565b5b5f610712848285016106dc565b91505092915050565b5f82825260208201905092915050565b7f73656e646572206973206e6f74206f776e6572000000000000000000000000005f82015250565b5f61075f60138361071b565b915061076a8261072b565b602082019050919050565b5f6020820190508181035f83015261078c81610753565b9050919050565b7f4e487b71000000000000000000000000000000000000000000000000000000005f52604160045260245ffd5b5f81905092915050565b50565b5f6107d85f836107c0565b91506107e3826107ca565b5f82019050919050565b5f6107f7826107cd565b9150819050919050565b7f43616c6c206661696c65640000000000000000000000000000000000000000005f82015250565b5f610835600b8361071b565b915061084082610801565b602082019050919050565b5f6020820190508181035f83015261086281610829565b9050919050565b7f4469646e27742073656e6420656e6f75676800000000000000000000000000005f82015250565b5f61089d60128361071b565b91506108a882610869565b602082019050919050565b5f6020820190508181035f8301526108ca81610891565b9050919050565b7f4e487b71000000000000000000000000000000000000000000000000000000005f52601160045260245ffd5b5f6109088261066d565b91506109138361066d565b925082820190508082111561092b5761092a6108d1565b5b92915050565b5f61093b8261066d565b91506109468361066d565b92508282026109548161066d565b9150828204841483151761096b5761096a6108d1565b5b5092915050565b7f4e487b71000000000000000000000000000000000000000000000000000000005f52601260045260245ffd5b5f6109a98261066d565b91506109b48361066d565b9250826109c4576109c3610972565b5b828204905092915050565b5f69ffffffffffffffffffff82169050919050565b6109ed816109cf565b81146109f7575f5ffd5b50565b5f81519050610a08816109e4565b92915050565b5f819050919050565b610a2081610a0e565b8114610a2a575f5ffd5b50565b5f81519050610a3b81610a17565b92915050565b5f81519050610a4f816106c6565b92915050565b5f5f5f5f5f60a08688031215610a6e57610a6d6105e4565b5b5f610a7b888289016109fa565b9550506020610a8c88828901610a2d565b9450506040610a9d88828901610a41565b9350506060610aae88828901610a41565b9250506080610abf888289016109fa565b9150509295509295909350565b5f610ad682610a0e565b9150610ae183610a0e565b9250828202610aef81610a0e565b91507f800000000000000000000000000000000000000000000000000000000000000084145f84121615610b2657610b256108d1565b5b8282058414831517610b3b57610b3a6108d1565b5b509291505056fea2646970667358221220c238679481c50fb5d71758bc22096aa6283ef57bcdf3f9b6d7b4ec93325d6cfa64736f6c634300081e0033",
					"opcodes": "PUSH1 0x80 PUSH1 0x40 MSTORE CALLVALUE DUP1 ISZERO PUSH1 0xE JUMPI PUSH0 PUSH0 REVERT JUMPDEST POP CALLER PUSH1 0x2 PUSH0 PUSH2 0x100 EXP DUP2 SLOAD DUP2 PUSH20 0xFFFFFFFFFFFFFFFFFFFFFFFFFFFFFFFFFFFFFFFF MUL NOT AND SWAP1 DUP4 PUSH20 0xFFFFFFFFFFFFFFFFFFFFFFFFFFFFFFFFFFFFFFFF AND MUL OR SWAP1 SSTORE POP PUSH2 0xB78 DUP1 PUSH2 0x5C PUSH0 CODECOPY PUSH0 RETURN INVALID PUSH1 0x80 PUSH1 0x40 MSTORE PUSH1 0x4 CALLDATASIZE LT PUSH2 0x54 JUMPI PUSH0 CALLDATALOAD PUSH1 0xE0 SHR DUP1 PUSH4 0x3CCFD60B EQ PUSH2 0x58 JUMPI DUP1 PUSH4 0x3E47D6F3 EQ PUSH2 0x6E JUMPI DUP1 PUSH4 0x6B69A592 EQ PUSH2 0xAA JUMPI DUP1 PUSH4 0x8DA5CB5B EQ PUSH2 0xD4 JUMPI DUP1 PUSH4 0xB60D4288 EQ PUSH2 0xFE JUMPI DUP1 PUSH4 0xDC0D3DFF EQ PUSH2 0x108 JUMPI JUMPDEST PUSH0 PUSH0 REVERT JUMPDEST CALLVALUE DUP1 ISZERO PUSH2 0x63 JUMPI PUSH0 PUSH0 REVERT JUMPDEST POP PUSH2 0x6C PUSH2 0x144 JUMP JUMPDEST STOP JUMPDEST CALLVALUE DUP1 ISZERO PUSH2 0x79 JUMPI PUSH0 PUSH0 REVERT JUMPDEST POP PUSH2 0x94 PUSH1 0x4 DUP1 CALLDATASIZE SUB DUP2 ADD SWAP1 PUSH2 0x8F SWAP2 SWAP1 PUSH2 0x642 JUMP JUMPDEST PUSH2 0x2DC JUMP JUMPDEST PUSH1 0x40 MLOAD PUSH2 0xA1 SWAP2 SWAP1 PUSH2 0x685 JUMP JUMPDEST PUSH1 0x40 MLOAD DUP1 SWAP2 SUB SWAP1 RETURN JUMPDEST CALLVALUE DUP1 ISZERO PUSH2 0xB5 JUMPI PUSH0 PUSH0 REVERT JUMPDEST POP PUSH2 0xBE PUSH2 0x2F1 JUMP JUMPDEST PUSH1 0x40 MLOAD PUSH2 0xCB SWAP2 SWAP1 PUSH2 0x685 JUMP JUMPDEST PUSH1 0x40 MLOAD DUP1 SWAP2 SUB SWAP1 RETURN JUMPDEST CALLVALUE DUP1 ISZERO PUSH2 0xDF JUMPI PUSH0 PUSH0 REVERT JUMPDEST POP PUSH2 0xE8 PUSH2 0x2FE JUMP JUMPDEST PUSH1 0x40 MLOAD PUSH2 0xF5 SWAP2 SWAP1 PUSH2 0x6AD JUMP JUMPDEST PUSH1 0x40 MLOAD DUP1 SWAP2 SUB SWAP1 RETURN JUMPDEST PUSH2 0x106 PUSH2 0x323 JUMP JUMPDEST STOP JUMPDEST CALLVALUE DUP1 ISZERO PUSH2 0x113 JUMPI PUSH0 PUSH0 REVERT JUMPDEST POP PUSH2 0x12E PUSH1 0x4 DUP1 CALLDATASIZE SUB DUP2 ADD SWAP1 PUSH2 0x129 SWAP2 SWAP1 PUSH2 0x6F0 JUMP JUMPDEST PUSH2 0x42B JUMP JUMPDEST PUSH1 0x40 MLOAD PUSH2 0x13B SWAP2 SWAP1 PUSH2 0x6AD JUMP JUMPDEST PUSH1 0x40 MLOAD DUP1 SWAP2 SUB SWAP1 RETURN JUMPDEST PUSH1 0x2 PUSH0 SWAP1 SLOAD SWAP1 PUSH2 0x100 EXP SWAP1 DIV PUSH20 0xFFFFFFFFFFFFFFFFFFFFFFFFFFFFFFFFFFFFFFFF AND PUSH20 0xFFFFFFFFFFFFFFFFFFFFFFFFFFFFFFFFFFFFFFFF AND CALLER PUSH20 0xFFFFFFFFFFFFFFFFFFFFFFFFFFFFFFFFFFFFFFFF AND EQ PUSH2 0x1D3 JUMPI PUSH1 0x40 MLOAD PUSH32 0x8C379A000000000000000000000000000000000000000000000000000000000 DUP2 MSTORE PUSH1 0x4 ADD PUSH2 0x1CA SWAP1 PUSH2 0x775 JUMP JUMPDEST PUSH1 0x40 MLOAD DUP1 SWAP2 SUB SWAP1 REVERT JUMPDEST PUSH0 PUSH8 0xFFFFFFFFFFFFFFFF DUP2 GT ISZERO PUSH2 0x1ED JUMPI PUSH2 0x1EC PUSH2 0x793 JUMP JUMPDEST JUMPDEST PUSH1 0x40 MLOAD SWAP1 DUP1 DUP3 MSTORE DUP1 PUSH1 0x20 MUL PUSH1 0x20 ADD DUP3 ADD PUSH1 0x40 MSTORE DUP1 ISZERO PUSH2 0x21B JUMPI DUP2 PUSH1 0x20 ADD PUSH1 0x20 DUP3 MUL DUP1 CALLDATASIZE DUP4 CALLDATACOPY DUP1 DUP3 ADD SWAP2 POP POP SWAP1 POP JUMPDEST POP PUSH0 SWAP1 DUP1 MLOAD SWAP1 PUSH1 0x20 ADD SWAP1 PUSH2 0x230 SWAP3 SWAP2 SWAP1 PUSH2 0x542 JUMP JUMPDEST POP PUSH0 CALLER PUSH20 0xFFFFFFFFFFFFFFFFFFFFFFFFFFFFFFFFFFFFFFFF AND SELFBALANCE PUSH1 0x40 MLOAD PUSH2 0x256 SWAP1 PUSH2 0x7ED JUMP JUMPDEST PUSH0 PUSH1 0x40 MLOAD DUP1 DUP4 SUB DUP2 DUP6 DUP8 GAS CALL SWAP3 POP POP POP RETURNDATASIZE DUP1 PUSH0 DUP2 EQ PUSH2 0x290 JUMPI PUSH1 0x40 MLOAD SWAP2 POP PUSH1 0x1F NOT PUSH1 0x3F RETURNDATASIZE ADD AND DUP3 ADD PUSH1 0x40 MSTORE RETURNDATASIZE DUP3 MSTORE RETURNDATASIZE PUSH0 PUSH1 0x20 DUP5 ADD RETURNDATACOPY PUSH2 0x295 JUMP JUMPDEST PUSH1 0x60 SWAP2 POP JUMPDEST POP POP SWAP1 POP DUP1 PUSH2 0x2D9 JUMPI PUSH1 0x40 MLOAD PUSH32 0x8C379A000000000000000000000000000000000000000000000000000000000 DUP2 MSTORE PUSH1 0x4 ADD PUSH2 0x2D0 SWAP1 PUSH2 0x84B JUMP JUMPDEST PUSH1 0x40 MLOAD DUP1 SWAP2 SUB SWAP1 REVERT JUMPDEST POP JUMP JUMPDEST PUSH1 0x1 PUSH1 0x20 MSTORE DUP1 PUSH0 MSTORE PUSH1 0x40 PUSH0 KECCAK256 PUSH0 SWAP2 POP SWAP1 POP SLOAD DUP2 JUMP JUMPDEST PUSH9 0x2B5E3AF16B1880000 DUP2 JUMP JUMPDEST PUSH1 0x2 PUSH0 SWAP1 SLOAD SWAP1 PUSH2 0x100 EXP SWAP1 DIV PUSH20 0xFFFFFFFFFFFFFFFFFFFFFFFFFFFFFFFFFFFFFFFF AND DUP2 JUMP JUMPDEST PUSH9 0x2B5E3AF16B1880000 PUSH2 0x336 CALLVALUE PUSH2 0x465 JUMP JUMPDEST LT ISZERO PUSH2 0x377 JUMPI PUSH1 0x40 MLOAD PUSH32 0x8C379A000000000000000000000000000000000000000000000000000000000 DUP2 MSTORE PUSH1 0x4 ADD PUSH2 0x36E SWAP1 PUSH2 0x8B3 JUMP JUMPDEST PUSH1 0x40 MLOAD DUP1 SWAP2 SUB SWAP1 REVERT JUMPDEST PUSH0 CALLER SWAP1 DUP1 PUSH1 0x1 DUP2 SLOAD ADD DUP1 DUP3 SSTORE DUP1 SWAP2 POP POP PUSH1 0x1 SWAP1 SUB SWAP1 PUSH0 MSTORE PUSH1 0x20 PUSH0 KECCAK256 ADD PUSH0 SWAP1 SWAP2 SWAP1 SWAP2 SWAP1 SWAP2 PUSH2 0x100 EXP DUP2 SLOAD DUP2 PUSH20 0xFFFFFFFFFFFFFFFFFFFFFFFFFFFFFFFFFFFFFFFF MUL NOT AND SWAP1 DUP4 PUSH20 0xFFFFFFFFFFFFFFFFFFFFFFFFFFFFFFFFFFFFFFFF AND MUL OR SWAP1 SSTORE POP CALLVALUE PUSH1 0x1 PUSH0 CALLER PUSH20 0xFFFFFFFFFFFFFFFFFFFFFFFFFFFFFFFFFFFFFFFF AND PUSH20 0xFFFFFFFFFFFFFFFFFFFFFFFFFFFFFFFFFFFFFFFF AND DUP2 MSTORE PUSH1 0x20 ADD SWAP1 DUP2 MSTORE PUSH1 0x20 ADD PUSH0 KECCAK256 PUSH0 DUP3 DUP3 SLOAD PUSH2 0x422 SWAP2 SWAP1 PUSH2 0x8FE JUMP JUMPDEST SWAP3 POP POP DUP2 SWAP1 SSTORE POP JUMP JUMPDEST PUSH0 DUP2 DUP2 SLOAD DUP2 LT PUSH2 0x439 JUMPI PUSH0 DUP1 REVERT JUMPDEST SWAP1 PUSH0 MSTORE PUSH1 0x20 PUSH0 KECCAK256 ADD PUSH0 SWAP2 POP SLOAD SWAP1 PUSH2 0x100 EXP SWAP1 DIV PUSH20 0xFFFFFFFFFFFFFFFFFFFFFFFFFFFFFFFFFFFFFFFF AND DUP2 JUMP JUMPDEST PUSH0 PUSH0 PUSH2 0x46F PUSH2 0x49D JUMP JUMPDEST SWAP1 POP PUSH0 PUSH8 0xDE0B6B3A7640000 DUP5 DUP4 PUSH2 0x487 SWAP2 SWAP1 PUSH2 0x931 JUMP JUMPDEST PUSH2 0x491 SWAP2 SWAP1 PUSH2 0x99F JUMP JUMPDEST SWAP1 POP DUP1 SWAP3 POP POP POP SWAP2 SWAP1 POP JUMP JUMPDEST PUSH0 PUSH0 PUSH20 0x694AA1769357215DE4FAC081BF1F309ADC325306 SWAP1 POP PUSH0 DUP2 PUSH20 0xFFFFFFFFFFFFFFFFFFFFFFFFFFFFFFFFFFFFFFFF AND PUSH4 0xFEAF968C PUSH1 0x40 MLOAD DUP2 PUSH4 0xFFFFFFFF AND PUSH1 0xE0 SHL DUP2 MSTORE PUSH1 0x4 ADD PUSH1 0xA0 PUSH1 0x40 MLOAD DUP1 DUP4 SUB DUP2 DUP7 GAS STATICCALL ISZERO DUP1 ISZERO PUSH2 0x500 JUMPI RETURNDATASIZE PUSH0 PUSH0 RETURNDATACOPY RETURNDATASIZE PUSH0 REVERT JUMPDEST POP POP POP POP PUSH1 0x40 MLOAD RETURNDATASIZE PUSH1 0x1F NOT PUSH1 0x1F DUP3 ADD AND DUP3 ADD DUP1 PUSH1 0x40 MSTORE POP DUP2 ADD SWAP1 PUSH2 0x524 SWAP2 SWAP1 PUSH2 0xA55 JUMP JUMPDEST POP POP POP SWAP2 POP POP PUSH5 0x2540BE400 DUP2 PUSH2 0x53B SWAP2 SWAP1 PUSH2 0xACC JUMP JUMPDEST SWAP3 POP POP POP SWAP1 JUMP JUMPDEST DUP3 DUP1 SLOAD DUP3 DUP3 SSTORE SWAP1 PUSH0 MSTORE PUSH1 0x20 PUSH0 KECCAK256 SWAP1 DUP2 ADD SWAP3 DUP3 ISZERO PUSH2 0x5B8 JUMPI SWAP2 PUSH1 0x20 MUL DUP3 ADD JUMPDEST DUP3 DUP2 GT ISZERO PUSH2 0x5B7 JUMPI DUP3 MLOAD DUP3 PUSH0 PUSH2 0x100 EXP DUP2 SLOAD DUP2 PUSH20 0xFFFFFFFFFFFFFFFFFFFFFFFFFFFFFFFFFFFFFFFF MUL NOT AND SWAP1 DUP4 PUSH20 0xFFFFFFFFFFFFFFFFFFFFFFFFFFFFFFFFFFFFFFFF AND MUL OR SWAP1 SSTORE POP SWAP2 PUSH1 0x20 ADD SWAP2 SWAP1 PUSH1 0x1 ADD SWAP1 PUSH2 0x560 JUMP JUMPDEST JUMPDEST POP SWAP1 POP PUSH2 0x5C5 SWAP2 SWAP1 PUSH2 0x5C9 JUMP JUMPDEST POP SWAP1 JUMP JUMPDEST JUMPDEST DUP1 DUP3 GT ISZERO PUSH2 0x5E0 JUMPI PUSH0 DUP2 PUSH0 SWAP1 SSTORE POP PUSH1 0x1 ADD PUSH2 0x5CA JUMP JUMPDEST POP SWAP1 JUMP JUMPDEST PUSH0 PUSH0 REVERT JUMPDEST PUSH0 PUSH20 0xFFFFFFFFFFFFFFFFFFFFFFFFFFFFFFFFFFFFFFFF DUP3 AND SWAP1 POP SWAP2 SWAP1 POP JUMP JUMPDEST PUSH0 PUSH2 0x611 DUP3 PUSH2 0x5E8 JUMP JUMPDEST SWAP1 POP SWAP2 SWAP1 POP JUMP JUMPDEST PUSH2 0x621 DUP2 PUSH2 0x607 JUMP JUMPDEST DUP2 EQ PUSH2 0x62B JUMPI PUSH0 PUSH0 REVERT JUMPDEST POP JUMP JUMPDEST PUSH0 DUP2 CALLDATALOAD SWAP1 POP PUSH2 0x63C DUP2 PUSH2 0x618 JUMP JUMPDEST SWAP3 SWAP2 POP POP JUMP JUMPDEST PUSH0 PUSH1 0x20 DUP3 DUP5 SUB SLT ISZERO PUSH2 0x657 JUMPI PUSH2 0x656 PUSH2 0x5E4 JUMP JUMPDEST JUMPDEST PUSH0 PUSH2 0x664 DUP5 DUP3 DUP6 ADD PUSH2 0x62E JUMP JUMPDEST SWAP2 POP POP SWAP3 SWAP2 POP POP JUMP JUMPDEST PUSH0 DUP2 SWAP1 POP SWAP2 SWAP1 POP JUMP JUMPDEST PUSH2 0x67F DUP2 PUSH2 0x66D JUMP JUMPDEST DUP3 MSTORE POP POP JUMP JUMPDEST PUSH0 PUSH1 0x20 DUP3 ADD SWAP1 POP PUSH2 0x698 PUSH0 DUP4 ADD DUP5 PUSH2 0x676 JUMP JUMPDEST SWAP3 SWAP2 POP POP JUMP JUMPDEST PUSH2 0x6A7 DUP2 PUSH2 0x607 JUMP JUMPDEST DUP3 MSTORE POP POP JUMP JUMPDEST PUSH0 PUSH1 0x20 DUP3 ADD SWAP1 POP PUSH2 0x6C0 PUSH0 DUP4 ADD DUP5 PUSH2 0x69E JUMP JUMPDEST SWAP3 SWAP2 POP POP JUMP JUMPDEST PUSH2 0x6CF DUP2 PUSH2 0x66D JUMP JUMPDEST DUP2 EQ PUSH2 0x6D9 JUMPI PUSH0 PUSH0 REVERT JUMPDEST POP JUMP JUMPDEST PUSH0 DUP2 CALLDATALOAD SWAP1 POP PUSH2 0x6EA DUP2 PUSH2 0x6C6 JUMP JUMPDEST SWAP3 SWAP2 POP POP JUMP JUMPDEST PUSH0 PUSH1 0x20 DUP3 DUP5 SUB SLT ISZERO PUSH2 0x705 JUMPI PUSH2 0x704 PUSH2 0x5E4 JUMP JUMPDEST JUMPDEST PUSH0 PUSH2 0x712 DUP5 DUP3 DUP6 ADD PUSH2 0x6DC JUMP JUMPDEST SWAP2 POP POP SWAP3 SWAP2 POP POP JUMP JUMPDEST PUSH0 DUP3 DUP3 MSTORE PUSH1 0x20 DUP3 ADD SWAP1 POP SWAP3 SWAP2 POP POP JUMP JUMPDEST PUSH32 0x73656E646572206973206E6F74206F776E657200000000000000000000000000 PUSH0 DUP3 ADD MSTORE POP JUMP JUMPDEST PUSH0 PUSH2 0x75F PUSH1 0x13 DUP4 PUSH2 0x71B JUMP JUMPDEST SWAP2 POP PUSH2 0x76A DUP3 PUSH2 0x72B JUMP JUMPDEST PUSH1 0x20 DUP3 ADD SWAP1 POP SWAP2 SWAP1 POP JUMP JUMPDEST PUSH0 PUSH1 0x20 DUP3 ADD SWAP1 POP DUP2 DUP2 SUB PUSH0 DUP4 ADD MSTORE PUSH2 0x78C DUP2 PUSH2 0x753 JUMP JUMPDEST SWAP1 POP SWAP2 SWAP1 POP JUMP JUMPDEST PUSH32 0x4E487B7100000000000000000000000000000000000000000000000000000000 PUSH0 MSTORE PUSH1 0x41 PUSH1 0x4 MSTORE PUSH1 0x24 PUSH0 REVERT JUMPDEST PUSH0 DUP2 SWAP1 POP SWAP3 SWAP2 POP POP JUMP JUMPDEST POP JUMP JUMPDEST PUSH0 PUSH2 0x7D8 PUSH0 DUP4 PUSH2 0x7C0 JUMP JUMPDEST SWAP2 POP PUSH2 0x7E3 DUP3 PUSH2 0x7CA JUMP JUMPDEST PUSH0 DUP3 ADD SWAP1 POP SWAP2 SWAP1 POP JUMP JUMPDEST PUSH0 PUSH2 0x7F7 DUP3 PUSH2 0x7CD JUMP JUMPDEST SWAP2 POP DUP2 SWAP1 POP SWAP2 SWAP1 POP JUMP JUMPDEST PUSH32 0x43616C6C206661696C6564000000000000000000000000000000000000000000 PUSH0 DUP3 ADD MSTORE POP JUMP JUMPDEST PUSH0 PUSH2 0x835 PUSH1 0xB DUP4 PUSH2 0x71B JUMP JUMPDEST SWAP2 POP PUSH2 0x840 DUP3 PUSH2 0x801 JUMP JUMPDEST PUSH1 0x20 DUP3 ADD SWAP1 POP SWAP2 SWAP1 POP JUMP JUMPDEST PUSH0 PUSH1 0x20 DUP3 ADD SWAP1 POP DUP2 DUP2 SUB PUSH0 DUP4 ADD MSTORE PUSH2 0x862 DUP2 PUSH2 0x829 JUMP JUMPDEST SWAP1 POP SWAP2 SWAP1 POP JUMP JUMPDEST PUSH32 0x4469646E27742073656E6420656E6F7567680000000000000000000000000000 PUSH0 DUP3 ADD MSTORE POP JUMP JUMPDEST PUSH0 PUSH2 0x89D PUSH1 0x12 DUP4 PUSH2 0x71B JUMP JUMPDEST SWAP2 POP PUSH2 0x8A8 DUP3 PUSH2 0x869 JUMP JUMPDEST PUSH1 0x20 DUP3 ADD SWAP1 POP SWAP2 SWAP1 POP JUMP JUMPDEST PUSH0 PUSH1 0x20 DUP3 ADD SWAP1 POP DUP2 DUP2 SUB PUSH0 DUP4 ADD MSTORE PUSH2 0x8CA DUP2 PUSH2 0x891 JUMP JUMPDEST SWAP1 POP SWAP2 SWAP1 POP JUMP JUMPDEST PUSH32 0x4E487B7100000000000000000000000000000000000000000000000000000000 PUSH0 MSTORE PUSH1 0x11 PUSH1 0x4 MSTORE PUSH1 0x24 PUSH0 REVERT JUMPDEST PUSH0 PUSH2 0x908 DUP3 PUSH2 0x66D JUMP JUMPDEST SWAP2 POP PUSH2 0x913 DUP4 PUSH2 0x66D JUMP JUMPDEST SWAP3 POP DUP3 DUP3 ADD SWAP1 POP DUP1 DUP3 GT ISZERO PUSH2 0x92B JUMPI PUSH2 0x92A PUSH2 0x8D1 JUMP JUMPDEST JUMPDEST SWAP3 SWAP2 POP POP JUMP JUMPDEST PUSH0 PUSH2 0x93B DUP3 PUSH2 0x66D JUMP JUMPDEST SWAP2 POP PUSH2 0x946 DUP4 PUSH2 0x66D JUMP JUMPDEST SWAP3 POP DUP3 DUP3 MUL PUSH2 0x954 DUP2 PUSH2 0x66D JUMP JUMPDEST SWAP2 POP DUP3 DUP3 DIV DUP5 EQ DUP4 ISZERO OR PUSH2 0x96B JUMPI PUSH2 0x96A PUSH2 0x8D1 JUMP JUMPDEST JUMPDEST POP SWAP3 SWAP2 POP POP JUMP JUMPDEST PUSH32 0x4E487B7100000000000000000000000000000000000000000000000000000000 PUSH0 MSTORE PUSH1 0x12 PUSH1 0x4 MSTORE PUSH1 0x24 PUSH0 REVERT JUMPDEST PUSH0 PUSH2 0x9A9 DUP3 PUSH2 0x66D JUMP JUMPDEST SWAP2 POP PUSH2 0x9B4 DUP4 PUSH2 0x66D JUMP JUMPDEST SWAP3 POP DUP3 PUSH2 0x9C4 JUMPI PUSH2 0x9C3 PUSH2 0x972 JUMP JUMPDEST JUMPDEST DUP3 DUP3 DIV SWAP1 POP SWAP3 SWAP2 POP POP JUMP JUMPDEST PUSH0 PUSH10 0xFFFFFFFFFFFFFFFFFFFF DUP3 AND SWAP1 POP SWAP2 SWAP1 POP JUMP JUMPDEST PUSH2 0x9ED DUP2 PUSH2 0x9CF JUMP JUMPDEST DUP2 EQ PUSH2 0x9F7 JUMPI PUSH0 PUSH0 REVERT JUMPDEST POP JUMP JUMPDEST PUSH0 DUP2 MLOAD SWAP1 POP PUSH2 0xA08 DUP2 PUSH2 0x9E4 JUMP JUMPDEST SWAP3 SWAP2 POP POP JUMP JUMPDEST PUSH0 DUP2 SWAP1 POP SWAP2 SWAP1 POP JUMP JUMPDEST PUSH2 0xA20 DUP2 PUSH2 0xA0E JUMP JUMPDEST DUP2 EQ PUSH2 0xA2A JUMPI PUSH0 PUSH0 REVERT JUMPDEST POP JUMP JUMPDEST PUSH0 DUP2 MLOAD SWAP1 POP PUSH2 0xA3B DUP2 PUSH2 0xA17 JUMP JUMPDEST SWAP3 SWAP2 POP POP JUMP JUMPDEST PUSH0 DUP2 MLOAD SWAP1 POP PUSH2 0xA4F DUP2 PUSH2 0x6C6 JUMP JUMPDEST SWAP3 SWAP2 POP POP JUMP JUMPDEST PUSH0 PUSH0 PUSH0 PUSH0 PUSH0 PUSH1 0xA0 DUP7 DUP9 SUB SLT ISZERO PUSH2 0xA6E JUMPI PUSH2 0xA6D PUSH2 0x5E4 JUMP JUMPDEST JUMPDEST PUSH0 PUSH2 0xA7B DUP9 DUP3 DUP10 ADD PUSH2 0x9FA JUMP JUMPDEST SWAP6 POP POP PUSH1 0x20 PUSH2 0xA8C DUP9 DUP3 DUP10 ADD PUSH2 0xA2D JUMP JUMPDEST SWAP5 POP POP PUSH1 0x40 PUSH2 0xA9D DUP9 DUP3 DUP10 ADD PUSH2 0xA41 JUMP JUMPDEST SWAP4 POP POP PUSH1 0x60 PUSH2 0xAAE DUP9 DUP3 DUP10 ADD PUSH2 0xA41 JUMP JUMPDEST SWAP3 POP POP PUSH1 0x80 PUSH2 0xABF DUP9 DUP3 DUP10 ADD PUSH2 0x9FA JUMP JUMPDEST SWAP2 POP POP SWAP3 SWAP6 POP SWAP3 SWAP6 SWAP1 SWAP4 POP JUMP JUMPDEST PUSH0 PUSH2 0xAD6 DUP3 PUSH2 0xA0E JUMP JUMPDEST SWAP2 POP PUSH2 0xAE1 DUP4 PUSH2 0xA0E JUMP JUMPDEST SWAP3 POP DUP3 DUP3 MUL PUSH2 0xAEF DUP2 PUSH2 0xA0E JUMP JUMPDEST SWAP2 POP PUSH32 0x8000000000000000000000000000000000000000000000000000000000000000 DUP5 EQ PUSH0 DUP5 SLT AND ISZERO PUSH2 0xB26 JUMPI PUSH2 0xB25 PUSH2 0x8D1 JUMP JUMPDEST JUMPDEST DUP3 DUP3 SDIV DUP5 EQ DUP4 ISZERO OR PUSH2 0xB3B JUMPI PUSH2 0xB3A PUSH2 0x8D1 JUMP JUMPDEST JUMPDEST POP SWAP3 SWAP2 POP POP JUMP INVALID LOG2 PUSH5 0x6970667358 0x22 SLT KECCAK256 0xC2 CODESIZE PUSH8 0x9481C50FB5D71758 0xBC 0x22 MULMOD PUSH11 0xA6283EF57BCDF3F9B6D7B4 EOFCREATE 0x93 ORIGIN TSTORE PUSH13 0xFA64736F6C634300081E003300 "
				},
				"gasEstimates": {
					"creation": {
						"codeDepositCost": "587200",
						"executionCost": "24882",
						"totalCost": "612082"
					},
					"external": {
						"MINIMUM_USD()": "347",
						"addressToAmountFunded(address)": "2802",
						"fund()": "infinite",
						"funders(uint256)": "5031",
						"owner()": "2552",
						"withdraw()": "infinite"
					}
				},
				"methodIdentifiers": {
					"MINIMUM_USD()": "6b69a592",
					"addressToAmountFunded(address)": "3e47d6f3",
					"fund()": "b60d4288",
					"funders(uint256)": "dc0d3dff",
					"owner()": "8da5cb5b",
					"withdraw()": "3ccfd60b"
				}
			},
			"storageLayout": {
				"storage": [
					{
						"astId": 59,
						"contract": "BCN4/FundMe.sol:FundMe",
						"label": "funders",
						"offset": 0,
						"slot": "0",
						"type": "t_array(t_address)dyn_storage"
					},
					{
						"astId": 63,
						"contract": "BCN4/FundMe.sol:FundMe",
						"label": "addressToAmountFunded",
						"offset": 0,
						"slot": "1",
						"type": "t_mapping(t_address,t_uint256)"
					},
					{
						"astId": 94,
						"contract": "BCN4/FundMe.sol:FundMe",
						"label": "owner",
						"offset": 0,
						"slot": "2",
						"type": "t_address"
					}
				],
				"types": {
					"t_address": {
						"encoding": "inplace",
						"label": "address",
						"numberOfBytes": "20"
					},
					"t_array(t_address)dyn_storage": {
						"base": "t_address",
						"encoding": "dynamic_array",
						"label": "address[]",
						"numberOfBytes": "32"
					},
					"t_mapping(t_address,t_uint256)": {
						"encoding": "mapping",
						"key": "t_address",
						"label": "mapping(address => uint256)",
						"numberOfBytes": "32",
						"value": "t_uint256"
					},
					"t_uint256": {
						"encoding": "inplace",
						"label": "uint256",
						"numberOfBytes": "32"
					}
				}
			},
			"userdoc": {
				"kind": "user",
				"methods": {},
				"version": 1
			}
		}
	}
}