{
	"BCN1/SimpleStorage.sol": {
		"SimpleStorage2": {
			"abi": [
				{
					"inputs": [],
					"name": "favoriteNumber",
					"outputs": [
						{
							"internalType": "uint256",
							"name": "",
							"type": "uint256"
						}
					],
					"stateMutability": "view",
					"type": "function"
				},
				{
					"inputs": [],
					"name": "retrieve",
					"outputs": [
						{
							"internalType": "uint256",
							"name": "",
							"type": "uint256"
						}
					],
					"stateMutability": "view",
					"type": "function"
				},
				{
					"inputs": [
						{
							"internalType": "uint256",
							"name": "_favoriteNumber",
							"type": "uint256"
						}
					],
					"name": "store",
					"outputs": [],
					"stateMutability": "nonpayable",
					"type": "function"
				}
			],
			"devdoc": {
				"kind": "dev",
				"methods": {},
				"version": 1
			},
			"evm": {
				"assembly": "    /* \"BCN1/SimpleStorage.sol\":834:1472  contract SimpleStorage2 {... */\n  mstore(0x40, 0x80)\n  callvalue\n  dup1\n  iszero\n  tag_1\n  jumpi\n  revert(0x00, 0x00)\ntag_1:\n  pop\n  dataSize(sub_0)\n  dup1\n  dataOffset(sub_0)\n  0x00\n  codecopy\n  0x00\n  return\nstop\n\nsub_0: assembly {\n        /* \"BCN1/SimpleStorage.sol\":834:1472  contract SimpleStorage2 {... */\n      mstore(0x40, 0x80)\n      callvalue\n      dup1\n      iszero\n      tag_1\n      jumpi\n      revert(0x00, 0x00)\n    tag_1:\n      pop\n      jumpi(tag_2, lt(calldatasize, 0x04))\n      shr(0xe0, calldataload(0x00))\n      dup1\n      0x2e64cec1\n      eq\n      tag_3\n      jumpi\n      dup1\n      0x471f7cdf\n      eq\n      tag_4\n      jumpi\n      dup1\n      0x6057361d\n      eq\n      tag_5\n      jumpi\n    tag_2:\n      revert(0x00, 0x00)\n        /* \"BCN1/SimpleStorage.sol\":1289:1377  function retrieve() public view returns(uint256){... */\n    tag_3:\n      tag_6\n      tag_7\n      jump\t// in\n    tag_6:\n      mload(0x40)\n      tag_8\n      swap2\n      swap1\n      tag_9\n      jump\t// in\n    tag_8:\n      mload(0x40)\n      dup1\n      swap2\n      sub\n      swap1\n      return\n        /* \"BCN1/SimpleStorage.sol\":865:894  uint256 public favoriteNumber */\n    tag_4:\n      tag_10\n      tag_11\n      jump\t// in\n    tag_10:\n      mload(0x40)\n      tag_12\n      swap2\n      swap1\n      tag_9\n      jump\t// in\n    tag_12:\n      mload(0x40)\n      dup1\n      swap2\n      sub\n      swap1\n      return\n        /* \"BCN1/SimpleStorage.sol\":1044:1231  function store(uint256 _favoriteNumber) public{... */\n    tag_5:\n      tag_13\n      0x04\n      dup1\n      calldatasize\n      sub\n      dup2\n      add\n      swap1\n      tag_14\n      swap2\n      swap1\n      tag_15\n      jump\t// in\n    tag_14:\n      tag_16\n      jump\t// in\n    tag_13:\n      stop\n        /* \"BCN1/SimpleStorage.sol\":1289:1377  function retrieve() public view returns(uint256){... */\n    tag_7:\n        /* \"BCN1/SimpleStorage.sol\":1329:1336  uint256 */\n      0x00\n        /* \"BCN1/SimpleStorage.sol\":1355:1369  favoriteNumber */\n      sload(0x00)\n        /* \"BCN1/SimpleStorage.sol\":1348:1369  return favoriteNumber */\n      swap1\n      pop\n        /* \"BCN1/SimpleStorage.sol\":1289:1377  function retrieve() public view returns(uint256){... */\n      swap1\n      jump\t// out\n        /* \"BCN1/SimpleStorage.sol\":865:894  uint256 public favoriteNumber */\n    tag_11:\n      sload(0x00)\n      dup2\n      jump\t// out\n        /* \"BCN1/SimpleStorage.sol\":1044:1231  function store(uint256 _favoriteNumber) public{... */\n    tag_16:\n        /* \"BCN1/SimpleStorage.sol\":1118:1133  _favoriteNumber */\n      dup1\n        /* \"BCN1/SimpleStorage.sol\":1101:1115  favoriteNumber */\n      0x00\n        /* \"BCN1/SimpleStorage.sol\":1101:1133  favoriteNumber = _favoriteNumber */\n      dup2\n      swap1\n      sstore\n      pop\n        /* \"BCN1/SimpleStorage.sol\":1044:1231  function store(uint256 _favoriteNumber) public{... */\n      pop\n      jump\t// out\n        /* \"#utility.yul\":7:84   */\n    tag_19:\n        /* \"#utility.yul\":44:51   */\n      0x00\n        /* \"#utility.yul\":73:78   */\n      dup2\n        /* \"#utility.yul\":62:78   */\n      swap1\n      pop\n        /* \"#utility.yul\":7:84   */\n      swap2\n      swap1\n      pop\n      jump\t// out\n        /* \"#utility.yul\":90:208   */\n    tag_20:\n        /* \"#utility.yul\":177:201   */\n      tag_29\n        /* \"#utility.yul\":195:200   */\n      dup2\n        /* \"#utility.yul\":177:201   */\n      tag_19\n      jump\t// in\n    tag_29:\n        /* \"#utility.yul\":172:175   */\n      dup3\n        /* \"#utility.yul\":165:202   */\n      mstore\n        /* \"#utility.yul\":90:208   */\n      pop\n      pop\n      jump\t// out\n        /* \"#utility.yul\":214:436   */\n    tag_9:\n        /* \"#utility.yul\":307:311   */\n      0x00\n        /* \"#utility.yul\":345:347   */\n      0x20\n        /* \"#utility.yul\":334:343   */\n      dup3\n        /* \"#utility.yul\":330:348   */\n      add\n        /* \"#utility.yul\":322:348   */\n      swap1\n      pop\n        /* \"#utility.yul\":358:429   */\n      tag_31\n        /* \"#utility.yul\":426:427   */\n      0x00\n        /* \"#utility.yul\":415:424   */\n      dup4\n        /* \"#utility.yul\":411:428   */\n      add\n        /* \"#utility.yul\":402:408   */\n      dup5\n        /* \"#utility.yul\":358:429   */\n      tag_20\n      jump\t// in\n    tag_31:\n        /* \"#utility.yul\":214:436   */\n      swap3\n      swap2\n      pop\n      pop\n      jump\t// out\n        /* \"#utility.yul\":523:640   */\n    tag_22:\n        /* \"#utility.yul\":632:633   */\n      0x00\n        /* \"#utility.yul\":629:630   */\n      0x00\n        /* \"#utility.yul\":622:634   */\n      revert\n        /* \"#utility.yul\":769:891   */\n    tag_24:\n        /* \"#utility.yul\":842:866   */\n      tag_36\n        /* \"#utility.yul\":860:865   */\n      dup2\n        /* \"#utility.yul\":842:866   */\n      tag_19\n      jump\t// in\n    tag_36:\n        /* \"#utility.yul\":835:840   */\n      dup2\n        /* \"#utility.yul\":832:867   */\n      eq\n        /* \"#utility.yul\":822:885   */\n      tag_37\n      jumpi\n        /* \"#utility.yul\":881:882   */\n      0x00\n        /* \"#utility.yul\":878:879   */\n      0x00\n        /* \"#utility.yul\":871:883   */\n      revert\n        /* \"#utility.yul\":822:885   */\n    tag_37:\n        /* \"#utility.yul\":769:891   */\n      pop\n      jump\t// out\n        /* \"#utility.yul\":897:1036   */\n    tag_25:\n        /* \"#utility.yul\":943:948   */\n      0x00\n        /* \"#utility.yul\":981:987   */\n      dup2\n        /* \"#utility.yul\":968:988   */\n      calldataload\n        /* \"#utility.yul\":959:988   */\n      swap1\n      pop\n        /* \"#utility.yul\":997:1030   */\n      tag_39\n        /* \"#utility.yul\":1024:1029   */\n      dup2\n        /* \"#utility.yul\":997:1030   */\n      tag_24\n      jump\t// in\n    tag_39:\n        /* \"#utility.yul\":897:1036   */\n      swap3\n      swap2\n      pop\n      pop\n      jump\t// out\n        /* \"#utility.yul\":1042:1371   */\n    tag_15:\n        /* \"#utility.yul\":1101:1107   */\n      0x00\n        /* \"#utility.yul\":1150:1152   */\n      0x20\n        /* \"#utility.yul\":1138:1147   */\n      dup3\n        /* \"#utility.yul\":1129:1136   */\n      dup5\n        /* \"#utility.yul\":1125:1148   */\n      sub\n        /* \"#utility.yul\":1121:1153   */\n      slt\n        /* \"#utility.yul\":1118:1237   */\n      iszero\n      tag_41\n      jumpi\n        /* \"#utility.yul\":1156:1235   */\n      tag_42\n      tag_22\n      jump\t// in\n    tag_42:\n        /* \"#utility.yul\":1118:1237   */\n    tag_41:\n        /* \"#utility.yul\":1276:1277   */\n      0x00\n        /* \"#utility.yul\":1301:1354   */\n      tag_43\n        /* \"#utility.yul\":1346:1353   */\n      dup5\n        /* \"#utility.yul\":1337:1343   */\n      dup3\n        /* \"#utility.yul\":1326:1335   */\n      dup6\n        /* \"#utility.yul\":1322:1344   */\n      add\n        /* \"#utility.yul\":1301:1354   */\n      tag_25\n      jump\t// in\n    tag_43:\n        /* \"#utility.yul\":1291:1354   */\n      swap2\n      pop\n        /* \"#utility.yul\":1247:1364   */\n      pop\n        /* \"#utility.yul\":1042:1371   */\n      swap3\n      swap2\n      pop\n      pop\n      jump\t// out\n\n    auxdata: 0xa264697066735822122021e9519e1f6084d1cbf9500ec8da8cee9fd291fddee6d6d96532feb8e833ba2864736f6c634300081e0033\n}\n",
				"bytecode": {
					"linkReferences": {},
					"object": "6080604052348015600e575f5ffd5b506101718061001c5f395ff3fe608060405234801561000f575f5ffd5b506004361061003f575f3560e01c80632e64cec114610043578063471f7cdf146100615780636057361d1461007f575b5f5ffd5b61004b61009b565b60405161005891906100c9565b60405180910390f35b6100696100a3565b60405161007691906100c9565b60405180910390f35b61009960048036038101906100949190610110565b6100a8565b005b5f5f54905090565b5f5481565b805f8190555050565b5f819050919050565b6100c3816100b1565b82525050565b5f6020820190506100dc5f8301846100ba565b92915050565b5f5ffd5b6100ef816100b1565b81146100f9575f5ffd5b50565b5f8135905061010a816100e6565b92915050565b5f60208284031215610125576101246100e2565b5b5f610132848285016100fc565b9150509291505056fea264697066735822122021e9519e1f6084d1cbf9500ec8da8cee9fd291fddee6d6d96532feb8e833ba2864736f6c634300081e0033",
					"opcodes": "PUSH1 0x80 PUSH1 0x40 MSTORE CALLVALUE DUP1 ISZERO PUSH1 0xE JUMPI PUSH0 PUSH0 REVERT JUMPDEST POP PUSH2 0x171 DUP1 PUSH2 0x1C PUSH0 CODECOPY PUSH0 RETURN INVALID PUSH1 0x80 PUSH1 0x40 MSTORE CALLVALUE DUP1 ISZERO PUSH2 0xF JUMPI PUSH0 PUSH0 REVERT JUMPDEST POP PUSH1 0x4 CALLDATASIZE LT PUSH2 0x3F JUMPI PUSH0 CALLDATALOAD PUSH1 0xE0 SHR DUP1 PUSH4 0x2E64CEC1 EQ PUSH2 0x43 JUMPI DUP1 PUSH4 0x471F7CDF EQ PUSH2 0x61 JUMPI DUP1 PUSH4 0x6057361D EQ PUSH2 0x7F JUMPI JUMPDEST PUSH0 PUSH0 REVERT JUMPDEST PUSH2 0x4B PUSH2 0x9B JUMP JUMPDEST PUSH1 0x40 MLOAD PUSH2 0x58 SWAP2 SWAP1 PUSH2 0xC9 JUMP JUMPDEST PUSH1 0x40 MLOAD DUP1 SWAP2 SUB SWAP1 RETURN JUMPDEST PUSH2 0x69 PUSH2 0xA3 JUMP JUMPDEST PUSH1 0x40 MLOAD PUSH2 0x76 SWAP2 SWAP1 PUSH2 0xC9 JUMP JUMPDEST PUSH1 0x40 MLOAD DUP1 SWAP2 SUB SWAP1 RETURN JUMPDEST PUSH2 0x99 PUSH1 0x4 DUP1 CALLDATASIZE SUB DUP2 ADD SWAP1 PUSH2 0x94 SWAP2 SWAP1 PUSH2 0x110 JUMP JUMPDEST PUSH2 0xA8 JUMP JUMPDEST STOP JUMPDEST PUSH0 PUSH0 SLOAD SWAP1 POP SWAP1 JUMP JUMPDEST PUSH0 SLOAD DUP2 JUMP JUMPDEST DUP1 PUSH0 DUP2 SWAP1 SSTORE POP POP JUMP JUMPDEST PUSH0 DUP2 SWAP1 POP SWAP2 SWAP1 POP JUMP JUMPDEST PUSH2 0xC3 DUP2 PUSH2 0xB1 JUMP JUMPDEST DUP3 MSTORE POP POP JUMP JUMPDEST PUSH0 PUSH1 0x20 DUP3 ADD SWAP1 POP PUSH2 0xDC PUSH0 DUP4 ADD DUP5 PUSH2 0xBA JUMP JUMPDEST SWAP3 SWAP2 POP POP JUMP JUMPDEST PUSH0 PUSH0 REVERT JUMPDEST PUSH2 0xEF DUP2 PUSH2 0xB1 JUMP JUMPDEST DUP2 EQ PUSH2 0xF9 JUMPI PUSH0 PUSH0 REVERT JUMPDEST POP JUMP JUMPDEST PUSH0 DUP2 CALLDATALOAD SWAP1 POP PUSH2 0x10A DUP2 PUSH2 0xE6 JUMP JUMPDEST SWAP3 SWAP2 POP POP JUMP JUMPDEST PUSH0 PUSH1 0x20 DUP3 DUP5 SUB SLT ISZERO PUSH2 0x125 JUMPI PUSH2 0x124 PUSH2 0xE2 JUMP JUMPDEST JUMPDEST PUSH0 PUSH2 0x132 DUP5 DUP3 DUP6 ADD PUSH2 0xFC JUMP JUMPDEST SWAP2 POP POP SWAP3 SWAP2 POP POP JUMP INVALID LOG2 PUSH5 0x6970667358 0x22 SLT KECCAK256 0x21 0xE9 MLOAD SWAP15 0x1F PUSH1 0x84 DATALOADN 0xCBF9 POP 0xE 0xC8 0xDA DUP13 RETURNCONTRACT 0x9F 0xD2 SWAP2 REVERT 0xDE DUPN 0xD6 0xD9 PUSH6 0x32FEB8E833BA 0x28 PUSH5 0x736F6C6343 STOP ADDMOD 0x1E STOP CALLER "
				},
				"gasEstimates": {
					"creation": {
						"codeDepositCost": "73800",
						"executionCost": "121",
						"totalCost": "73921"
					},
					"external": {
						"favoriteNumber()": "2424",
						"retrieve()": "2409",
						"store(uint256)": "22536"
					}
				},
				"methodIdentifiers": {
					"favoriteNumber()": "471f7cdf",
					"retrieve()": "2e64cec1",
					"store(uint256)": "6057361d"
				}
			},
			"storageLayout": {
				"storage": [
					{
						"astId": 25,
						"contract": "BCN1/SimpleStorage.sol:SimpleStorage2",
						"label": "favoriteNumber",
						"offset": 0,
						"slot": "0",
						"type": "t_uint256"
					}
				],
				"types": {
					"t_uint256": {
						"encoding": "inplace",
						"label": "uint256",
						"numberOfBytes": "32"
					}
				}
			},
			"userdoc": {
				"kind": "user",
				"methods": {},
				"version": 1
			}
		}
	}
}