{
	"BCN1/SimpleStorage.sol": {
		"SimpleStorage3": {
			"abi": [
				{
					"inputs": [
						{
							"internalType": "string",
							"name": "_name",
							"type": "string"
						},
						{
							"internalType": "uint256",
							"name": "_favoriteNumber",
							"type": "uint256"
						}
					],
					"name": "addPerson",
					"outputs": [],
					"stateMutability": "nonpayable",
					"type": "function"
				},
				{
					"inputs": [
						{
							"internalType": "uint256",
							"name": "",
							"type": "uint256"
						}
					],
					"name": "people",
					"outputs": [
						{
							"internalType": "uint256",
							"name": "favoriteNumber",
							"type": "uint256"
						},
						{
							"internalType": "string",
							"name": "name",
							"type": "string"
						}
					],
					"stateMutability": "view",
					"type": "function"
				},
				{
					"inputs": [],
					"name": "person",
					"outputs": [
						{
							"internalType": "uint256",
							"name": "favoriteNumber",
							"type": "uint256"
						},
						{
							"internalType": "string",
							"name": "name",
							"type": "string"
						}
					],
					"stateMutability": "view",
					"type": "function"
				}
			],
			"devdoc": {
				"kind": "dev",
				"methods": {},
				"version": 1
			},
			"evm": {
				"assembly": "    /* \"BCN1/SimpleStorage.sol\":1524:2155  contract SimpleStorage3 {... */\n  mstore(0x40, 0x80)\n    /* \"BCN1/SimpleStorage.sol\":1684:1728  People({favoriteNumber: 2, name: \"pradeep\"}) */\n  mload(0x40)\n  dup1\n  0x40\n  add\n  0x40\n  mstore\n  dup1\n    /* \"BCN1/SimpleStorage.sol\":1708:1709  2 */\n  0x02\n    /* \"BCN1/SimpleStorage.sol\":1684:1728  People({favoriteNumber: 2, name: \"pradeep\"}) */\n  dup2\n  mstore\n  0x20\n  add\n  mload(0x40)\n  dup1\n  0x40\n  add\n  0x40\n  mstore\n  dup1\n  0x07\n  dup2\n  mstore\n  0x20\n  add\n  0x7072616465657000000000000000000000000000000000000000000000000000\n  dup2\n  mstore\n  pop\n  dup2\n  mstore\n  pop\n    /* \"BCN1/SimpleStorage.sol\":1661:1728  People public person = People({favoriteNumber: 2, name: \"pradeep\"}) */\n  0x00\n  0x00\n  dup3\n  add\n  mload\n  dup2\n  0x00\n  add\n  sstore\n  0x20\n  dup3\n  add\n  mload\n  dup2\n  0x01\n  add\n  swap1\n  dup2\n  tag_1\n  swap2\n  swap1\n  tag_2\n  jump\t// in\ntag_1:\n  pop\n  pop\n  pop\n    /* \"BCN1/SimpleStorage.sol\":1524:2155  contract SimpleStorage3 {... */\n  callvalue\n  dup1\n  iszero\n  tag_3\n  jumpi\n  revert(0x00, 0x00)\ntag_3:\n  pop\n  jump(tag_4)\n    /* \"#utility.yul\":7:106   */\ntag_5:\n    /* \"#utility.yul\":59:65   */\n  0x00\n    /* \"#utility.yul\":93:98   */\n  dup2\n    /* \"#utility.yul\":87:99   */\n  mload\n    /* \"#utility.yul\":77:99   */\n  swap1\n  pop\n    /* \"#utility.yul\":7:106   */\n  swap2\n  swap1\n  pop\n  jump\t// out\n    /* \"#utility.yul\":112:292   */\ntag_6:\n    /* \"#utility.yul\":160:237   */\n  0x4e487b7100000000000000000000000000000000000000000000000000000000\n    /* \"#utility.yul\":157:158   */\n  0x00\n    /* \"#utility.yul\":150:238   */\n  mstore\n    /* \"#utility.yul\":257:261   */\n  0x41\n    /* \"#utility.yul\":254:255   */\n  0x04\n    /* \"#utility.yul\":247:262   */\n  mstore\n    /* \"#utility.yul\":281:285   */\n  0x24\n    /* \"#utility.yul\":278:279   */\n  0x00\n    /* \"#utility.yul\":271:286   */\n  revert\n    /* \"#utility.yul\":298:478   */\ntag_7:\n    /* \"#utility.yul\":346:423   */\n  0x4e487b7100000000000000000000000000000000000000000000000000000000\n    /* \"#utility.yul\":343:344   */\n  0x00\n    /* \"#utility.yul\":336:424   */\n  mstore\n    /* \"#utility.yul\":443:447   */\n  0x22\n    /* \"#utility.yul\":440:441   */\n  0x04\n    /* \"#utility.yul\":433:448   */\n  mstore\n    /* \"#utility.yul\":467:471   */\n  0x24\n    /* \"#utility.yul\":464:465   */\n  0x00\n    /* \"#utility.yul\":457:472   */\n  revert\n    /* \"#utility.yul\":484:804   */\ntag_8:\n    /* \"#utility.yul\":528:534   */\n  0x00\n    /* \"#utility.yul\":565:566   */\n  0x02\n    /* \"#utility.yul\":559:563   */\n  dup3\n    /* \"#utility.yul\":555:567   */\n  div\n    /* \"#utility.yul\":545:567   */\n  swap1\n  pop\n    /* \"#utility.yul\":612:613   */\n  0x01\n    /* \"#utility.yul\":606:610   */\n  dup3\n    /* \"#utility.yul\":602:614   */\n  and\n    /* \"#utility.yul\":633:651   */\n  dup1\n    /* \"#utility.yul\":623:704   */\n  tag_30\n  jumpi\n    /* \"#utility.yul\":689:693   */\n  0x7f\n    /* \"#utility.yul\":681:687   */\n  dup3\n    /* \"#utility.yul\":677:694   */\n  and\n    /* \"#utility.yul\":667:694   */\n  swap2\n  pop\n    /* \"#utility.yul\":623:704   */\ntag_30:\n    /* \"#utility.yul\":751:753   */\n  0x20\n    /* \"#utility.yul\":743:749   */\n  dup3\n    /* \"#utility.yul\":740:754   */\n  lt\n    /* \"#utility.yul\":720:738   */\n  dup2\n    /* \"#utility.yul\":717:755   */\n  sub\n    /* \"#utility.yul\":714:798   */\n  tag_31\n  jumpi\n    /* \"#utility.yul\":770:788   */\n  tag_32\n  tag_7\n  jump\t// in\ntag_32:\n    /* \"#utility.yul\":714:798   */\ntag_31:\n    /* \"#utility.yul\":535:804   */\n  pop\n    /* \"#utility.yul\":484:804   */\n  swap2\n  swap1\n  pop\n  jump\t// out\n    /* \"#utility.yul\":810:951   */\ntag_9:\n    /* \"#utility.yul\":859:863   */\n  0x00\n    /* \"#utility.yul\":882:885   */\n  dup2\n    /* \"#utility.yul\":874:885   */\n  swap1\n  pop\n    /* \"#utility.yul\":905:908   */\n  dup2\n    /* \"#utility.yul\":902:903   */\n  0x00\n    /* \"#utility.yul\":895:909   */\n  mstore\n    /* \"#utility.yul\":939:943   */\n  0x20\n    /* \"#utility.yul\":936:937   */\n  0x00\n    /* \"#utility.yul\":926:944   */\n  keccak256\n    /* \"#utility.yul\":918:944   */\n  swap1\n  pop\n    /* \"#utility.yul\":810:951   */\n  swap2\n  swap1\n  pop\n  jump\t// out\n    /* \"#utility.yul\":957:1050   */\ntag_10:\n    /* \"#utility.yul\":994:1000   */\n  0x00\n    /* \"#utility.yul\":1041:1043   */\n  0x20\n    /* \"#utility.yul\":1036:1038   */\n  0x1f\n    /* \"#utility.yul\":1029:1034   */\n  dup4\n    /* \"#utility.yul\":1025:1039   */\n  add\n    /* \"#utility.yul\":1021:1044   */\n  div\n    /* \"#utility.yul\":1011:1044   */\n  swap1\n  pop\n    /* \"#utility.yul\":957:1050   */\n  swap2\n  swap1\n  pop\n  jump\t// out\n    /* \"#utility.yul\":1056:1163   */\ntag_11:\n    /* \"#utility.yul\":1100:1108   */\n  0x00\n    /* \"#utility.yul\":1150:1155   */\n  dup3\n    /* \"#utility.yul\":1144:1148   */\n  dup3\n    /* \"#utility.yul\":1140:1156   */\n  shl\n    /* \"#utility.yul\":1119:1156   */\n  swap1\n  pop\n    /* \"#utility.yul\":1056:1163   */\n  swap3\n  swap2\n  pop\n  pop\n  jump\t// out\n    /* \"#utility.yul\":1169:1562   */\ntag_12:\n    /* \"#utility.yul\":1238:1244   */\n  0x00\n    /* \"#utility.yul\":1288:1289   */\n  0x08\n    /* \"#utility.yul\":1276:1286   */\n  dup4\n    /* \"#utility.yul\":1272:1290   */\n  mul\n    /* \"#utility.yul\":1311:1408   */\n  tag_37\n    /* \"#utility.yul\":1341:1407   */\n  0xffffffffffffffffffffffffffffffffffffffffffffffffffffffffffffffff\n    /* \"#utility.yul\":1330:1339   */\n  dup3\n    /* \"#utility.yul\":1311:1408   */\n  tag_11\n  jump\t// in\ntag_37:\n    /* \"#utility.yul\":1429:1468   */\n  tag_38\n    /* \"#utility.yul\":1459:1467   */\n  dup7\n    /* \"#utility.yul\":1448:1457   */\n  dup4\n    /* \"#utility.yul\":1429:1468   */\n  tag_11\n  jump\t// in\ntag_38:\n    /* \"#utility.yul\":1417:1468   */\n  swap6\n  pop\n    /* \"#utility.yul\":1501:1505   */\n  dup1\n    /* \"#utility.yul\":1497:1506   */\n  not\n    /* \"#utility.yul\":1490:1495   */\n  dup5\n    /* \"#utility.yul\":1486:1507   */\n  and\n    /* \"#utility.yul\":1477:1507   */\n  swap4\n  pop\n    /* \"#utility.yul\":1550:1554   */\n  dup1\n    /* \"#utility.yul\":1540:1548   */\n  dup7\n    /* \"#utility.yul\":1536:1555   */\n  and\n    /* \"#utility.yul\":1529:1534   */\n  dup5\n    /* \"#utility.yul\":1526:1556   */\n  or\n    /* \"#utility.yul\":1516:1556   */\n  swap3\n  pop\n    /* \"#utility.yul\":1245:1562   */\n  pop\n  pop\n    /* \"#utility.yul\":1169:1562   */\n  swap4\n  swap3\n  pop\n  pop\n  pop\n  jump\t// out\n    /* \"#utility.yul\":1568:1645   */\ntag_13:\n    /* \"#utility.yul\":1605:1612   */\n  0x00\n    /* \"#utility.yul\":1634:1639   */\n  dup2\n    /* \"#utility.yul\":1623:1639   */\n  swap1\n  pop\n    /* \"#utility.yul\":1568:1645   */\n  swap2\n  swap1\n  pop\n  jump\t// out\n    /* \"#utility.yul\":1651:1711   */\ntag_14:\n    /* \"#utility.yul\":1679:1682   */\n  0x00\n    /* \"#utility.yul\":1700:1705   */\n  dup2\n    /* \"#utility.yul\":1693:1705   */\n  swap1\n  pop\n    /* \"#utility.yul\":1651:1711   */\n  swap2\n  swap1\n  pop\n  jump\t// out\n    /* \"#utility.yul\":1717:1859   */\ntag_15:\n    /* \"#utility.yul\":1767:1776   */\n  0x00\n    /* \"#utility.yul\":1800:1853   */\n  tag_42\n    /* \"#utility.yul\":1818:1852   */\n  tag_43\n    /* \"#utility.yul\":1827:1851   */\n  tag_44\n    /* \"#utility.yul\":1845:1850   */\n  dup5\n    /* \"#utility.yul\":1827:1851   */\n  tag_13\n  jump\t// in\ntag_44:\n    /* \"#utility.yul\":1818:1852   */\n  tag_14\n  jump\t// in\ntag_43:\n    /* \"#utility.yul\":1800:1853   */\n  tag_13\n  jump\t// in\ntag_42:\n    /* \"#utility.yul\":1787:1853   */\n  swap1\n  pop\n    /* \"#utility.yul\":1717:1859   */\n  swap2\n  swap1\n  pop\n  jump\t// out\n    /* \"#utility.yul\":1865:1940   */\ntag_16:\n    /* \"#utility.yul\":1908:1911   */\n  0x00\n    /* \"#utility.yul\":1929:1934   */\n  dup2\n    /* \"#utility.yul\":1922:1934   */\n  swap1\n  pop\n    /* \"#utility.yul\":1865:1940   */\n  swap2\n  swap1\n  pop\n  jump\t// out\n    /* \"#utility.yul\":1946:2215   */\ntag_17:\n    /* \"#utility.yul\":2056:2095   */\n  tag_47\n    /* \"#utility.yul\":2087:2094   */\n  dup4\n    /* \"#utility.yul\":2056:2095   */\n  tag_15\n  jump\t// in\ntag_47:\n    /* \"#utility.yul\":2117:2208   */\n  tag_48\n    /* \"#utility.yul\":2166:2207   */\n  tag_49\n    /* \"#utility.yul\":2190:2206   */\n  dup3\n    /* \"#utility.yul\":2166:2207   */\n  tag_16\n  jump\t// in\ntag_49:\n    /* \"#utility.yul\":2158:2164   */\n  dup5\n    /* \"#utility.yul\":2151:2155   */\n  dup5\n    /* \"#utility.yul\":2145:2156   */\n  sload\n    /* \"#utility.yul\":2117:2208   */\n  tag_12\n  jump\t// in\ntag_48:\n    /* \"#utility.yul\":2111:2115   */\n  dup3\n    /* \"#utility.yul\":2104:2209   */\n  sstore\n    /* \"#utility.yul\":2022:2215   */\n  pop\n    /* \"#utility.yul\":1946:2215   */\n  pop\n  pop\n  pop\n  jump\t// out\n    /* \"#utility.yul\":2221:2294   */\ntag_18:\n    /* \"#utility.yul\":2266:2269   */\n  0x00\n    /* \"#utility.yul\":2287:2288   */\n  0x00\n    /* \"#utility.yul\":2280:2288   */\n  swap1\n  pop\n    /* \"#utility.yul\":2221:2294   */\n  swap1\n  jump\t// out\n    /* \"#utility.yul\":2300:2489   */\ntag_19:\n    /* \"#utility.yul\":2377:2409   */\n  tag_52\n  tag_18\n  jump\t// in\ntag_52:\n    /* \"#utility.yul\":2418:2483   */\n  tag_53\n    /* \"#utility.yul\":2476:2482   */\n  dup2\n    /* \"#utility.yul\":2468:2474   */\n  dup5\n    /* \"#utility.yul\":2462:2466   */\n  dup5\n    /* \"#utility.yul\":2418:2483   */\n  tag_17\n  jump\t// in\ntag_53:\n    /* \"#utility.yul\":2353:2489   */\n  pop\n    /* \"#utility.yul\":2300:2489   */\n  pop\n  pop\n  jump\t// out\n    /* \"#utility.yul\":2495:2681   */\ntag_20:\n    /* \"#utility.yul\":2555:2675   */\ntag_55:\n    /* \"#utility.yul\":2572:2575   */\n  dup2\n    /* \"#utility.yul\":2565:2570   */\n  dup2\n    /* \"#utility.yul\":2562:2576   */\n  lt\n    /* \"#utility.yul\":2555:2675   */\n  iszero\n  tag_57\n  jumpi\n    /* \"#utility.yul\":2626:2665   */\n  tag_58\n    /* \"#utility.yul\":2663:2664   */\n  0x00\n    /* \"#utility.yul\":2656:2661   */\n  dup3\n    /* \"#utility.yul\":2626:2665   */\n  tag_19\n  jump\t// in\ntag_58:\n    /* \"#utility.yul\":2599:2600   */\n  0x01\n    /* \"#utility.yul\":2592:2597   */\n  dup2\n    /* \"#utility.yul\":2588:2601   */\n  add\n    /* \"#utility.yul\":2579:2601   */\n  swap1\n  pop\n    /* \"#utility.yul\":2555:2675   */\n  jump(tag_55)\ntag_57:\n    /* \"#utility.yul\":2495:2681   */\n  pop\n  pop\n  jump\t// out\n    /* \"#utility.yul\":2687:3230   */\ntag_21:\n    /* \"#utility.yul\":2788:2790   */\n  0x1f\n    /* \"#utility.yul\":2783:2786   */\n  dup3\n    /* \"#utility.yul\":2780:2791   */\n  gt\n    /* \"#utility.yul\":2777:3223   */\n  iszero\n  tag_60\n  jumpi\n    /* \"#utility.yul\":2822:2860   */\n  tag_61\n    /* \"#utility.yul\":2854:2859   */\n  dup2\n    /* \"#utility.yul\":2822:2860   */\n  tag_9\n  jump\t// in\ntag_61:\n    /* \"#utility.yul\":2906:2935   */\n  tag_62\n    /* \"#utility.yul\":2924:2934   */\n  dup5\n    /* \"#utility.yul\":2906:2935   */\n  tag_10\n  jump\t// in\ntag_62:\n    /* \"#utility.yul\":2896:2904   */\n  dup2\n    /* \"#utility.yul\":2892:2936   */\n  add\n    /* \"#utility.yul\":3089:3091   */\n  0x20\n    /* \"#utility.yul\":3077:3087   */\n  dup6\n    /* \"#utility.yul\":3074:3092   */\n  lt\n    /* \"#utility.yul\":3071:3120   */\n  iszero\n  tag_63\n  jumpi\n    /* \"#utility.yul\":3110:3118   */\n  dup2\n    /* \"#utility.yul\":3095:3118   */\n  swap1\n  pop\n    /* \"#utility.yul\":3071:3120   */\ntag_63:\n    /* \"#utility.yul\":3133:3213   */\n  tag_64\n    /* \"#utility.yul\":3189:3211   */\n  tag_65\n    /* \"#utility.yul\":3207:3210   */\n  dup6\n    /* \"#utility.yul\":3189:3211   */\n  tag_10\n  jump\t// in\ntag_65:\n    /* \"#utility.yul\":3179:3187   */\n  dup4\n    /* \"#utility.yul\":3175:3212   */\n  add\n    /* \"#utility.yul\":3162:3173   */\n  dup3\n    /* \"#utility.yul\":3133:3213   */\n  tag_20\n  jump\t// in\ntag_64:\n    /* \"#utility.yul\":2792:3223   */\n  pop\n  pop\n    /* \"#utility.yul\":2777:3223   */\ntag_60:\n    /* \"#utility.yul\":2687:3230   */\n  pop\n  pop\n  pop\n  jump\t// out\n    /* \"#utility.yul\":3236:3353   */\ntag_22:\n    /* \"#utility.yul\":3290:3298   */\n  0x00\n    /* \"#utility.yul\":3340:3345   */\n  dup3\n    /* \"#utility.yul\":3334:3338   */\n  dup3\n    /* \"#utility.yul\":3330:3346   */\n  shr\n    /* \"#utility.yul\":3309:3346   */\n  swap1\n  pop\n    /* \"#utility.yul\":3236:3353   */\n  swap3\n  swap2\n  pop\n  pop\n  jump\t// out\n    /* \"#utility.yul\":3359:3528   */\ntag_23:\n    /* \"#utility.yul\":3403:3409   */\n  0x00\n    /* \"#utility.yul\":3436:3487   */\n  tag_68\n    /* \"#utility.yul\":3484:3485   */\n  0x00\n    /* \"#utility.yul\":3480:3486   */\n  not\n    /* \"#utility.yul\":3472:3477   */\n  dup5\n    /* \"#utility.yul\":3469:3470   */\n  0x08\n    /* \"#utility.yul\":3465:3478   */\n  mul\n    /* \"#utility.yul\":3436:3487   */\n  tag_22\n  jump\t// in\ntag_68:\n    /* \"#utility.yul\":3432:3488   */\n  not\n    /* \"#utility.yul\":3517:3521   */\n  dup1\n    /* \"#utility.yul\":3511:3515   */\n  dup4\n    /* \"#utility.yul\":3507:3522   */\n  and\n    /* \"#utility.yul\":3497:3522   */\n  swap2\n  pop\n    /* \"#utility.yul\":3410:3528   */\n  pop\n    /* \"#utility.yul\":3359:3528   */\n  swap3\n  swap2\n  pop\n  pop\n  jump\t// out\n    /* \"#utility.yul\":3533:3828   */\ntag_24:\n    /* \"#utility.yul\":3609:3613   */\n  0x00\n    /* \"#utility.yul\":3755:3784   */\n  tag_70\n    /* \"#utility.yul\":3780:3783   */\n  dup4\n    /* \"#utility.yul\":3774:3778   */\n  dup4\n    /* \"#utility.yul\":3755:3784   */\n  tag_23\n  jump\t// in\ntag_70:\n    /* \"#utility.yul\":3747:3784   */\n  swap2\n  pop\n    /* \"#utility.yul\":3817:3820   */\n  dup3\n    /* \"#utility.yul\":3814:3815   */\n  0x02\n    /* \"#utility.yul\":3810:3821   */\n  mul\n    /* \"#utility.yul\":3804:3808   */\n  dup3\n    /* \"#utility.yul\":3801:3822   */\n  or\n    /* \"#utility.yul\":3793:3822   */\n  swap1\n  pop\n    /* \"#utility.yul\":3533:3828   */\n  swap3\n  swap2\n  pop\n  pop\n  jump\t// out\n    /* \"#utility.yul\":3833:5228   */\ntag_2:\n    /* \"#utility.yul\":3950:3987   */\n  tag_72\n    /* \"#utility.yul\":3983:3986   */\n  dup3\n    /* \"#utility.yul\":3950:3987   */\n  tag_5\n  jump\t// in\ntag_72:\n    /* \"#utility.yul\":4052:4070   */\n  0xffffffffffffffff\n    /* \"#utility.yul\":4044:4050   */\n  dup2\n    /* \"#utility.yul\":4041:4071   */\n  gt\n    /* \"#utility.yul\":4038:4094   */\n  iszero\n  tag_73\n  jumpi\n    /* \"#utility.yul\":4074:4092   */\n  tag_74\n  tag_6\n  jump\t// in\ntag_74:\n    /* \"#utility.yul\":4038:4094   */\ntag_73:\n    /* \"#utility.yul\":4118:4156   */\n  tag_75\n    /* \"#utility.yul\":4150:4154   */\n  dup3\n    /* \"#utility.yul\":4144:4155   */\n  sload\n    /* \"#utility.yul\":4118:4156   */\n  tag_8\n  jump\t// in\ntag_75:\n    /* \"#utility.yul\":4203:4270   */\n  tag_76\n    /* \"#utility.yul\":4263:4269   */\n  dup3\n    /* \"#utility.yul\":4255:4261   */\n  dup3\n    /* \"#utility.yul\":4249:4253   */\n  dup6\n    /* \"#utility.yul\":4203:4270   */\n  tag_21\n  jump\t// in\ntag_76:\n    /* \"#utility.yul\":4297:4298   */\n  0x00\n    /* \"#utility.yul\":4321:4325   */\n  0x20\n    /* \"#utility.yul\":4308:4325   */\n  swap1\n  pop\n    /* \"#utility.yul\":4353:4355   */\n  0x1f\n    /* \"#utility.yul\":4345:4351   */\n  dup4\n    /* \"#utility.yul\":4342:4356   */\n  gt\n    /* \"#utility.yul\":4370:4371   */\n  0x01\n    /* \"#utility.yul\":4365:4983   */\n  dup2\n  eq\n  tag_78\n  jumpi\n    /* \"#utility.yul\":5027:5028   */\n  0x00\n    /* \"#utility.yul\":5044:5050   */\n  dup5\n    /* \"#utility.yul\":5041:5118   */\n  iszero\n  tag_79\n  jumpi\n    /* \"#utility.yul\":5093:5102   */\n  dup3\n    /* \"#utility.yul\":5088:5091   */\n  dup8\n    /* \"#utility.yul\":5084:5103   */\n  add\n    /* \"#utility.yul\":5078:5104   */\n  mload\n    /* \"#utility.yul\":5069:5104   */\n  swap1\n  pop\n    /* \"#utility.yul\":5041:5118   */\ntag_79:\n    /* \"#utility.yul\":5144:5211   */\n  tag_80\n    /* \"#utility.yul\":5204:5210   */\n  dup6\n    /* \"#utility.yul\":5197:5202   */\n  dup3\n    /* \"#utility.yul\":5144:5211   */\n  tag_24\n  jump\t// in\ntag_80:\n    /* \"#utility.yul\":5138:5142   */\n  dup7\n    /* \"#utility.yul\":5131:5212   */\n  sstore\n    /* \"#utility.yul\":5000:5222   */\n  pop\n    /* \"#utility.yul\":4335:5222   */\n  jump(tag_77)\n    /* \"#utility.yul\":4365:4983   */\ntag_78:\n    /* \"#utility.yul\":4417:4421   */\n  0x1f\n    /* \"#utility.yul\":4413:4422   */\n  not\n    /* \"#utility.yul\":4405:4411   */\n  dup5\n    /* \"#utility.yul\":4401:4423   */\n  and\n    /* \"#utility.yul\":4451:4488   */\n  tag_81\n    /* \"#utility.yul\":4483:4487   */\n  dup7\n    /* \"#utility.yul\":4451:4488   */\n  tag_9\n  jump\t// in\ntag_81:\n    /* \"#utility.yul\":4510:4511   */\n  0x00\n    /* \"#utility.yul\":4524:4732   */\ntag_82:\n    /* \"#utility.yul\":4538:4545   */\n  dup3\n    /* \"#utility.yul\":4535:4536   */\n  dup2\n    /* \"#utility.yul\":4532:4546   */\n  lt\n    /* \"#utility.yul\":4524:4732   */\n  iszero\n  tag_84\n  jumpi\n    /* \"#utility.yul\":4617:4626   */\n  dup5\n    /* \"#utility.yul\":4612:4615   */\n  dup10\n    /* \"#utility.yul\":4608:4627   */\n  add\n    /* \"#utility.yul\":4602:4628   */\n  mload\n    /* \"#utility.yul\":4594:4600   */\n  dup3\n    /* \"#utility.yul\":4587:4629   */\n  sstore\n    /* \"#utility.yul\":4668:4669   */\n  0x01\n    /* \"#utility.yul\":4660:4666   */\n  dup3\n    /* \"#utility.yul\":4656:4670   */\n  add\n    /* \"#utility.yul\":4646:4670   */\n  swap2\n  pop\n    /* \"#utility.yul\":4715:4717   */\n  0x20\n    /* \"#utility.yul\":4704:4713   */\n  dup6\n    /* \"#utility.yul\":4700:4718   */\n  add\n    /* \"#utility.yul\":4687:4718   */\n  swap5\n  pop\n    /* \"#utility.yul\":4561:4565   */\n  0x20\n    /* \"#utility.yul\":4558:4559   */\n  dup2\n    /* \"#utility.yul\":4554:4566   */\n  add\n    /* \"#utility.yul\":4549:4566   */\n  swap1\n  pop\n    /* \"#utility.yul\":4524:4732   */\n  jump(tag_82)\ntag_84:\n    /* \"#utility.yul\":4760:4766   */\n  dup7\n    /* \"#utility.yul\":4751:4758   */\n  dup4\n    /* \"#utility.yul\":4748:4767   */\n  lt\n    /* \"#utility.yul\":4745:4924   */\n  iszero\n  tag_85\n  jumpi\n    /* \"#utility.yul\":4818:4827   */\n  dup5\n    /* \"#utility.yul\":4813:4816   */\n  dup10\n    /* \"#utility.yul\":4809:4828   */\n  add\n    /* \"#utility.yul\":4803:4829   */\n  mload\n    /* \"#utility.yul\":4861:4909   */\n  tag_86\n    /* \"#utility.yul\":4903:4907   */\n  0x1f\n    /* \"#utility.yul\":4895:4901   */\n  dup10\n    /* \"#utility.yul\":4891:4908   */\n  and\n    /* \"#utility.yul\":4880:4889   */\n  dup3\n    /* \"#utility.yul\":4861:4909   */\n  tag_23\n  jump\t// in\ntag_86:\n    /* \"#utility.yul\":4853:4859   */\n  dup4\n    /* \"#utility.yul\":4846:4910   */\n  sstore\n    /* \"#utility.yul\":4768:4924   */\n  pop\n    /* \"#utility.yul\":4745:4924   */\ntag_85:\n    /* \"#utility.yul\":4970:4971   */\n  0x01\n    /* \"#utility.yul\":4966:4967   */\n  0x02\n    /* \"#utility.yul\":4958:4964   */\n  dup9\n    /* \"#utility.yul\":4954:4968   */\n  mul\n    /* \"#utility.yul\":4950:4972   */\n  add\n    /* \"#utility.yul\":4944:4948   */\n  dup9\n    /* \"#utility.yul\":4937:4973   */\n  sstore\n    /* \"#utility.yul\":4372:4983   */\n  pop\n  pop\n  pop\n    /* \"#utility.yul\":4335:5222   */\ntag_77:\n  pop\n    /* \"#utility.yul\":3925:5228   */\n  pop\n  pop\n  pop\n    /* \"#utility.yul\":3833:5228   */\n  pop\n  pop\n  jump\t// out\n    /* \"BCN1/SimpleStorage.sol\":1524:2155  contract SimpleStorage3 {... */\ntag_4:\n  dataSize(sub_0)\n  dup1\n  dataOffset(sub_0)\n  0x00\n  codecopy\n  0x00\n  return\nstop\n\nsub_0: assembly {\n        /* \"BCN1/SimpleStorage.sol\":1524:2155  contract SimpleStorage3 {... */\n      mstore(0x40, 0x80)\n      callvalue\n      dup1\n      iszero\n      tag_1\n      jumpi\n      revert(0x00, 0x00)\n    tag_1:\n      pop\n      jumpi(tag_2, lt(calldatasize, 0x04))\n      shr(0xe0, calldataload(0x00))\n      dup1\n      0x6f760f41\n      eq\n      tag_3\n      jumpi\n      dup1\n      0x77ec2b55\n      eq\n      tag_4\n      jumpi\n      dup1\n      0x9e7a13ad\n      eq\n      tag_5\n      jumpi\n    tag_2:\n      revert(0x00, 0x00)\n        /* \"BCN1/SimpleStorage.sol\":1858:2152  function addPerson(string memory _name, uint256 _favoriteNumber) public{... */\n    tag_3:\n      tag_6\n      0x04\n      dup1\n      calldatasize\n      sub\n      dup2\n      add\n      swap1\n      tag_7\n      swap2\n      swap1\n      tag_8\n      jump\t// in\n    tag_7:\n      tag_9\n      jump\t// in\n    tag_6:\n      stop\n        /* \"BCN1/SimpleStorage.sol\":1661:1728  People public person = People({favoriteNumber: 2, name: \"pradeep\"}) */\n    tag_4:\n      tag_10\n      tag_11\n      jump\t// in\n    tag_10:\n      mload(0x40)\n      tag_12\n      swap3\n      swap2\n      swap1\n      tag_13\n      jump\t// in\n    tag_12:\n      mload(0x40)\n      dup1\n      swap2\n      sub\n      swap1\n      return\n        /* \"BCN1/SimpleStorage.sol\":1768:1790  People[] public people */\n    tag_5:\n      tag_14\n      0x04\n      dup1\n      calldatasize\n      sub\n      dup2\n      add\n      swap1\n      tag_15\n      swap2\n      swap1\n      tag_16\n      jump\t// in\n    tag_15:\n      tag_17\n      jump\t// in\n    tag_14:\n      mload(0x40)\n      tag_18\n      swap3\n      swap2\n      swap1\n      tag_13\n      jump\t// in\n    tag_18:\n      mload(0x40)\n      dup1\n      swap2\n      sub\n      swap1\n      return\n        /* \"BCN1/SimpleStorage.sol\":1858:2152  function addPerson(string memory _name, uint256 _favoriteNumber) public{... */\n    tag_9:\n        /* \"BCN1/SimpleStorage.sol\":1940:1963  People memory newPerson */\n      0x00\n        /* \"BCN1/SimpleStorage.sol\":1966:2020  People({favoriteNumber: _favoriteNumber, name: _name}) */\n      mload(0x40)\n      dup1\n      0x40\n      add\n      0x40\n      mstore\n      dup1\n        /* \"BCN1/SimpleStorage.sol\":1990:2005  _favoriteNumber */\n      dup4\n        /* \"BCN1/SimpleStorage.sol\":1966:2020  People({favoriteNumber: _favoriteNumber, name: _name}) */\n      dup2\n      mstore\n      0x20\n      add\n        /* \"BCN1/SimpleStorage.sol\":2013:2018  _name */\n      dup5\n        /* \"BCN1/SimpleStorage.sol\":1966:2020  People({favoriteNumber: _favoriteNumber, name: _name}) */\n      dup2\n      mstore\n      pop\n        /* \"BCN1/SimpleStorage.sol\":1940:2020  People memory newPerson = People({favoriteNumber: _favoriteNumber, name: _name}) */\n      swap1\n      pop\n        /* \"BCN1/SimpleStorage.sol\":2122:2128  people */\n      0x02\n        /* \"BCN1/SimpleStorage.sol\":2134:2143  newPerson */\n      dup2\n        /* \"BCN1/SimpleStorage.sol\":2122:2144  people.push(newPerson) */\n      swap1\n      dup1\n      0x01\n      dup2\n      sload\n      add\n      dup1\n      dup3\n      sstore\n      dup1\n      swap2\n      pop\n      pop\n      0x01\n      swap1\n      sub\n      swap1\n      0x00\n      mstore\n      keccak256(0x00, 0x20)\n      swap1\n      0x02\n      mul\n      add\n      0x00\n      swap1\n      swap2\n      swap1\n      swap2\n      swap1\n      swap2\n      pop\n      0x00\n      dup3\n      add\n      mload\n      dup2\n      0x00\n      add\n      sstore\n      0x20\n      dup3\n      add\n      mload\n      dup2\n      0x01\n      add\n      swap1\n      dup2\n      tag_21\n      swap2\n      swap1\n      tag_22\n      jump\t// in\n    tag_21:\n      pop\n      pop\n      pop\n        /* \"BCN1/SimpleStorage.sol\":1929:2152  {... */\n      pop\n        /* \"BCN1/SimpleStorage.sol\":1858:2152  function addPerson(string memory _name, uint256 _favoriteNumber) public{... */\n      pop\n      pop\n      jump\t// out\n        /* \"BCN1/SimpleStorage.sol\":1661:1728  People public person = People({favoriteNumber: 2, name: \"pradeep\"}) */\n    tag_11:\n      0x00\n      dup1\n      0x00\n      add\n      sload\n      swap1\n      dup1\n      0x01\n      add\n      dup1\n      sload\n      tag_23\n      swap1\n      tag_24\n      jump\t// in\n    tag_23:\n      dup1\n      0x1f\n      add\n      0x20\n      dup1\n      swap2\n      div\n      mul\n      0x20\n      add\n      mload(0x40)\n      swap1\n      dup2\n      add\n      0x40\n      mstore\n      dup1\n      swap3\n      swap2\n      swap1\n      dup2\n      dup2\n      mstore\n      0x20\n      add\n      dup3\n      dup1\n      sload\n      tag_25\n      swap1\n      tag_24\n      jump\t// in\n    tag_25:\n      dup1\n      iszero\n      tag_26\n      jumpi\n      dup1\n      0x1f\n      lt\n      tag_27\n      jumpi\n      0x0100\n      dup1\n      dup4\n      sload\n      div\n      mul\n      dup4\n      mstore\n      swap2\n      0x20\n      add\n      swap2\n      jump(tag_26)\n    tag_27:\n      dup3\n      add\n      swap2\n      swap1\n      0x00\n      mstore\n      keccak256(0x00, 0x20)\n      swap1\n    tag_28:\n      dup2\n      sload\n      dup2\n      mstore\n      swap1\n      0x01\n      add\n      swap1\n      0x20\n      add\n      dup1\n      dup4\n      gt\n      tag_28\n      jumpi\n      dup3\n      swap1\n      sub\n      0x1f\n      and\n      dup3\n      add\n      swap2\n    tag_26:\n      pop\n      pop\n      pop\n      pop\n      pop\n      swap1\n      pop\n      dup3\n      jump\t// out\n        /* \"BCN1/SimpleStorage.sol\":1768:1790  People[] public people */\n    tag_17:\n      0x02\n      dup2\n      dup2\n      sload\n      dup2\n      lt\n      tag_29\n      jumpi\n      0x00\n      dup1\n      revert\n    tag_29:\n      swap1\n      0x00\n      mstore\n      keccak256(0x00, 0x20)\n      swap1\n      0x02\n      mul\n      add\n      0x00\n      swap2\n      pop\n      swap1\n      pop\n      dup1\n      0x00\n      add\n      sload\n      swap1\n      dup1\n      0x01\n      add\n      dup1\n      sload\n      tag_31\n      swap1\n      tag_24\n      jump\t// in\n    tag_31:\n      dup1\n      0x1f\n      add\n      0x20\n      dup1\n      swap2\n      div\n      mul\n      0x20\n      add\n      mload(0x40)\n      swap1\n      dup2\n      add\n      0x40\n      mstore\n      dup1\n      swap3\n      swap2\n      swap1\n      dup2\n      dup2\n      mstore\n      0x20\n      add\n      dup3\n      dup1\n      sload\n      tag_32\n      swap1\n      tag_24\n      jump\t// in\n    tag_32:\n      dup1\n      iszero\n      tag_33\n      jumpi\n      dup1\n      0x1f\n      lt\n      tag_34\n      jumpi\n      0x0100\n      dup1\n      dup4\n      sload\n      div\n      mul\n      dup4\n      mstore\n      swap2\n      0x20\n      add\n      swap2\n      jump(tag_33)\n    tag_34:\n      dup3\n      add\n      swap2\n      swap1\n      0x00\n      mstore\n      keccak256(0x00, 0x20)\n      swap1\n    tag_35:\n      dup2\n      sload\n      dup2\n      mstore\n      swap1\n      0x01\n      add\n      swap1\n      0x20\n      add\n      dup1\n      dup4\n      gt\n      tag_35\n      jumpi\n      dup3\n      swap1\n      sub\n      0x1f\n      and\n      dup3\n      add\n      swap2\n    tag_33:\n      pop\n      pop\n      pop\n      pop\n      pop\n      swap1\n      pop\n      dup3\n      jump\t// out\n        /* \"#utility.yul\":7:82   */\n    tag_36:\n        /* \"#utility.yul\":40:46   */\n      0x00\n        /* \"#utility.yul\":73:75   */\n      0x40\n        /* \"#utility.yul\":67:76   */\n      mload\n        /* \"#utility.yul\":57:76   */\n      swap1\n      pop\n        /* \"#utility.yul\":7:82   */\n      swap1\n      jump\t// out\n        /* \"#utility.yul\":88:205   */\n    tag_37:\n        /* \"#utility.yul\":197:198   */\n      0x00\n        /* \"#utility.yul\":194:195   */\n      0x00\n        /* \"#utility.yul\":187:199   */\n      revert\n        /* \"#utility.yul\":211:328   */\n    tag_38:\n        /* \"#utility.yul\":320:321   */\n      0x00\n        /* \"#utility.yul\":317:318   */\n      0x00\n        /* \"#utility.yul\":310:322   */\n      revert\n        /* \"#utility.yul\":334:451   */\n    tag_39:\n        /* \"#utility.yul\":443:444   */\n      0x00\n        /* \"#utility.yul\":440:441   */\n      0x00\n        /* \"#utility.yul\":433:445   */\n      revert\n        /* \"#utility.yul\":457:574   */\n    tag_40:\n        /* \"#utility.yul\":566:567   */\n      0x00\n        /* \"#utility.yul\":563:564   */\n      0x00\n        /* \"#utility.yul\":556:568   */\n      revert\n        /* \"#utility.yul\":580:682   */\n    tag_41:\n        /* \"#utility.yul\":621:627   */\n      0x00\n        /* \"#utility.yul\":672:674   */\n      0x1f\n        /* \"#utility.yul\":668:675   */\n      not\n        /* \"#utility.yul\":663:665   */\n      0x1f\n        /* \"#utility.yul\":656:661   */\n      dup4\n        /* \"#utility.yul\":652:666   */\n      add\n        /* \"#utility.yul\":648:676   */\n      and\n        /* \"#utility.yul\":638:676   */\n      swap1\n      pop\n        /* \"#utility.yul\":580:682   */\n      swap2\n      swap1\n      pop\n      jump\t// out\n        /* \"#utility.yul\":688:868   */\n    tag_42:\n        /* \"#utility.yul\":736:813   */\n      0x4e487b7100000000000000000000000000000000000000000000000000000000\n        /* \"#utility.yul\":733:734   */\n      0x00\n        /* \"#utility.yul\":726:814   */\n      mstore\n        /* \"#utility.yul\":833:837   */\n      0x41\n        /* \"#utility.yul\":830:831   */\n      0x04\n        /* \"#utility.yul\":823:838   */\n      mstore\n        /* \"#utility.yul\":857:861   */\n      0x24\n        /* \"#utility.yul\":854:855   */\n      0x00\n        /* \"#utility.yul\":847:862   */\n      revert\n        /* \"#utility.yul\":874:1155   */\n    tag_43:\n        /* \"#utility.yul\":957:984   */\n      tag_82\n        /* \"#utility.yul\":979:983   */\n      dup3\n        /* \"#utility.yul\":957:984   */\n      tag_41\n      jump\t// in\n    tag_82:\n        /* \"#utility.yul\":949:955   */\n      dup2\n        /* \"#utility.yul\":945:985   */\n      add\n        /* \"#utility.yul\":1087:1093   */\n      dup2\n        /* \"#utility.yul\":1075:1085   */\n      dup2\n        /* \"#utility.yul\":1072:1094   */\n      lt\n        /* \"#utility.yul\":1051:1069   */\n      0xffffffffffffffff\n        /* \"#utility.yul\":1039:1049   */\n      dup3\n        /* \"#utility.yul\":1036:1070   */\n      gt\n        /* \"#utility.yul\":1033:1095   */\n      or\n        /* \"#utility.yul\":1030:1118   */\n      iszero\n      tag_83\n      jumpi\n        /* \"#utility.yul\":1098:1116   */\n      tag_84\n      tag_42\n      jump\t// in\n    tag_84:\n        /* \"#utility.yul\":1030:1118   */\n    tag_83:\n        /* \"#utility.yul\":1138:1148   */\n      dup1\n        /* \"#utility.yul\":1134:1136   */\n      0x40\n        /* \"#utility.yul\":1127:1149   */\n      mstore\n        /* \"#utility.yul\":917:1155   */\n      pop\n        /* \"#utility.yul\":874:1155   */\n      pop\n      pop\n      jump\t// out\n        /* \"#utility.yul\":1161:1290   */\n    tag_44:\n        /* \"#utility.yul\":1195:1201   */\n      0x00\n        /* \"#utility.yul\":1222:1242   */\n      tag_86\n      tag_36\n      jump\t// in\n    tag_86:\n        /* \"#utility.yul\":1212:1242   */\n      swap1\n      pop\n        /* \"#utility.yul\":1251:1284   */\n      tag_87\n        /* \"#utility.yul\":1279:1283   */\n      dup3\n        /* \"#utility.yul\":1271:1277   */\n      dup3\n        /* \"#utility.yul\":1251:1284   */\n      tag_43\n      jump\t// in\n    tag_87:\n        /* \"#utility.yul\":1161:1290   */\n      swap2\n      swap1\n      pop\n      jump\t// out\n        /* \"#utility.yul\":1296:1604   */\n    tag_45:\n        /* \"#utility.yul\":1358:1362   */\n      0x00\n        /* \"#utility.yul\":1448:1466   */\n      0xffffffffffffffff\n        /* \"#utility.yul\":1440:1446   */\n      dup3\n        /* \"#utility.yul\":1437:1467   */\n      gt\n        /* \"#utility.yul\":1434:1490   */\n      iszero\n      tag_89\n      jumpi\n        /* \"#utility.yul\":1470:1488   */\n      tag_90\n      tag_42\n      jump\t// in\n    tag_90:\n        /* \"#utility.yul\":1434:1490   */\n    tag_89:\n        /* \"#utility.yul\":1508:1537   */\n      tag_91\n        /* \"#utility.yul\":1530:1536   */\n      dup3\n        /* \"#utility.yul\":1508:1537   */\n      tag_41\n      jump\t// in\n    tag_91:\n        /* \"#utility.yul\":1500:1537   */\n      swap1\n      pop\n        /* \"#utility.yul\":1592:1596   */\n      0x20\n        /* \"#utility.yul\":1586:1590   */\n      dup2\n        /* \"#utility.yul\":1582:1597   */\n      add\n        /* \"#utility.yul\":1574:1597   */\n      swap1\n      pop\n        /* \"#utility.yul\":1296:1604   */\n      swap2\n      swap1\n      pop\n      jump\t// out\n        /* \"#utility.yul\":1610:1758   */\n    tag_46:\n        /* \"#utility.yul\":1708:1714   */\n      dup3\n        /* \"#utility.yul\":1703:1706   */\n      dup2\n        /* \"#utility.yul\":1698:1701   */\n      dup4\n        /* \"#utility.yul\":1685:1715   */\n      calldatacopy\n        /* \"#utility.yul\":1749:1750   */\n      0x00\n        /* \"#utility.yul\":1740:1746   */\n      dup4\n        /* \"#utility.yul\":1735:1738   */\n      dup4\n        /* \"#utility.yul\":1731:1747   */\n      add\n        /* \"#utility.yul\":1724:1751   */\n      mstore\n        /* \"#utility.yul\":1610:1758   */\n      pop\n      pop\n      pop\n      jump\t// out\n        /* \"#utility.yul\":1764:2189   */\n    tag_47:\n        /* \"#utility.yul\":1842:1847   */\n      0x00\n        /* \"#utility.yul\":1867:1933   */\n      tag_94\n        /* \"#utility.yul\":1883:1932   */\n      tag_95\n        /* \"#utility.yul\":1925:1931   */\n      dup5\n        /* \"#utility.yul\":1883:1932   */\n      tag_45\n      jump\t// in\n    tag_95:\n        /* \"#utility.yul\":1867:1933   */\n      tag_44\n      jump\t// in\n    tag_94:\n        /* \"#utility.yul\":1858:1933   */\n      swap1\n      pop\n        /* \"#utility.yul\":1956:1962   */\n      dup3\n        /* \"#utility.yul\":1949:1954   */\n      dup2\n        /* \"#utility.yul\":1942:1963   */\n      mstore\n        /* \"#utility.yul\":1994:1998   */\n      0x20\n        /* \"#utility.yul\":1987:1992   */\n      dup2\n        /* \"#utility.yul\":1983:1999   */\n      add\n        /* \"#utility.yul\":2032:2035   */\n      dup5\n        /* \"#utility.yul\":2023:2029   */\n      dup5\n        /* \"#utility.yul\":2018:2021   */\n      dup5\n        /* \"#utility.yul\":2014:2030   */\n      add\n        /* \"#utility.yul\":2011:2036   */\n      gt\n        /* \"#utility.yul\":2008:2120   */\n      iszero\n      tag_96\n      jumpi\n        /* \"#utility.yul\":2039:2118   */\n      tag_97\n      tag_40\n      jump\t// in\n    tag_97:\n        /* \"#utility.yul\":2008:2120   */\n    tag_96:\n        /* \"#utility.yul\":2129:2183   */\n      tag_98\n        /* \"#utility.yul\":2176:2182   */\n      dup5\n        /* \"#utility.yul\":2171:2174   */\n      dup3\n        /* \"#utility.yul\":2166:2169   */\n      dup6\n        /* \"#utility.yul\":2129:2183   */\n      tag_46\n      jump\t// in\n    tag_98:\n        /* \"#utility.yul\":1848:2189   */\n      pop\n        /* \"#utility.yul\":1764:2189   */\n      swap4\n      swap3\n      pop\n      pop\n      pop\n      jump\t// out\n        /* \"#utility.yul\":2209:2549   */\n    tag_48:\n        /* \"#utility.yul\":2265:2270   */\n      0x00\n        /* \"#utility.yul\":2314:2317   */\n      dup3\n        /* \"#utility.yul\":2307:2311   */\n      0x1f\n        /* \"#utility.yul\":2299:2305   */\n      dup4\n        /* \"#utility.yul\":2295:2312   */\n      add\n        /* \"#utility.yul\":2291:2318   */\n      slt\n        /* \"#utility.yul\":2281:2403   */\n      tag_100\n      jumpi\n        /* \"#utility.yul\":2322:2401   */\n      tag_101\n      tag_39\n      jump\t// in\n    tag_101:\n        /* \"#utility.yul\":2281:2403   */\n    tag_100:\n        /* \"#utility.yul\":2439:2445   */\n      dup2\n        /* \"#utility.yul\":2426:2446   */\n      calldataload\n        /* \"#utility.yul\":2464:2543   */\n      tag_102\n        /* \"#utility.yul\":2539:2542   */\n      dup5\n        /* \"#utility.yul\":2531:2537   */\n      dup3\n        /* \"#utility.yul\":2524:2528   */\n      0x20\n        /* \"#utility.yul\":2516:2522   */\n      dup7\n        /* \"#utility.yul\":2512:2529   */\n      add\n        /* \"#utility.yul\":2464:2543   */\n      tag_47\n      jump\t// in\n    tag_102:\n        /* \"#utility.yul\":2455:2543   */\n      swap2\n      pop\n        /* \"#utility.yul\":2271:2549   */\n      pop\n        /* \"#utility.yul\":2209:2549   */\n      swap3\n      swap2\n      pop\n      pop\n      jump\t// out\n        /* \"#utility.yul\":2555:2632   */\n    tag_49:\n        /* \"#utility.yul\":2592:2599   */\n      0x00\n        /* \"#utility.yul\":2621:2626   */\n      dup2\n        /* \"#utility.yul\":2610:2626   */\n      swap1\n      pop\n        /* \"#utility.yul\":2555:2632   */\n      swap2\n      swap1\n      pop\n      jump\t// out\n        /* \"#utility.yul\":2638:2760   */\n    tag_50:\n        /* \"#utility.yul\":2711:2735   */\n      tag_105\n        /* \"#utility.yul\":2729:2734   */\n      dup2\n        /* \"#utility.yul\":2711:2735   */\n      tag_49\n      jump\t// in\n    tag_105:\n        /* \"#utility.yul\":2704:2709   */\n      dup2\n        /* \"#utility.yul\":2701:2736   */\n      eq\n        /* \"#utility.yul\":2691:2754   */\n      tag_106\n      jumpi\n        /* \"#utility.yul\":2750:2751   */\n      0x00\n        /* \"#utility.yul\":2747:2748   */\n      0x00\n        /* \"#utility.yul\":2740:2752   */\n      revert\n        /* \"#utility.yul\":2691:2754   */\n    tag_106:\n        /* \"#utility.yul\":2638:2760   */\n      pop\n      jump\t// out\n        /* \"#utility.yul\":2766:2905   */\n    tag_51:\n        /* \"#utility.yul\":2812:2817   */\n      0x00\n        /* \"#utility.yul\":2850:2856   */\n      dup2\n        /* \"#utility.yul\":2837:2857   */\n      calldataload\n        /* \"#utility.yul\":2828:2857   */\n      swap1\n      pop\n        /* \"#utility.yul\":2866:2899   */\n      tag_108\n        /* \"#utility.yul\":2893:2898   */\n      dup2\n        /* \"#utility.yul\":2866:2899   */\n      tag_50\n      jump\t// in\n    tag_108:\n        /* \"#utility.yul\":2766:2905   */\n      swap3\n      swap2\n      pop\n      pop\n      jump\t// out\n        /* \"#utility.yul\":2911:3565   */\n    tag_8:\n        /* \"#utility.yul\":2989:2995   */\n      0x00\n        /* \"#utility.yul\":2997:3003   */\n      0x00\n        /* \"#utility.yul\":3046:3048   */\n      0x40\n        /* \"#utility.yul\":3034:3043   */\n      dup4\n        /* \"#utility.yul\":3025:3032   */\n      dup6\n        /* \"#utility.yul\":3021:3044   */\n      sub\n        /* \"#utility.yul\":3017:3049   */\n      slt\n        /* \"#utility.yul\":3014:3133   */\n      iszero\n      tag_110\n      jumpi\n        /* \"#utility.yul\":3052:3131   */\n      tag_111\n      tag_37\n      jump\t// in\n    tag_111:\n        /* \"#utility.yul\":3014:3133   */\n    tag_110:\n        /* \"#utility.yul\":3200:3201   */\n      0x00\n        /* \"#utility.yul\":3189:3198   */\n      dup4\n        /* \"#utility.yul\":3185:3202   */\n      add\n        /* \"#utility.yul\":3172:3203   */\n      calldataload\n        /* \"#utility.yul\":3230:3248   */\n      0xffffffffffffffff\n        /* \"#utility.yul\":3222:3228   */\n      dup2\n        /* \"#utility.yul\":3219:3249   */\n      gt\n        /* \"#utility.yul\":3216:3333   */\n      iszero\n      tag_112\n      jumpi\n        /* \"#utility.yul\":3252:3331   */\n      tag_113\n      tag_38\n      jump\t// in\n    tag_113:\n        /* \"#utility.yul\":3216:3333   */\n    tag_112:\n        /* \"#utility.yul\":3357:3420   */\n      tag_114\n        /* \"#utility.yul\":3412:3419   */\n      dup6\n        /* \"#utility.yul\":3403:3409   */\n      dup3\n        /* \"#utility.yul\":3392:3401   */\n      dup7\n        /* \"#utility.yul\":3388:3410   */\n      add\n        /* \"#utility.yul\":3357:3420   */\n      tag_48\n      jump\t// in\n    tag_114:\n        /* \"#utility.yul\":3347:3420   */\n      swap3\n      pop\n        /* \"#utility.yul\":3143:3430   */\n      pop\n        /* \"#utility.yul\":3469:3471   */\n      0x20\n        /* \"#utility.yul\":3495:3548   */\n      tag_115\n        /* \"#utility.yul\":3540:3547   */\n      dup6\n        /* \"#utility.yul\":3531:3537   */\n      dup3\n        /* \"#utility.yul\":3520:3529   */\n      dup7\n        /* \"#utility.yul\":3516:3538   */\n      add\n        /* \"#utility.yul\":3495:3548   */\n      tag_51\n      jump\t// in\n    tag_115:\n        /* \"#utility.yul\":3485:3548   */\n      swap2\n      pop\n        /* \"#utility.yul\":3440:3558   */\n      pop\n        /* \"#utility.yul\":2911:3565   */\n      swap3\n      pop\n      swap3\n      swap1\n      pop\n      jump\t// out\n        /* \"#utility.yul\":3571:3689   */\n    tag_52:\n        /* \"#utility.yul\":3658:3682   */\n      tag_117\n        /* \"#utility.yul\":3676:3681   */\n      dup2\n        /* \"#utility.yul\":3658:3682   */\n      tag_49\n      jump\t// in\n    tag_117:\n        /* \"#utility.yul\":3653:3656   */\n      dup3\n        /* \"#utility.yul\":3646:3683   */\n      mstore\n        /* \"#utility.yul\":3571:3689   */\n      pop\n      pop\n      jump\t// out\n        /* \"#utility.yul\":3695:3794   */\n    tag_53:\n        /* \"#utility.yul\":3747:3753   */\n      0x00\n        /* \"#utility.yul\":3781:3786   */\n      dup2\n        /* \"#utility.yul\":3775:3787   */\n      mload\n        /* \"#utility.yul\":3765:3787   */\n      swap1\n      pop\n        /* \"#utility.yul\":3695:3794   */\n      swap2\n      swap1\n      pop\n      jump\t// out\n        /* \"#utility.yul\":3800:3969   */\n    tag_54:\n        /* \"#utility.yul\":3884:3895   */\n      0x00\n        /* \"#utility.yul\":3918:3924   */\n      dup3\n        /* \"#utility.yul\":3913:3916   */\n      dup3\n        /* \"#utility.yul\":3906:3925   */\n      mstore\n        /* \"#utility.yul\":3958:3962   */\n      0x20\n        /* \"#utility.yul\":3953:3956   */\n      dup3\n        /* \"#utility.yul\":3949:3963   */\n      add\n        /* \"#utility.yul\":3934:3963   */\n      swap1\n      pop\n        /* \"#utility.yul\":3800:3969   */\n      swap3\n      swap2\n      pop\n      pop\n      jump\t// out\n        /* \"#utility.yul\":3975:4114   */\n    tag_55:\n        /* \"#utility.yul\":4064:4070   */\n      dup3\n        /* \"#utility.yul\":4059:4062   */\n      dup2\n        /* \"#utility.yul\":4054:4057   */\n      dup4\n        /* \"#utility.yul\":4048:4071   */\n      mcopy\n        /* \"#utility.yul\":4105:4106   */\n      0x00\n        /* \"#utility.yul\":4096:4102   */\n      dup4\n        /* \"#utility.yul\":4091:4094   */\n      dup4\n        /* \"#utility.yul\":4087:4103   */\n      add\n        /* \"#utility.yul\":4080:4107   */\n      mstore\n        /* \"#utility.yul\":3975:4114   */\n      pop\n      pop\n      pop\n      jump\t// out\n        /* \"#utility.yul\":4120:4497   */\n    tag_56:\n        /* \"#utility.yul\":4208:4211   */\n      0x00\n        /* \"#utility.yul\":4236:4275   */\n      tag_122\n        /* \"#utility.yul\":4269:4274   */\n      dup3\n        /* \"#utility.yul\":4236:4275   */\n      tag_53\n      jump\t// in\n    tag_122:\n        /* \"#utility.yul\":4291:4362   */\n      tag_123\n        /* \"#utility.yul\":4355:4361   */\n      dup2\n        /* \"#utility.yul\":4350:4353   */\n      dup6\n        /* \"#utility.yul\":4291:4362   */\n      tag_54\n      jump\t// in\n    tag_123:\n        /* \"#utility.yul\":4284:4362   */\n      swap4\n      pop\n        /* \"#utility.yul\":4371:4436   */\n      tag_124\n        /* \"#utility.yul\":4429:4435   */\n      dup2\n        /* \"#utility.yul\":4424:4427   */\n      dup6\n        /* \"#utility.yul\":4417:4421   */\n      0x20\n        /* \"#utility.yul\":4410:4415   */\n      dup7\n        /* \"#utility.yul\":4406:4422   */\n      add\n        /* \"#utility.yul\":4371:4436   */\n      tag_55\n      jump\t// in\n    tag_124:\n        /* \"#utility.yul\":4461:4490   */\n      tag_125\n        /* \"#utility.yul\":4483:4489   */\n      dup2\n        /* \"#utility.yul\":4461:4490   */\n      tag_41\n      jump\t// in\n    tag_125:\n        /* \"#utility.yul\":4456:4459   */\n      dup5\n        /* \"#utility.yul\":4452:4491   */\n      add\n        /* \"#utility.yul\":4445:4491   */\n      swap2\n      pop\n        /* \"#utility.yul\":4212:4497   */\n      pop\n        /* \"#utility.yul\":4120:4497   */\n      swap3\n      swap2\n      pop\n      pop\n      jump\t// out\n        /* \"#utility.yul\":4503:4926   */\n    tag_13:\n        /* \"#utility.yul\":4644:4648   */\n      0x00\n        /* \"#utility.yul\":4682:4684   */\n      0x40\n        /* \"#utility.yul\":4671:4680   */\n      dup3\n        /* \"#utility.yul\":4667:4685   */\n      add\n        /* \"#utility.yul\":4659:4685   */\n      swap1\n      pop\n        /* \"#utility.yul\":4695:4766   */\n      tag_127\n        /* \"#utility.yul\":4763:4764   */\n      0x00\n        /* \"#utility.yul\":4752:4761   */\n      dup4\n        /* \"#utility.yul\":4748:4765   */\n      add\n        /* \"#utility.yul\":4739:4745   */\n      dup6\n        /* \"#utility.yul\":4695:4766   */\n      tag_52\n      jump\t// in\n    tag_127:\n        /* \"#utility.yul\":4813:4822   */\n      dup2\n        /* \"#utility.yul\":4807:4811   */\n      dup2\n        /* \"#utility.yul\":4803:4823   */\n      sub\n        /* \"#utility.yul\":4798:4800   */\n      0x20\n        /* \"#utility.yul\":4787:4796   */\n      dup4\n        /* \"#utility.yul\":4783:4801   */\n      add\n        /* \"#utility.yul\":4776:4824   */\n      mstore\n        /* \"#utility.yul\":4841:4919   */\n      tag_128\n        /* \"#utility.yul\":4914:4918   */\n      dup2\n        /* \"#utility.yul\":4905:4911   */\n      dup5\n        /* \"#utility.yul\":4841:4919   */\n      tag_56\n      jump\t// in\n    tag_128:\n        /* \"#utility.yul\":4833:4919   */\n      swap1\n      pop\n        /* \"#utility.yul\":4503:4926   */\n      swap4\n      swap3\n      pop\n      pop\n      pop\n      jump\t// out\n        /* \"#utility.yul\":4932:5261   */\n    tag_16:\n        /* \"#utility.yul\":4991:4997   */\n      0x00\n        /* \"#utility.yul\":5040:5042   */\n      0x20\n        /* \"#utility.yul\":5028:5037   */\n      dup3\n        /* \"#utility.yul\":5019:5026   */\n      dup5\n        /* \"#utility.yul\":5015:5038   */\n      sub\n        /* \"#utility.yul\":5011:5043   */\n      slt\n        /* \"#utility.yul\":5008:5127   */\n      iszero\n      tag_130\n      jumpi\n        /* \"#utility.yul\":5046:5125   */\n      tag_131\n      tag_37\n      jump\t// in\n    tag_131:\n        /* \"#utility.yul\":5008:5127   */\n    tag_130:\n        /* \"#utility.yul\":5166:5167   */\n      0x00\n        /* \"#utility.yul\":5191:5244   */\n      tag_132\n        /* \"#utility.yul\":5236:5243   */\n      dup5\n        /* \"#utility.yul\":5227:5233   */\n      dup3\n        /* \"#utility.yul\":5216:5225   */\n      dup6\n        /* \"#utility.yul\":5212:5234   */\n      add\n        /* \"#utility.yul\":5191:5244   */\n      tag_51\n      jump\t// in\n    tag_132:\n        /* \"#utility.yul\":5181:5244   */\n      swap2\n      pop\n        /* \"#utility.yul\":5137:5254   */\n      pop\n        /* \"#utility.yul\":4932:5261   */\n      swap3\n      swap2\n      pop\n      pop\n      jump\t// out\n        /* \"#utility.yul\":5267:5447   */\n    tag_57:\n        /* \"#utility.yul\":5315:5392   */\n      0x4e487b7100000000000000000000000000000000000000000000000000000000\n        /* \"#utility.yul\":5312:5313   */\n      0x00\n        /* \"#utility.yul\":5305:5393   */\n      mstore\n        /* \"#utility.yul\":5412:5416   */\n      0x22\n        /* \"#utility.yul\":5409:5410   */\n      0x04\n        /* \"#utility.yul\":5402:5417   */\n      mstore\n        /* \"#utility.yul\":5436:5440   */\n      0x24\n        /* \"#utility.yul\":5433:5434   */\n      0x00\n        /* \"#utility.yul\":5426:5441   */\n      revert\n        /* \"#utility.yul\":5453:5773   */\n    tag_24:\n        /* \"#utility.yul\":5497:5503   */\n      0x00\n        /* \"#utility.yul\":5534:5535   */\n      0x02\n        /* \"#utility.yul\":5528:5532   */\n      dup3\n        /* \"#utility.yul\":5524:5536   */\n      div\n        /* \"#utility.yul\":5514:5536   */\n      swap1\n      pop\n        /* \"#utility.yul\":5581:5582   */\n      0x01\n        /* \"#utility.yul\":5575:5579   */\n      dup3\n        /* \"#utility.yul\":5571:5583   */\n      and\n        /* \"#utility.yul\":5602:5620   */\n      dup1\n        /* \"#utility.yul\":5592:5673   */\n      tag_135\n      jumpi\n        /* \"#utility.yul\":5658:5662   */\n      0x7f\n        /* \"#utility.yul\":5650:5656   */\n      dup3\n        /* \"#utility.yul\":5646:5663   */\n      and\n        /* \"#utility.yul\":5636:5663   */\n      swap2\n      pop\n        /* \"#utility.yul\":5592:5673   */\n    tag_135:\n        /* \"#utility.yul\":5720:5722   */\n      0x20\n        /* \"#utility.yul\":5712:5718   */\n      dup3\n        /* \"#utility.yul\":5709:5723   */\n      lt\n        /* \"#utility.yul\":5689:5707   */\n      dup2\n        /* \"#utility.yul\":5686:5724   */\n      sub\n        /* \"#utility.yul\":5683:5767   */\n      tag_136\n      jumpi\n        /* \"#utility.yul\":5739:5757   */\n      tag_137\n      tag_57\n      jump\t// in\n    tag_137:\n        /* \"#utility.yul\":5683:5767   */\n    tag_136:\n        /* \"#utility.yul\":5504:5773   */\n      pop\n        /* \"#utility.yul\":5453:5773   */\n      swap2\n      swap1\n      pop\n      jump\t// out\n        /* \"#utility.yul\":5779:5920   */\n    tag_58:\n        /* \"#utility.yul\":5828:5832   */\n      0x00\n        /* \"#utility.yul\":5851:5854   */\n      dup2\n        /* \"#utility.yul\":5843:5854   */\n      swap1\n      pop\n        /* \"#utility.yul\":5874:5877   */\n      dup2\n        /* \"#utility.yul\":5871:5872   */\n      0x00\n        /* \"#utility.yul\":5864:5878   */\n      mstore\n        /* \"#utility.yul\":5908:5912   */\n      0x20\n        /* \"#utility.yul\":5905:5906   */\n      0x00\n        /* \"#utility.yul\":5895:5913   */\n      keccak256\n        /* \"#utility.yul\":5887:5913   */\n      swap1\n      pop\n        /* \"#utility.yul\":5779:5920   */\n      swap2\n      swap1\n      pop\n      jump\t// out\n        /* \"#utility.yul\":5926:6019   */\n    tag_59:\n        /* \"#utility.yul\":5963:5969   */\n      0x00\n        /* \"#utility.yul\":6010:6012   */\n      0x20\n        /* \"#utility.yul\":6005:6007   */\n      0x1f\n        /* \"#utility.yul\":5998:6003   */\n      dup4\n        /* \"#utility.yul\":5994:6008   */\n      add\n        /* \"#utility.yul\":5990:6013   */\n      div\n        /* \"#utility.yul\":5980:6013   */\n      swap1\n      pop\n        /* \"#utility.yul\":5926:6019   */\n      swap2\n      swap1\n      pop\n      jump\t// out\n        /* \"#utility.yul\":6025:6132   */\n    tag_60:\n        /* \"#utility.yul\":6069:6077   */\n      0x00\n        /* \"#utility.yul\":6119:6124   */\n      dup3\n        /* \"#utility.yul\":6113:6117   */\n      dup3\n        /* \"#utility.yul\":6109:6125   */\n      shl\n        /* \"#utility.yul\":6088:6125   */\n      swap1\n      pop\n        /* \"#utility.yul\":6025:6132   */\n      swap3\n      swap2\n      pop\n      pop\n      jump\t// out\n        /* \"#utility.yul\":6138:6531   */\n    tag_61:\n        /* \"#utility.yul\":6207:6213   */\n      0x00\n        /* \"#utility.yul\":6257:6258   */\n      0x08\n        /* \"#utility.yul\":6245:6255   */\n      dup4\n        /* \"#utility.yul\":6241:6259   */\n      mul\n        /* \"#utility.yul\":6280:6377   */\n      tag_142\n        /* \"#utility.yul\":6310:6376   */\n      0xffffffffffffffffffffffffffffffffffffffffffffffffffffffffffffffff\n        /* \"#utility.yul\":6299:6308   */\n      dup3\n        /* \"#utility.yul\":6280:6377   */\n      tag_60\n      jump\t// in\n    tag_142:\n        /* \"#utility.yul\":6398:6437   */\n      tag_143\n        /* \"#utility.yul\":6428:6436   */\n      dup7\n        /* \"#utility.yul\":6417:6426   */\n      dup4\n        /* \"#utility.yul\":6398:6437   */\n      tag_60\n      jump\t// in\n    tag_143:\n        /* \"#utility.yul\":6386:6437   */\n      swap6\n      pop\n        /* \"#utility.yul\":6470:6474   */\n      dup1\n        /* \"#utility.yul\":6466:6475   */\n      not\n        /* \"#utility.yul\":6459:6464   */\n      dup5\n        /* \"#utility.yul\":6455:6476   */\n      and\n        /* \"#utility.yul\":6446:6476   */\n      swap4\n      pop\n        /* \"#utility.yul\":6519:6523   */\n      dup1\n        /* \"#utility.yul\":6509:6517   */\n      dup7\n        /* \"#utility.yul\":6505:6524   */\n      and\n        /* \"#utility.yul\":6498:6503   */\n      dup5\n        /* \"#utility.yul\":6495:6525   */\n      or\n        /* \"#utility.yul\":6485:6525   */\n      swap3\n      pop\n        /* \"#utility.yul\":6214:6531   */\n      pop\n      pop\n        /* \"#utility.yul\":6138:6531   */\n      swap4\n      swap3\n      pop\n      pop\n      pop\n      jump\t// out\n        /* \"#utility.yul\":6537:6597   */\n    tag_62:\n        /* \"#utility.yul\":6565:6568   */\n      0x00\n        /* \"#utility.yul\":6586:6591   */\n      dup2\n        /* \"#utility.yul\":6579:6591   */\n      swap1\n      pop\n        /* \"#utility.yul\":6537:6597   */\n      swap2\n      swap1\n      pop\n      jump\t// out\n        /* \"#utility.yul\":6603:6745   */\n    tag_63:\n        /* \"#utility.yul\":6653:6662   */\n      0x00\n        /* \"#utility.yul\":6686:6739   */\n      tag_146\n        /* \"#utility.yul\":6704:6738   */\n      tag_147\n        /* \"#utility.yul\":6713:6737   */\n      tag_148\n        /* \"#utility.yul\":6731:6736   */\n      dup5\n        /* \"#utility.yul\":6713:6737   */\n      tag_49\n      jump\t// in\n    tag_148:\n        /* \"#utility.yul\":6704:6738   */\n      tag_62\n      jump\t// in\n    tag_147:\n        /* \"#utility.yul\":6686:6739   */\n      tag_49\n      jump\t// in\n    tag_146:\n        /* \"#utility.yul\":6673:6739   */\n      swap1\n      pop\n        /* \"#utility.yul\":6603:6745   */\n      swap2\n      swap1\n      pop\n      jump\t// out\n        /* \"#utility.yul\":6751:6826   */\n    tag_64:\n        /* \"#utility.yul\":6794:6797   */\n      0x00\n        /* \"#utility.yul\":6815:6820   */\n      dup2\n        /* \"#utility.yul\":6808:6820   */\n      swap1\n      pop\n        /* \"#utility.yul\":6751:6826   */\n      swap2\n      swap1\n      pop\n      jump\t// out\n        /* \"#utility.yul\":6832:7101   */\n    tag_65:\n        /* \"#utility.yul\":6942:6981   */\n      tag_151\n        /* \"#utility.yul\":6973:6980   */\n      dup4\n        /* \"#utility.yul\":6942:6981   */\n      tag_63\n      jump\t// in\n    tag_151:\n        /* \"#utility.yul\":7003:7094   */\n      tag_152\n        /* \"#utility.yul\":7052:7093   */\n      tag_153\n        /* \"#utility.yul\":7076:7092   */\n      dup3\n        /* \"#utility.yul\":7052:7093   */\n      tag_64\n      jump\t// in\n    tag_153:\n        /* \"#utility.yul\":7044:7050   */\n      dup5\n        /* \"#utility.yul\":7037:7041   */\n      dup5\n        /* \"#utility.yul\":7031:7042   */\n      sload\n        /* \"#utility.yul\":7003:7094   */\n      tag_61\n      jump\t// in\n    tag_152:\n        /* \"#utility.yul\":6997:7001   */\n      dup3\n        /* \"#utility.yul\":6990:7095   */\n      sstore\n        /* \"#utility.yul\":6908:7101   */\n      pop\n        /* \"#utility.yul\":6832:7101   */\n      pop\n      pop\n      pop\n      jump\t// out\n        /* \"#utility.yul\":7107:7180   */\n    tag_66:\n        /* \"#utility.yul\":7152:7155   */\n      0x00\n        /* \"#utility.yul\":7173:7174   */\n      0x00\n        /* \"#utility.yul\":7166:7174   */\n      swap1\n      pop\n        /* \"#utility.yul\":7107:7180   */\n      swap1\n      jump\t// out\n        /* \"#utility.yul\":7186:7375   */\n    tag_67:\n        /* \"#utility.yul\":7263:7295   */\n      tag_156\n      tag_66\n      jump\t// in\n    tag_156:\n        /* \"#utility.yul\":7304:7369   */\n      tag_157\n        /* \"#utility.yul\":7362:7368   */\n      dup2\n        /* \"#utility.yul\":7354:7360   */\n      dup5\n        /* \"#utility.yul\":7348:7352   */\n      dup5\n        /* \"#utility.yul\":7304:7369   */\n      tag_65\n      jump\t// in\n    tag_157:\n        /* \"#utility.yul\":7239:7375   */\n      pop\n        /* \"#utility.yul\":7186:7375   */\n      pop\n      pop\n      jump\t// out\n        /* \"#utility.yul\":7381:7567   */\n    tag_68:\n        /* \"#utility.yul\":7441:7561   */\n    tag_159:\n        /* \"#utility.yul\":7458:7461   */\n      dup2\n        /* \"#utility.yul\":7451:7456   */\n      dup2\n        /* \"#utility.yul\":7448:7462   */\n      lt\n        /* \"#utility.yul\":7441:7561   */\n      iszero\n      tag_161\n      jumpi\n        /* \"#utility.yul\":7512:7551   */\n      tag_162\n        /* \"#utility.yul\":7549:7550   */\n      0x00\n        /* \"#utility.yul\":7542:7547   */\n      dup3\n        /* \"#utility.yul\":7512:7551   */\n      tag_67\n      jump\t// in\n    tag_162:\n        /* \"#utility.yul\":7485:7486   */\n      0x01\n        /* \"#utility.yul\":7478:7483   */\n      dup2\n        /* \"#utility.yul\":7474:7487   */\n      add\n        /* \"#utility.yul\":7465:7487   */\n      swap1\n      pop\n        /* \"#utility.yul\":7441:7561   */\n      jump(tag_159)\n    tag_161:\n        /* \"#utility.yul\":7381:7567   */\n      pop\n      pop\n      jump\t// out\n        /* \"#utility.yul\":7573:8116   */\n    tag_69:\n        /* \"#utility.yul\":7674:7676   */\n      0x1f\n        /* \"#utility.yul\":7669:7672   */\n      dup3\n        /* \"#utility.yul\":7666:7677   */\n      gt\n        /* \"#utility.yul\":7663:8109   */\n      iszero\n      tag_164\n      jumpi\n        /* \"#utility.yul\":7708:7746   */\n      tag_165\n        /* \"#utility.yul\":7740:7745   */\n      dup2\n        /* \"#utility.yul\":7708:7746   */\n      tag_58\n      jump\t// in\n    tag_165:\n        /* \"#utility.yul\":7792:7821   */\n      tag_166\n        /* \"#utility.yul\":7810:7820   */\n      dup5\n        /* \"#utility.yul\":7792:7821   */\n      tag_59\n      jump\t// in\n    tag_166:\n        /* \"#utility.yul\":7782:7790   */\n      dup2\n        /* \"#utility.yul\":7778:7822   */\n      add\n        /* \"#utility.yul\":7975:7977   */\n      0x20\n        /* \"#utility.yul\":7963:7973   */\n      dup6\n        /* \"#utility.yul\":7960:7978   */\n      lt\n        /* \"#utility.yul\":7957:8006   */\n      iszero\n      tag_167\n      jumpi\n        /* \"#utility.yul\":7996:8004   */\n      dup2\n        /* \"#utility.yul\":7981:8004   */\n      swap1\n      pop\n        /* \"#utility.yul\":7957:8006   */\n    tag_167:\n        /* \"#utility.yul\":8019:8099   */\n      tag_168\n        /* \"#utility.yul\":8075:8097   */\n      tag_169\n        /* \"#utility.yul\":8093:8096   */\n      dup6\n        /* \"#utility.yul\":8075:8097   */\n      tag_59\n      jump\t// in\n    tag_169:\n        /* \"#utility.yul\":8065:8073   */\n      dup4\n        /* \"#utility.yul\":8061:8098   */\n      add\n        /* \"#utility.yul\":8048:8059   */\n      dup3\n        /* \"#utility.yul\":8019:8099   */\n      tag_68\n      jump\t// in\n    tag_168:\n        /* \"#utility.yul\":7678:8109   */\n      pop\n      pop\n        /* \"#utility.yul\":7663:8109   */\n    tag_164:\n        /* \"#utility.yul\":7573:8116   */\n      pop\n      pop\n      pop\n      jump\t// out\n        /* \"#utility.yul\":8122:8239   */\n    tag_70:\n        /* \"#utility.yul\":8176:8184   */\n      0x00\n        /* \"#utility.yul\":8226:8231   */\n      dup3\n        /* \"#utility.yul\":8220:8224   */\n      dup3\n        /* \"#utility.yul\":8216:8232   */\n      shr\n        /* \"#utility.yul\":8195:8232   */\n      swap1\n      pop\n        /* \"#utility.yul\":8122:8239   */\n      swap3\n      swap2\n      pop\n      pop\n      jump\t// out\n        /* \"#utility.yul\":8245:8414   */\n    tag_71:\n        /* \"#utility.yul\":8289:8295   */\n      0x00\n        /* \"#utility.yul\":8322:8373   */\n      tag_172\n        /* \"#utility.yul\":8370:8371   */\n      0x00\n        /* \"#utility.yul\":8366:8372   */\n      not\n        /* \"#utility.yul\":8358:8363   */\n      dup5\n        /* \"#utility.yul\":8355:8356   */\n      0x08\n        /* \"#utility.yul\":8351:8364   */\n      mul\n        /* \"#utility.yul\":8322:8373   */\n      tag_70\n      jump\t// in\n    tag_172:\n        /* \"#utility.yul\":8318:8374   */\n      not\n        /* \"#utility.yul\":8403:8407   */\n      dup1\n        /* \"#utility.yul\":8397:8401   */\n      dup4\n        /* \"#utility.yul\":8393:8408   */\n      and\n        /* \"#utility.yul\":8383:8408   */\n      swap2\n      pop\n        /* \"#utility.yul\":8296:8414   */\n      pop\n        /* \"#utility.yul\":8245:8414   */\n      swap3\n      swap2\n      pop\n      pop\n      jump\t// out\n        /* \"#utility.yul\":8419:8714   */\n    tag_72:\n        /* \"#utility.yul\":8495:8499   */\n      0x00\n        /* \"#utility.yul\":8641:8670   */\n      tag_174\n        /* \"#utility.yul\":8666:8669   */\n      dup4\n        /* \"#utility.yul\":8660:8664   */\n      dup4\n        /* \"#utility.yul\":8641:8670   */\n      tag_71\n      jump\t// in\n    tag_174:\n        /* \"#utility.yul\":8633:8670   */\n      swap2\n      pop\n        /* \"#utility.yul\":8703:8706   */\n      dup3\n        /* \"#utility.yul\":8700:8701   */\n      0x02\n        /* \"#utility.yul\":8696:8707   */\n      mul\n        /* \"#utility.yul\":8690:8694   */\n      dup3\n        /* \"#utility.yul\":8687:8708   */\n      or\n        /* \"#utility.yul\":8679:8708   */\n      swap1\n      pop\n        /* \"#utility.yul\":8419:8714   */\n      swap3\n      swap2\n      pop\n      pop\n      jump\t// out\n        /* \"#utility.yul\":8719:10114   */\n    tag_22:\n        /* \"#utility.yul\":8836:8873   */\n      tag_176\n        /* \"#utility.yul\":8869:8872   */\n      dup3\n        /* \"#utility.yul\":8836:8873   */\n      tag_53\n      jump\t// in\n    tag_176:\n        /* \"#utility.yul\":8938:8956   */\n      0xffffffffffffffff\n        /* \"#utility.yul\":8930:8936   */\n      dup2\n        /* \"#utility.yul\":8927:8957   */\n      gt\n        /* \"#utility.yul\":8924:8980   */\n      iszero\n      tag_177\n      jumpi\n        /* \"#utility.yul\":8960:8978   */\n      tag_178\n      tag_42\n      jump\t// in\n    tag_178:\n        /* \"#utility.yul\":8924:8980   */\n    tag_177:\n        /* \"#utility.yul\":9004:9042   */\n      tag_179\n        /* \"#utility.yul\":9036:9040   */\n      dup3\n        /* \"#utility.yul\":9030:9041   */\n      sload\n        /* \"#utility.yul\":9004:9042   */\n      tag_24\n      jump\t// in\n    tag_179:\n        /* \"#utility.yul\":9089:9156   */\n      tag_180\n        /* \"#utility.yul\":9149:9155   */\n      dup3\n        /* \"#utility.yul\":9141:9147   */\n      dup3\n        /* \"#utility.yul\":9135:9139   */\n      dup6\n        /* \"#utility.yul\":9089:9156   */\n      tag_69\n      jump\t// in\n    tag_180:\n        /* \"#utility.yul\":9183:9184   */\n      0x00\n        /* \"#utility.yul\":9207:9211   */\n      0x20\n        /* \"#utility.yul\":9194:9211   */\n      swap1\n      pop\n        /* \"#utility.yul\":9239:9241   */\n      0x1f\n        /* \"#utility.yul\":9231:9237   */\n      dup4\n        /* \"#utility.yul\":9228:9242   */\n      gt\n        /* \"#utility.yul\":9256:9257   */\n      0x01\n        /* \"#utility.yul\":9251:9869   */\n      dup2\n      eq\n      tag_182\n      jumpi\n        /* \"#utility.yul\":9913:9914   */\n      0x00\n        /* \"#utility.yul\":9930:9936   */\n      dup5\n        /* \"#utility.yul\":9927:10004   */\n      iszero\n      tag_183\n      jumpi\n        /* \"#utility.yul\":9979:9988   */\n      dup3\n        /* \"#utility.yul\":9974:9977   */\n      dup8\n        /* \"#utility.yul\":9970:9989   */\n      add\n        /* \"#utility.yul\":9964:9990   */\n      mload\n        /* \"#utility.yul\":9955:9990   */\n      swap1\n      pop\n        /* \"#utility.yul\":9927:10004   */\n    tag_183:\n        /* \"#utility.yul\":10030:10097   */\n      tag_184\n        /* \"#utility.yul\":10090:10096   */\n      dup6\n        /* \"#utility.yul\":10083:10088   */\n      dup3\n        /* \"#utility.yul\":10030:10097   */\n      tag_72\n      jump\t// in\n    tag_184:\n        /* \"#utility.yul\":10024:10028   */\n      dup7\n        /* \"#utility.yul\":10017:10098   */\n      sstore\n        /* \"#utility.yul\":9886:10108   */\n      pop\n        /* \"#utility.yul\":9221:10108   */\n      jump(tag_181)\n        /* \"#utility.yul\":9251:9869   */\n    tag_182:\n        /* \"#utility.yul\":9303:9307   */\n      0x1f\n        /* \"#utility.yul\":9299:9308   */\n      not\n        /* \"#utility.yul\":9291:9297   */\n      dup5\n        /* \"#utility.yul\":9287:9309   */\n      and\n        /* \"#utility.yul\":9337:9374   */\n      tag_185\n        /* \"#utility.yul\":9369:9373   */\n      dup7\n        /* \"#utility.yul\":9337:9374   */\n      tag_58\n      jump\t// in\n    tag_185:\n        /* \"#utility.yul\":9396:9397   */\n      0x00\n        /* \"#utility.yul\":9410:9618   */\n    tag_186:\n        /* \"#utility.yul\":9424:9431   */\n      dup3\n        /* \"#utility.yul\":9421:9422   */\n      dup2\n        /* \"#utility.yul\":9418:9432   */\n      lt\n        /* \"#utility.yul\":9410:9618   */\n      iszero\n      tag_188\n      jumpi\n        /* \"#utility.yul\":9503:9512   */\n      dup5\n        /* \"#utility.yul\":9498:9501   */\n      dup10\n        /* \"#utility.yul\":9494:9513   */\n      add\n        /* \"#utility.yul\":9488:9514   */\n      mload\n        /* \"#utility.yul\":9480:9486   */\n      dup3\n        /* \"#utility.yul\":9473:9515   */\n      sstore\n        /* \"#utility.yul\":9554:9555   */\n      0x01\n        /* \"#utility.yul\":9546:9552   */\n      dup3\n        /* \"#utility.yul\":9542:9556   */\n      add\n        /* \"#utility.yul\":9532:9556   */\n      swap2\n      pop\n        /* \"#utility.yul\":9601:9603   */\n      0x20\n        /* \"#utility.yul\":9590:9599   */\n      dup6\n        /* \"#utility.yul\":9586:9604   */\n      add\n        /* \"#utility.yul\":9573:9604   */\n      swap5\n      pop\n        /* \"#utility.yul\":9447:9451   */\n      0x20\n        /* \"#utility.yul\":9444:9445   */\n      dup2\n        /* \"#utility.yul\":9440:9452   */\n      add\n        /* \"#utility.yul\":9435:9452   */\n      swap1\n      pop\n        /* \"#utility.yul\":9410:9618   */\n      jump(tag_186)\n    tag_188:\n        /* \"#utility.yul\":9646:9652   */\n      dup7\n        /* \"#utility.yul\":9637:9644   */\n      dup4\n        /* \"#utility.yul\":9634:9653   */\n      lt\n        /* \"#utility.yul\":9631:9810   */\n      iszero\n      tag_189\n      jumpi\n        /* \"#utility.yul\":9704:9713   */\n      dup5\n        /* \"#utility.yul\":9699:9702   */\n      dup10\n        /* \"#utility.yul\":9695:9714   */\n      add\n        /* \"#utility.yul\":9689:9715   */\n      mload\n        /* \"#utility.yul\":9747:9795   */\n      tag_190\n        /* \"#utility.yul\":9789:9793   */\n      0x1f\n        /* \"#utility.yul\":9781:9787   */\n      dup10\n        /* \"#utility.yul\":9777:9794   */\n      and\n        /* \"#utility.yul\":9766:9775   */\n      dup3\n        /* \"#utility.yul\":9747:9795   */\n      tag_71\n      jump\t// in\n    tag_190:\n        /* \"#utility.yul\":9739:9745   */\n      dup4\n        /* \"#utility.yul\":9732:9796   */\n      sstore\n        /* \"#utility.yul\":9654:9810   */\n      pop\n        /* \"#utility.yul\":9631:9810   */\n    tag_189:\n        /* \"#utility.yul\":9856:9857   */\n      0x01\n        /* \"#utility.yul\":9852:9853   */\n      0x02\n        /* \"#utility.yul\":9844:9850   */\n      dup9\n        /* \"#utility.yul\":9840:9854   */\n      mul\n        /* \"#utility.yul\":9836:9858   */\n      add\n        /* \"#utility.yul\":9830:9834   */\n      dup9\n        /* \"#utility.yul\":9823:9859   */\n      sstore\n        /* \"#utility.yul\":9258:9869   */\n      pop\n      pop\n      pop\n        /* \"#utility.yul\":9221:10108   */\n    tag_181:\n      pop\n        /* \"#utility.yul\":8811:10114   */\n      pop\n      pop\n      pop\n        /* \"#utility.yul\":8719:10114   */\n      pop\n      pop\n      jump\t// out\n\n    auxdata: 0xa2646970667358221220e521a4cd53f150aa81f4788b50a30aa73e1680c2f08de16a63205b8617487b7164736f6c634300081e0033\n}\n",
				"bytecode": {
					"linkReferences": {},
					"object": "60806040526040518060400160405280600281526020016040518060400160405280600781526020017f70726164656570000000000000000000000000000000000000000000000000008152508152505f5f820151815f0155602082015181600101908161006d91906102be565b50505034801561007b575f5ffd5b5061038d565b5f81519050919050565b7f4e487b71000000000000000000000000000000000000000000000000000000005f52604160045260245ffd5b7f4e487b71000000000000000000000000000000000000000000000000000000005f52602260045260245ffd5b5f60028204905060018216806100fc57607f821691505b60208210810361010f5761010e6100b8565b5b50919050565b5f819050815f5260205f209050919050565b5f6020601f8301049050919050565b5f82821b905092915050565b5f600883026101717fffffffffffffffffffffffffffffffffffffffffffffffffffffffffffffffff82610136565b61017b8683610136565b95508019841693508086168417925050509392505050565b5f819050919050565b5f819050919050565b5f6101bf6101ba6101b584610193565b61019c565b610193565b9050919050565b5f819050919050565b6101d8836101a5565b6101ec6101e4826101c6565b848454610142565b825550505050565b5f5f905090565b6102036101f4565b61020e8184846101cf565b505050565b5b81811015610231576102265f826101fb565b600181019050610214565b5050565b601f8211156102765761024781610115565b61025084610127565b8101602085101561025f578190505b61027361026b85610127565b830182610213565b50505b505050565b5f82821c905092915050565b5f6102965f198460080261027b565b1980831691505092915050565b5f6102ae8383610287565b9150826002028217905092915050565b6102c782610081565b67ffffffffffffffff8111156102e0576102df61008b565b5b6102ea82546100e5565b6102f5828285610235565b5f60209050601f831160018114610326575f8415610314578287015190505b61031e85826102a3565b865550610385565b601f19841661033486610115565b5f5b8281101561035b57848901518255600182019150602085019450602081019050610336565b868310156103785784890151610374601f891682610287565b8355505b6001600288020188555050505b505050505050565b6108048061039a5f395ff3fe608060405234801561000f575f5ffd5b506004361061003f575f3560e01c80636f760f411461004357806377ec2b551461005f5780639e7a13ad1461007e575b5f5ffd5b61005d600480360381019061005891906103e0565b6100af565b005b610067610115565b6040516100759291906104a9565b60405180910390f35b610098600480360381019061009391906104d7565b6101ab565b6040516100a69291906104a9565b60405180910390f35b5f6040518060400160405280838152602001848152509050600281908060018154018082558091505060019003905f5260205f2090600202015f909190919091505f820151815f0155602082015181600101908161010d91906106ff565b505050505050565b5f805f01549080600101805461012a9061052f565b80601f01602080910402602001604051908101604052809291908181526020018280546101569061052f565b80156101a15780601f10610178576101008083540402835291602001916101a1565b820191905f5260205f20905b81548152906001019060200180831161018457829003601f168201915b5050505050905082565b600281815481106101ba575f80fd5b905f5260205f2090600202015f91509050805f0154908060010180546101df9061052f565b80601f016020809104026020016040519081016040528092919081815260200182805461020b9061052f565b80156102565780601f1061022d57610100808354040283529160200191610256565b820191905f5260205f20905b81548152906001019060200180831161023957829003601f168201915b5050505050905082565b5f604051905090565b5f5ffd5b5f5ffd5b5f5ffd5b5f5ffd5b5f601f19601f8301169050919050565b7f4e487b71000000000000000000000000000000000000000000000000000000005f52604160045260245ffd5b6102bf82610279565b810181811067ffffffffffffffff821117156102de576102dd610289565b5b80604052505050565b5f6102f0610260565b90506102fc82826102b6565b919050565b5f67ffffffffffffffff82111561031b5761031a610289565b5b61032482610279565b9050602081019050919050565b828183375f83830152505050565b5f61035161034c84610301565b6102e7565b90508281526020810184848401111561036d5761036c610275565b5b610378848285610331565b509392505050565b5f82601f83011261039457610393610271565b5b81356103a484826020860161033f565b91505092915050565b5f819050919050565b6103bf816103ad565b81146103c9575f5ffd5b50565b5f813590506103da816103b6565b92915050565b5f5f604083850312156103f6576103f5610269565b5b5f83013567ffffffffffffffff8111156104135761041261026d565b5b61041f85828601610380565b9250506020610430858286016103cc565b9150509250929050565b610443816103ad565b82525050565b5f81519050919050565b5f82825260208201905092915050565b8281835e5f83830152505050565b5f61047b82610449565b6104858185610453565b9350610495818560208601610463565b61049e81610279565b840191505092915050565b5f6040820190506104bc5f83018561043a565b81810360208301526104ce8184610471565b90509392505050565b5f602082840312156104ec576104eb610269565b5b5f6104f9848285016103cc565b91505092915050565b7f4e487b71000000000000000000000000000000000000000000000000000000005f52602260045260245ffd5b5f600282049050600182168061054657607f821691505b60208210810361055957610558610502565b5b50919050565b5f819050815f5260205f209050919050565b5f6020601f8301049050919050565b5f82821b905092915050565b5f600883026105bb7fffffffffffffffffffffffffffffffffffffffffffffffffffffffffffffffff82610580565b6105c58683610580565b95508019841693508086168417925050509392505050565b5f819050919050565b5f6106006105fb6105f6846103ad565b6105dd565b6103ad565b9050919050565b5f819050919050565b610619836105e6565b61062d61062582610607565b84845461058c565b825550505050565b5f5f905090565b610644610635565b61064f818484610610565b505050565b5b81811015610672576106675f8261063c565b600181019050610655565b5050565b601f8211156106b7576106888161055f565b61069184610571565b810160208510156106a0578190505b6106b46106ac85610571565b830182610654565b50505b505050565b5f82821c905092915050565b5f6106d75f19846008026106bc565b1980831691505092915050565b5f6106ef83836106c8565b9150826002028217905092915050565b61070882610449565b67ffffffffffffffff81111561072157610720610289565b5b61072b825461052f565b610736828285610676565b5f60209050601f831160018114610767575f8415610755578287015190505b61075f85826106e4565b8655506107c6565b601f1984166107758661055f565b5f5b8281101561079c57848901518255600182019150602085019450602081019050610777565b868310156107b957848901516107b5601f8916826106c8565b8355505b6001600288020188555050505b50505050505056fea2646970667358221220e521a4cd53f150aa81f4788b50a30aa73e1680c2f08de16a63205b8617487b7164736f6c634300081e0033",
					"opcodes": "PUSH1 0x80 PUSH1 0x40 MSTORE PUSH1 0x40 MLOAD DUP1 PUSH1 0x40 ADD PUSH1 0x40 MSTORE DUP1 PUSH1 0x2 DUP2 MSTORE PUSH1 0x20 ADD PUSH1 0x40 MLOAD DUP1 PUSH1 0x40 ADD PUSH1 0x40 MSTORE DUP1 PUSH1 0x7 DUP2 MSTORE PUSH1 0x20 ADD PUSH32 0x7072616465657000000000000000000000000000000000000000000000000000 DUP2 MSTORE POP DUP2 MSTORE POP PUSH0 PUSH0 DUP3 ADD MLOAD DUP2 PUSH0 ADD SSTORE PUSH1 0x20 DUP3 ADD MLOAD DUP2 PUSH1 0x1 ADD SWAP1 DUP2 PUSH2 0x6D SWAP2 SWAP1 PUSH2 0x2BE JUMP JUMPDEST POP POP POP CALLVALUE DUP1 ISZERO PUSH2 0x7B JUMPI PUSH0 PUSH0 REVERT JUMPDEST POP PUSH2 0x38D JUMP JUMPDEST PUSH0 DUP2 MLOAD SWAP1 POP SWAP2 SWAP1 POP JUMP JUMPDEST PUSH32 0x4E487B7100000000000000000000000000000000000000000000000000000000 PUSH0 MSTORE PUSH1 0x41 PUSH1 0x4 MSTORE PUSH1 0x24 PUSH0 REVERT JUMPDEST PUSH32 0x4E487B7100000000000000000000000000000000000000000000000000000000 PUSH0 MSTORE PUSH1 0x22 PUSH1 0x4 MSTORE PUSH1 0x24 PUSH0 REVERT JUMPDEST PUSH0 PUSH1 0x2 DUP3 DIV SWAP1 POP PUSH1 0x1 DUP3 AND DUP1 PUSH2 0xFC JUMPI PUSH1 0x7F DUP3 AND SWAP2 POP JUMPDEST PUSH1 0x20 DUP3 LT DUP2 SUB PUSH2 0x10F JUMPI PUSH2 0x10E PUSH2 0xB8 JUMP JUMPDEST JUMPDEST POP SWAP2 SWAP1 POP JUMP JUMPDEST PUSH0 DUP2 SWAP1 POP DUP2 PUSH0 MSTORE PUSH1 0x20 PUSH0 KECCAK256 SWAP1 POP SWAP2 SWAP1 POP JUMP JUMPDEST PUSH0 PUSH1 0x20 PUSH1 0x1F DUP4 ADD DIV SWAP1 POP SWAP2 SWAP1 POP JUMP JUMPDEST PUSH0 DUP3 DUP3 SHL SWAP1 POP SWAP3 SWAP2 POP POP JUMP JUMPDEST PUSH0 PUSH1 0x8 DUP4 MUL PUSH2 0x171 PUSH32 0xFFFFFFFFFFFFFFFFFFFFFFFFFFFFFFFFFFFFFFFFFFFFFFFFFFFFFFFFFFFFFFFF DUP3 PUSH2 0x136 JUMP JUMPDEST PUSH2 0x17B DUP7 DUP4 PUSH2 0x136 JUMP JUMPDEST SWAP6 POP DUP1 NOT DUP5 AND SWAP4 POP DUP1 DUP7 AND DUP5 OR SWAP3 POP POP POP SWAP4 SWAP3 POP POP POP JUMP JUMPDEST PUSH0 DUP2 SWAP1 POP SWAP2 SWAP1 POP JUMP JUMPDEST PUSH0 DUP2 SWAP1 POP SWAP2 SWAP1 POP JUMP JUMPDEST PUSH0 PUSH2 0x1BF PUSH2 0x1BA PUSH2 0x1B5 DUP5 PUSH2 0x193 JUMP JUMPDEST PUSH2 0x19C JUMP JUMPDEST PUSH2 0x193 JUMP JUMPDEST SWAP1 POP SWAP2 SWAP1 POP JUMP JUMPDEST PUSH0 DUP2 SWAP1 POP SWAP2 SWAP1 POP JUMP JUMPDEST PUSH2 0x1D8 DUP4 PUSH2 0x1A5 JUMP JUMPDEST PUSH2 0x1EC PUSH2 0x1E4 DUP3 PUSH2 0x1C6 JUMP JUMPDEST DUP5 DUP5 SLOAD PUSH2 0x142 JUMP JUMPDEST DUP3 SSTORE POP POP POP POP JUMP JUMPDEST PUSH0 PUSH0 SWAP1 POP SWAP1 JUMP JUMPDEST PUSH2 0x203 PUSH2 0x1F4 JUMP JUMPDEST PUSH2 0x20E DUP2 DUP5 DUP5 PUSH2 0x1CF JUMP JUMPDEST POP POP POP JUMP JUMPDEST JUMPDEST DUP2 DUP2 LT ISZERO PUSH2 0x231 JUMPI PUSH2 0x226 PUSH0 DUP3 PUSH2 0x1FB JUMP JUMPDEST PUSH1 0x1 DUP2 ADD SWAP1 POP PUSH2 0x214 JUMP JUMPDEST POP POP JUMP JUMPDEST PUSH1 0x1F DUP3 GT ISZERO PUSH2 0x276 JUMPI PUSH2 0x247 DUP2 PUSH2 0x115 JUMP JUMPDEST PUSH2 0x250 DUP5 PUSH2 0x127 JUMP JUMPDEST DUP2 ADD PUSH1 0x20 DUP6 LT ISZERO PUSH2 0x25F JUMPI DUP2 SWAP1 POP JUMPDEST PUSH2 0x273 PUSH2 0x26B DUP6 PUSH2 0x127 JUMP JUMPDEST DUP4 ADD DUP3 PUSH2 0x213 JUMP JUMPDEST POP POP JUMPDEST POP POP POP JUMP JUMPDEST PUSH0 DUP3 DUP3 SHR SWAP1 POP SWAP3 SWAP2 POP POP JUMP JUMPDEST PUSH0 PUSH2 0x296 PUSH0 NOT DUP5 PUSH1 0x8 MUL PUSH2 0x27B JUMP JUMPDEST NOT DUP1 DUP4 AND SWAP2 POP POP SWAP3 SWAP2 POP POP JUMP JUMPDEST PUSH0 PUSH2 0x2AE DUP4 DUP4 PUSH2 0x287 JUMP JUMPDEST SWAP2 POP DUP3 PUSH1 0x2 MUL DUP3 OR SWAP1 POP SWAP3 SWAP2 POP POP JUMP JUMPDEST PUSH2 0x2C7 DUP3 PUSH2 0x81 JUMP JUMPDEST PUSH8 0xFFFFFFFFFFFFFFFF DUP2 GT ISZERO PUSH2 0x2E0 JUMPI PUSH2 0x2DF PUSH2 0x8B JUMP JUMPDEST JUMPDEST PUSH2 0x2EA DUP3 SLOAD PUSH2 0xE5 JUMP JUMPDEST PUSH2 0x2F5 DUP3 DUP3 DUP6 PUSH2 0x235 JUMP JUMPDEST PUSH0 PUSH1 0x20 SWAP1 POP PUSH1 0x1F DUP4 GT PUSH1 0x1 DUP2 EQ PUSH2 0x326 JUMPI PUSH0 DUP5 ISZERO PUSH2 0x314 JUMPI DUP3 DUP8 ADD MLOAD SWAP1 POP JUMPDEST PUSH2 0x31E DUP6 DUP3 PUSH2 0x2A3 JUMP JUMPDEST DUP7 SSTORE POP PUSH2 0x385 JUMP JUMPDEST PUSH1 0x1F NOT DUP5 AND PUSH2 0x334 DUP7 PUSH2 0x115 JUMP JUMPDEST PUSH0 JUMPDEST DUP3 DUP2 LT ISZERO PUSH2 0x35B JUMPI DUP5 DUP10 ADD MLOAD DUP3 SSTORE PUSH1 0x1 DUP3 ADD SWAP2 POP PUSH1 0x20 DUP6 ADD SWAP5 POP PUSH1 0x20 DUP2 ADD SWAP1 POP PUSH2 0x336 JUMP JUMPDEST DUP7 DUP4 LT ISZERO PUSH2 0x378 JUMPI DUP5 DUP10 ADD MLOAD PUSH2 0x374 PUSH1 0x1F DUP10 AND DUP3 PUSH2 0x287 JUMP JUMPDEST DUP4 SSTORE POP JUMPDEST PUSH1 0x1 PUSH1 0x2 DUP9 MUL ADD DUP9 SSTORE POP POP POP JUMPDEST POP POP POP POP POP POP JUMP JUMPDEST PUSH2 0x804 DUP1 PUSH2 0x39A PUSH0 CODECOPY PUSH0 RETURN INVALID PUSH1 0x80 PUSH1 0x40 MSTORE CALLVALUE DUP1 ISZERO PUSH2 0xF JUMPI PUSH0 PUSH0 REVERT JUMPDEST POP PUSH1 0x4 CALLDATASIZE LT PUSH2 0x3F JUMPI PUSH0 CALLDATALOAD PUSH1 0xE0 SHR DUP1 PUSH4 0x6F760F41 EQ PUSH2 0x43 JUMPI DUP1 PUSH4 0x77EC2B55 EQ PUSH2 0x5F JUMPI DUP1 PUSH4 0x9E7A13AD EQ PUSH2 0x7E JUMPI JUMPDEST PUSH0 PUSH0 REVERT JUMPDEST PUSH2 0x5D PUSH1 0x4 DUP1 CALLDATASIZE SUB DUP2 ADD SWAP1 PUSH2 0x58 SWAP2 SWAP1 PUSH2 0x3E0 JUMP JUMPDEST PUSH2 0xAF JUMP JUMPDEST STOP JUMPDEST PUSH2 0x67 PUSH2 0x115 JUMP JUMPDEST PUSH1 0x40 MLOAD PUSH2 0x75 SWAP3 SWAP2 SWAP1 PUSH2 0x4A9 JUMP JUMPDEST PUSH1 0x40 MLOAD DUP1 SWAP2 SUB SWAP1 RETURN JUMPDEST PUSH2 0x98 PUSH1 0x4 DUP1 CALLDATASIZE SUB DUP2 ADD SWAP1 PUSH2 0x93 SWAP2 SWAP1 PUSH2 0x4D7 JUMP JUMPDEST PUSH2 0x1AB JUMP JUMPDEST PUSH1 0x40 MLOAD PUSH2 0xA6 SWAP3 SWAP2 SWAP1 PUSH2 0x4A9 JUMP JUMPDEST PUSH1 0x40 MLOAD DUP1 SWAP2 SUB SWAP1 RETURN JUMPDEST PUSH0 PUSH1 0x40 MLOAD DUP1 PUSH1 0x40 ADD PUSH1 0x40 MSTORE DUP1 DUP4 DUP2 MSTORE PUSH1 0x20 ADD DUP5 DUP2 MSTORE POP SWAP1 POP PUSH1 0x2 DUP2 SWAP1 DUP1 PUSH1 0x1 DUP2 SLOAD ADD DUP1 DUP3 SSTORE DUP1 SWAP2 POP POP PUSH1 0x1 SWAP1 SUB SWAP1 PUSH0 MSTORE PUSH1 0x20 PUSH0 KECCAK256 SWAP1 PUSH1 0x2 MUL ADD PUSH0 SWAP1 SWAP2 SWAP1 SWAP2 SWAP1 SWAP2 POP PUSH0 DUP3 ADD MLOAD DUP2 PUSH0 ADD SSTORE PUSH1 0x20 DUP3 ADD MLOAD DUP2 PUSH1 0x1 ADD SWAP1 DUP2 PUSH2 0x10D SWAP2 SWAP1 PUSH2 0x6FF JUMP JUMPDEST POP POP POP POP POP POP JUMP JUMPDEST PUSH0 DUP1 PUSH0 ADD SLOAD SWAP1 DUP1 PUSH1 0x1 ADD DUP1 SLOAD PUSH2 0x12A SWAP1 PUSH2 0x52F JUMP JUMPDEST DUP1 PUSH1 0x1F ADD PUSH1 0x20 DUP1 SWAP2 DIV MUL PUSH1 0x20 ADD PUSH1 0x40 MLOAD SWAP1 DUP2 ADD PUSH1 0x40 MSTORE DUP1 SWAP3 SWAP2 SWAP1 DUP2 DUP2 MSTORE PUSH1 0x20 ADD DUP3 DUP1 SLOAD PUSH2 0x156 SWAP1 PUSH2 0x52F JUMP JUMPDEST DUP1 ISZERO PUSH2 0x1A1 JUMPI DUP1 PUSH1 0x1F LT PUSH2 0x178 JUMPI PUSH2 0x100 DUP1 DUP4 SLOAD DIV MUL DUP4 MSTORE SWAP2 PUSH1 0x20 ADD SWAP2 PUSH2 0x1A1 JUMP JUMPDEST DUP3 ADD SWAP2 SWAP1 PUSH0 MSTORE PUSH1 0x20 PUSH0 KECCAK256 SWAP1 JUMPDEST DUP2 SLOAD DUP2 MSTORE SWAP1 PUSH1 0x1 ADD SWAP1 PUSH1 0x20 ADD DUP1 DUP4 GT PUSH2 0x184 JUMPI DUP3 SWAP1 SUB PUSH1 0x1F AND DUP3 ADD SWAP2 JUMPDEST POP POP POP POP POP SWAP1 POP DUP3 JUMP JUMPDEST PUSH1 0x2 DUP2 DUP2 SLOAD DUP2 LT PUSH2 0x1BA JUMPI PUSH0 DUP1 REVERT JUMPDEST SWAP1 PUSH0 MSTORE PUSH1 0x20 PUSH0 KECCAK256 SWAP1 PUSH1 0x2 MUL ADD PUSH0 SWAP2 POP SWAP1 POP DUP1 PUSH0 ADD SLOAD SWAP1 DUP1 PUSH1 0x1 ADD DUP1 SLOAD PUSH2 0x1DF SWAP1 PUSH2 0x52F JUMP JUMPDEST DUP1 PUSH1 0x1F ADD PUSH1 0x20 DUP1 SWAP2 DIV MUL PUSH1 0x20 ADD PUSH1 0x40 MLOAD SWAP1 DUP2 ADD PUSH1 0x40 MSTORE DUP1 SWAP3 SWAP2 SWAP1 DUP2 DUP2 MSTORE PUSH1 0x20 ADD DUP3 DUP1 SLOAD PUSH2 0x20B SWAP1 PUSH2 0x52F JUMP JUMPDEST DUP1 ISZERO PUSH2 0x256 JUMPI DUP1 PUSH1 0x1F LT PUSH2 0x22D JUMPI PUSH2 0x100 DUP1 DUP4 SLOAD DIV MUL DUP4 MSTORE SWAP2 PUSH1 0x20 ADD SWAP2 PUSH2 0x256 JUMP JUMPDEST DUP3 ADD SWAP2 SWAP1 PUSH0 MSTORE PUSH1 0x20 PUSH0 KECCAK256 SWAP1 JUMPDEST DUP2 SLOAD DUP2 MSTORE SWAP1 PUSH1 0x1 ADD SWAP1 PUSH1 0x20 ADD DUP1 DUP4 GT PUSH2 0x239 JUMPI DUP3 SWAP1 SUB PUSH1 0x1F AND DUP3 ADD SWAP2 JUMPDEST POP POP POP POP POP SWAP1 POP DUP3 JUMP JUMPDEST PUSH0 PUSH1 0x40 MLOAD SWAP1 POP SWAP1 JUMP JUMPDEST PUSH0 PUSH0 REVERT JUMPDEST PUSH0 PUSH0 REVERT JUMPDEST PUSH0 PUSH0 REVERT JUMPDEST PUSH0 PUSH0 REVERT JUMPDEST PUSH0 PUSH1 0x1F NOT PUSH1 0x1F DUP4 ADD AND SWAP1 POP SWAP2 SWAP1 POP JUMP JUMPDEST PUSH32 0x4E487B7100000000000000000000000000000000000000000000000000000000 PUSH0 MSTORE PUSH1 0x41 PUSH1 0x4 MSTORE PUSH1 0x24 PUSH0 REVERT JUMPDEST PUSH2 0x2BF DUP3 PUSH2 0x279 JUMP JUMPDEST DUP2 ADD DUP2 DUP2 LT PUSH8 0xFFFFFFFFFFFFFFFF DUP3 GT OR ISZERO PUSH2 0x2DE JUMPI PUSH2 0x2DD PUSH2 0x289 JUMP JUMPDEST JUMPDEST DUP1 PUSH1 0x40 MSTORE POP POP POP JUMP JUMPDEST PUSH0 PUSH2 0x2F0 PUSH2 0x260 JUMP JUMPDEST SWAP1 POP PUSH2 0x2FC DUP3 DUP3 PUSH2 0x2B6 JUMP JUMPDEST SWAP2 SWAP1 POP JUMP JUMPDEST PUSH0 PUSH8 0xFFFFFFFFFFFFFFFF DUP3 GT ISZERO PUSH2 0x31B JUMPI PUSH2 0x31A PUSH2 0x289 JUMP JUMPDEST JUMPDEST PUSH2 0x324 DUP3 PUSH2 0x279 JUMP JUMPDEST SWAP1 POP PUSH1 0x20 DUP2 ADD SWAP1 POP SWAP2 SWAP1 POP JUMP JUMPDEST DUP3 DUP2 DUP4 CALLDATACOPY PUSH0 DUP4 DUP4 ADD MSTORE POP POP POP JUMP JUMPDEST PUSH0 PUSH2 0x351 PUSH2 0x34C DUP5 PUSH2 0x301 JUMP JUMPDEST PUSH2 0x2E7 JUMP JUMPDEST SWAP1 POP DUP3 DUP2 MSTORE PUSH1 0x20 DUP2 ADD DUP5 DUP5 DUP5 ADD GT ISZERO PUSH2 0x36D JUMPI PUSH2 0x36C PUSH2 0x275 JUMP JUMPDEST JUMPDEST PUSH2 0x378 DUP5 DUP3 DUP6 PUSH2 0x331 JUMP JUMPDEST POP SWAP4 SWAP3 POP POP POP JUMP JUMPDEST PUSH0 DUP3 PUSH1 0x1F DUP4 ADD SLT PUSH2 0x394 JUMPI PUSH2 0x393 PUSH2 0x271 JUMP JUMPDEST JUMPDEST DUP2 CALLDATALOAD PUSH2 0x3A4 DUP5 DUP3 PUSH1 0x20 DUP7 ADD PUSH2 0x33F JUMP JUMPDEST SWAP2 POP POP SWAP3 SWAP2 POP POP JUMP JUMPDEST PUSH0 DUP2 SWAP1 POP SWAP2 SWAP1 POP JUMP JUMPDEST PUSH2 0x3BF DUP2 PUSH2 0x3AD JUMP JUMPDEST DUP2 EQ PUSH2 0x3C9 JUMPI PUSH0 PUSH0 REVERT JUMPDEST POP JUMP JUMPDEST PUSH0 DUP2 CALLDATALOAD SWAP1 POP PUSH2 0x3DA DUP2 PUSH2 0x3B6 JUMP JUMPDEST SWAP3 SWAP2 POP POP JUMP JUMPDEST PUSH0 PUSH0 PUSH1 0x40 DUP4 DUP6 SUB SLT ISZERO PUSH2 0x3F6 JUMPI PUSH2 0x3F5 PUSH2 0x269 JUMP JUMPDEST JUMPDEST PUSH0 DUP4 ADD CALLDATALOAD PUSH8 0xFFFFFFFFFFFFFFFF DUP2 GT ISZERO PUSH2 0x413 JUMPI PUSH2 0x412 PUSH2 0x26D JUMP JUMPDEST JUMPDEST PUSH2 0x41F DUP6 DUP3 DUP7 ADD PUSH2 0x380 JUMP JUMPDEST SWAP3 POP POP PUSH1 0x20 PUSH2 0x430 DUP6 DUP3 DUP7 ADD PUSH2 0x3CC JUMP JUMPDEST SWAP2 POP POP SWAP3 POP SWAP3 SWAP1 POP JUMP JUMPDEST PUSH2 0x443 DUP2 PUSH2 0x3AD JUMP JUMPDEST DUP3 MSTORE POP POP JUMP JUMPDEST PUSH0 DUP2 MLOAD SWAP1 POP SWAP2 SWAP1 POP JUMP JUMPDEST PUSH0 DUP3 DUP3 MSTORE PUSH1 0x20 DUP3 ADD SWAP1 POP SWAP3 SWAP2 POP POP JUMP JUMPDEST DUP3 DUP2 DUP4 MCOPY PUSH0 DUP4 DUP4 ADD MSTORE POP POP POP JUMP JUMPDEST PUSH0 PUSH2 0x47B DUP3 PUSH2 0x449 JUMP JUMPDEST PUSH2 0x485 DUP2 DUP6 PUSH2 0x453 JUMP JUMPDEST SWAP4 POP PUSH2 0x495 DUP2 DUP6 PUSH1 0x20 DUP7 ADD PUSH2 0x463 JUMP JUMPDEST PUSH2 0x49E DUP2 PUSH2 0x279 JUMP JUMPDEST DUP5 ADD SWAP2 POP POP SWAP3 SWAP2 POP POP JUMP JUMPDEST PUSH0 PUSH1 0x40 DUP3 ADD SWAP1 POP PUSH2 0x4BC PUSH0 DUP4 ADD DUP6 PUSH2 0x43A JUMP JUMPDEST DUP2 DUP2 SUB PUSH1 0x20 DUP4 ADD MSTORE PUSH2 0x4CE DUP2 DUP5 PUSH2 0x471 JUMP JUMPDEST SWAP1 POP SWAP4 SWAP3 POP POP POP JUMP JUMPDEST PUSH0 PUSH1 0x20 DUP3 DUP5 SUB SLT ISZERO PUSH2 0x4EC JUMPI PUSH2 0x4EB PUSH2 0x269 JUMP JUMPDEST JUMPDEST PUSH0 PUSH2 0x4F9 DUP5 DUP3 DUP6 ADD PUSH2 0x3CC JUMP JUMPDEST SWAP2 POP POP SWAP3 SWAP2 POP POP JUMP JUMPDEST PUSH32 0x4E487B7100000000000000000000000000000000000000000000000000000000 PUSH0 MSTORE PUSH1 0x22 PUSH1 0x4 MSTORE PUSH1 0x24 PUSH0 REVERT JUMPDEST PUSH0 PUSH1 0x2 DUP3 DIV SWAP1 POP PUSH1 0x1 DUP3 AND DUP1 PUSH2 0x546 JUMPI PUSH1 0x7F DUP3 AND SWAP2 POP JUMPDEST PUSH1 0x20 DUP3 LT DUP2 SUB PUSH2 0x559 JUMPI PUSH2 0x558 PUSH2 0x502 JUMP JUMPDEST JUMPDEST POP SWAP2 SWAP1 POP JUMP JUMPDEST PUSH0 DUP2 SWAP1 POP DUP2 PUSH0 MSTORE PUSH1 0x20 PUSH0 KECCAK256 SWAP1 POP SWAP2 SWAP1 POP JUMP JUMPDEST PUSH0 PUSH1 0x20 PUSH1 0x1F DUP4 ADD DIV SWAP1 POP SWAP2 SWAP1 POP JUMP JUMPDEST PUSH0 DUP3 DUP3 SHL SWAP1 POP SWAP3 SWAP2 POP POP JUMP JUMPDEST PUSH0 PUSH1 0x8 DUP4 MUL PUSH2 0x5BB PUSH32 0xFFFFFFFFFFFFFFFFFFFFFFFFFFFFFFFFFFFFFFFFFFFFFFFFFFFFFFFFFFFFFFFF DUP3 PUSH2 0x580 JUMP JUMPDEST PUSH2 0x5C5 DUP7 DUP4 PUSH2 0x580 JUMP JUMPDEST SWAP6 POP DUP1 NOT DUP5 AND SWAP4 POP DUP1 DUP7 AND DUP5 OR SWAP3 POP POP POP SWAP4 SWAP3 POP POP POP JUMP JUMPDEST PUSH0 DUP2 SWAP1 POP SWAP2 SWAP1 POP JUMP JUMPDEST PUSH0 PUSH2 0x600 PUSH2 0x5FB PUSH2 0x5F6 DUP5 PUSH2 0x3AD JUMP JUMPDEST PUSH2 0x5DD JUMP JUMPDEST PUSH2 0x3AD JUMP JUMPDEST SWAP1 POP SWAP2 SWAP1 POP JUMP JUMPDEST PUSH0 DUP2 SWAP1 POP SWAP2 SWAP1 POP JUMP JUMPDEST PUSH2 0x619 DUP4 PUSH2 0x5E6 JUMP JUMPDEST PUSH2 0x62D PUSH2 0x625 DUP3 PUSH2 0x607 JUMP JUMPDEST DUP5 DUP5 SLOAD PUSH2 0x58C JUMP JUMPDEST DUP3 SSTORE POP POP POP POP JUMP JUMPDEST PUSH0 PUSH0 SWAP1 POP SWAP1 JUMP JUMPDEST PUSH2 0x644 PUSH2 0x635 JUMP JUMPDEST PUSH2 0x64F DUP2 DUP5 DUP5 PUSH2 0x610 JUMP JUMPDEST POP POP POP JUMP JUMPDEST JUMPDEST DUP2 DUP2 LT ISZERO PUSH2 0x672 JUMPI PUSH2 0x667 PUSH0 DUP3 PUSH2 0x63C JUMP JUMPDEST PUSH1 0x1 DUP2 ADD SWAP1 POP PUSH2 0x655 JUMP JUMPDEST POP POP JUMP JUMPDEST PUSH1 0x1F DUP3 GT ISZERO PUSH2 0x6B7 JUMPI PUSH2 0x688 DUP2 PUSH2 0x55F JUMP JUMPDEST PUSH2 0x691 DUP5 PUSH2 0x571 JUMP JUMPDEST DUP2 ADD PUSH1 0x20 DUP6 LT ISZERO PUSH2 0x6A0 JUMPI DUP2 SWAP1 POP JUMPDEST PUSH2 0x6B4 PUSH2 0x6AC DUP6 PUSH2 0x571 JUMP JUMPDEST DUP4 ADD DUP3 PUSH2 0x654 JUMP JUMPDEST POP POP JUMPDEST POP POP POP JUMP JUMPDEST PUSH0 DUP3 DUP3 SHR SWAP1 POP SWAP3 SWAP2 POP POP JUMP JUMPDEST PUSH0 PUSH2 0x6D7 PUSH0 NOT DUP5 PUSH1 0x8 MUL PUSH2 0x6BC JUMP JUMPDEST NOT DUP1 DUP4 AND SWAP2 POP POP SWAP3 SWAP2 POP POP JUMP JUMPDEST PUSH0 PUSH2 0x6EF DUP4 DUP4 PUSH2 0x6C8 JUMP JUMPDEST SWAP2 POP DUP3 PUSH1 0x2 MUL DUP3 OR SWAP1 POP SWAP3 SWAP2 POP POP JUMP JUMPDEST PUSH2 0x708 DUP3 PUSH2 0x449 JUMP JUMPDEST PUSH8 0xFFFFFFFFFFFFFFFF DUP2 GT ISZERO PUSH2 0x721 JUMPI PUSH2 0x720 PUSH2 0x289 JUMP JUMPDEST JUMPDEST PUSH2 0x72B DUP3 SLOAD PUSH2 0x52F JUMP JUMPDEST PUSH2 0x736 DUP3 DUP3 DUP6 PUSH2 0x676 JUMP JUMPDEST PUSH0 PUSH1 0x20 SWAP1 POP PUSH1 0x1F DUP4 GT PUSH1 0x1 DUP2 EQ PUSH2 0x767 JUMPI PUSH0 DUP5 ISZERO PUSH2 0x755 JUMPI DUP3 DUP8 ADD MLOAD SWAP1 POP JUMPDEST PUSH2 0x75F DUP6 DUP3 PUSH2 0x6E4 JUMP JUMPDEST DUP7 SSTORE POP PUSH2 0x7C6 JUMP JUMPDEST PUSH1 0x1F NOT DUP5 AND PUSH2 0x775 DUP7 PUSH2 0x55F JUMP JUMPDEST PUSH0 JUMPDEST DUP3 DUP2 LT ISZERO PUSH2 0x79C JUMPI DUP5 DUP10 ADD MLOAD DUP3 SSTORE PUSH1 0x1 DUP3 ADD SWAP2 POP PUSH1 0x20 DUP6 ADD SWAP5 POP PUSH1 0x20 DUP2 ADD SWAP1 POP PUSH2 0x777 JUMP JUMPDEST DUP7 DUP4 LT ISZERO PUSH2 0x7B9 JUMPI DUP5 DUP10 ADD MLOAD PUSH2 0x7B5 PUSH1 0x1F DUP10 AND DUP3 PUSH2 0x6C8 JUMP JUMPDEST DUP4 SSTORE POP JUMPDEST PUSH1 0x1 PUSH1 0x2 DUP9 MUL ADD DUP9 SSTORE POP POP POP JUMPDEST POP POP POP POP POP POP JUMP INVALID LOG2 PUSH5 0x6970667358 0x22 SLT KECCAK256 JUMPF 0x21A4 0xCD MSTORE8 CALL POP 0xAA DUP2 DELEGATECALL PUSH25 0x8B50A30AA73E1680C2F08DE16A63205B8617487B7164736F6C PUSH4 0x4300081E STOP CALLER "
				},
				"gasEstimates": {
					"creation": {
						"codeDepositCost": "410400",
						"executionCost": "infinite",
						"totalCost": "infinite"
					},
					"external": {
						"addPerson(string,uint256)": "infinite",
						"people(uint256)": "infinite",
						"person()": "infinite"
					}
				},
				"methodIdentifiers": {
					"addPerson(string,uint256)": "6f760f41",
					"people(uint256)": "9e7a13ad",
					"person()": "77ec2b55"
				}
			},
			"storageLayout": {
				"storage": [
					{
						"astId": 56,
						"contract": "BCN1/SimpleStorage.sol:SimpleStorage3",
						"label": "person",
						"offset": 0,
						"slot": "0",
						"type": "t_struct(People)49_storage"
					},
					{
						"astId": 60,
						"contract": "BCN1/SimpleStorage.sol:SimpleStorage3",
						"label": "people",
						"offset": 0,
						"slot": "2",
						"type": "t_array(t_struct(People)49_storage)dyn_storage"
					}
				],
				"types": {
					"t_array(t_struct(People)49_storage)dyn_storage": {
						"base": "t_struct(People)49_storage",
						"encoding": "dynamic_array",
						"label": "struct SimpleStorage3.People[]",
						"numberOfBytes": "32"
					},
					"t_string_storage": {
						"encoding": "bytes",
						"label": "string",
						"numberOfBytes": "32"
					},
					"t_struct(People)49_storage": {
						"encoding": "inplace",
						"label": "struct SimpleStorage3.People",
						"members": [
							{
								"astId": 46,
								"contract": "BCN1/SimpleStorage.sol:SimpleStorage3",
								"label": "favoriteNumber",
								"offset": 0,
								"slot": "0",
								"type": "t_uint256"
							},
							{
								"astId": 48,
								"contract": "BCN1/SimpleStorage.sol:SimpleStorage3",
								"label": "name",
								"offset": 0,
								"slot": "1",
								"type": "t_string_storage"
							}
						],
						"numberOfBytes": "64"
					},
					"t_uint256": {
						"encoding": "inplace",
						"label": "uint256",
						"numberOfBytes": "32"
					}
				}
			},
			"userdoc": {
				"kind": "user",
				"methods": {},
				"version": 1
			}
		}
	}
}